:020000040000FA
:10000000C0070000D1060000D1000000B1060000CA
:1000100000000000000000000000000000000000E0
:100020000000000000000000000000005107000078
:100030000000000000000000DB000000E500000000
:10004000EF000000F9000000030100000D010000B6
:1000500017010000210100002B0100003501000004
:100060003F01000049010000530100005D01000054
:1000700067010000710100007B01000085010000A4
:100080008F01000099010000A3010000AD010000F4
:10009000B7010000C1010000CB010000D501000044
:1000A000DF010000E9010000F3010000FD01000094
:1000B00007020000110200001B02000025020000E0
:1000C0001FB5C046C04600F0EFFA04B00FB41FBD24
:1000D00008205A49096809580847382057490968CB
:1000E000095808473C2055490968095808474020E5
:1000F0005249096809580847442050490968095875
:10010000084748204D490968095808474C204B4981
:10011000096809580847502048490968095808479C
:100120005420464909680958084758204349096836
:10013000095808475C204149096809580847602068
:100140003E4909680958084764203C49096809582C
:100150000847682039490968095808476C20374919
:100160000968095808477020344909680958084740
:100170007420324909680958084778202F490968CE
:10018000095808477C202D490968095808478020EC
:100190002A490968095808478420284909680958E4
:1001A0000847882025490968095808478C202349B1
:1001B00009680958084790202049096809580847E4
:1001C00094201E4909680958084798201B49096866
:1001D000095808479C201949096809580847A02070
:1001E0001649096809580847A4201449096809589C
:1001F0000847A8201149096809580847AC200F4949
:10020000096809580847B0200C4909680958084787
:10021000B4200A49096809580847B82007490968FD
:1002200009580847BC2005490968095808470000D3
:1002300003480449024A034B7047000000000020B5
:10024000C0070000C00700000122D84B5A6000BF61
:10025000D74A1268002AFBD0016000BFD44A126856
:10026000002AFBD00022D14B5A6000BFD04A12684E
:10027000002AFBD07047F0B505460E46174600240D
:1002800006E0A200B158A2005019FFF7DDFF641C80
:10029000BC42F6D30020F0BD0120C043C549086030
:1002A000401048607047014601229204086890425D
:1002B00001D9102070470020FCE7F0B505460C4638
:1002C0001646002706E028462168FFF7BDFF2D1DD2
:1002D000241D7F1CB742F6D3F0BD70B505460C4611
:1002E0002E460BE0304600F075F9FF2C01D80024B3
:1002F00001E0FF3C013C012080023618002CF1D1C6
:1003000070BD0146012212044868904201D90920BB
:100310007047A9484069401C01D10F20F8E7002030
:10032000F6E7FEB504462068030000F037FA05043E
:100330002B4249598B00201DFFF7E3FF0546002D96
:1003400001D02846FEBDFFF7A7FF0120C00200F044
:1003500041F9042221469948FFF78DFF002801D07A
:100360000320EFE708222146944800F06DF90028A9
:1003700006D1002192480068FFF766FF00F00CF9F3
:100380000320DFE7A768E6686068019031463846D9
:10039000FFF7A3FF324638460199FFF78EFFB20000
:1003A0003846019900F050F9002800D1CAE703202F
:1003B000C8E700F0E3F9834800688349086041E03A
:1003C00060680190E668A0680090B200009901980A
:1003D00000F03AF90746002F00D1B3E70E20B1E74D
:1003E000201DFFF760FF0546002D01D02846A9E734
:1003F0006068002807D1FFF74FFF0320800200F05C
:10040000E9F800F0C9F8FFF747FF0120C00200F04B
:10041000E1F8042221466948FFF72DFF002801D0AA
:1004200003208FE708222146644800F00DF90028D8
:1004300006D1002162480068FFF706FF00F0ACF823
:1004400003207FE700BF00207CE770B505460C461F
:10045000182D04D12068FFF764FF206002E001201E
:10046000206000BF00BF70BDF0B589B05248406940
:1004700003905248806881000398081802900398FE
:10048000000B01900121090302984018401E000B47
:1004900000900124002520462946019A00F0C4F866
:1004A0000022401E91410791069001260027304608
:1004B0003946009A00F0B8F80022401E914105919B
:1004C0000490049BDB43059AD2430698184307998E
:1004D00011430791069037490698086007984860CD
:1004E00009B0F0BD70B53448446934488568466841
:1004F000AA003146204600F0A7F8002801D00020CD
:1005000070BD0120FCE72D484068002801D0012083
:1005100000E000200546FFF7E5FF002807D0FFF7C1
:10052000BBFE0320800200F055F800F035F8FFF71D
:100530009BFF002D0ED020484669204884684768FC
:1005400021463046FFF7C9FE224639463046FFF7BE
:10055000B4FE00BF00F020F810B5184844681A48EF
:100560000460204600F0DCF810BD15480068006803
:10057000401C01D100BFFEE710480068002802D0EF
:10058000042806D101E0FFF7BEFFFFF7E5FF00BF3B
:10059000FEE700BF00BFFEE7BFF34F8F0B480C49DB
:1005A000C860BFF34F8F00BFFEE7000000E50140C9
:1005B00000E40140000600400010001000080000A8
:1005C000B8070000BC070000000000200400FA0586
:1005D00000ED00E010B50146104B1A6808460223F2
:1005E0000F4C636000BF0F4B1B68002BFBD0531CEC
:1005F00004D0904202D20A4B186101E0084B986087
:1006000000BF084B1B68002BFBD00023044C636029
:1006100000BF044B1B68002BFBD010BD0010001066
:1006200000E5014000E4014010B5202A04DB01464A
:10063000203A9140002010BD914020239C1A03468F
:10064000E3401943904010BD034610B50B439B0790
:100650000FD1042A0DD308C810C9121FA342F8D025
:1006600018BA21BA884201D9012010BD0020C04328
:1006700010BD002A03D0D30703D0521C07E000208E
:1006800010BD03780C78401C491C1B1B07D1037854
:100690000C78401C491C1B1B01D1921EF1D118463D
:1006A00010BD70477047704710B500F007F810BDD7
:1006B000014B1B68DB6818470000002019481A49E5
:1006C0007047FFF7FBFFFFF7FBFC00BD20BFFDE716
:1006D0001649174C24688C420BD1164B1B68994263
:1006E0000CD1154B154A1360186810498842EDD09B
:1006F0000AE0134880F30888124B18470F4A13602A
:1007000018680A498842E1D080F308880E49884277
:1007100004DD0E48026802210A4302605B68184744
:100720000346DFE7C0070000C0070000FFFFFFFF30
:10073000000C000014100010001000000000002049
:10074000000400206B05000000200020240500406C
:100750000D48704502D1EFF3098101E0EFF3088104
:10076000886902380078182802D1C046074A104725
:10077000074A12682C3212681047000000B5054B7A
:10078000054A9B58984700BDFDFFFFFF4B04000042
:1007900000000020001000000400000030B4744687
:1007A000641E2578641CAB4204D3635D5B00E318D0
:1007B00030BC18471D46F8E7000C00000010000090
:10100000F0210020FDB101005D22000063B101006C
:1010100000000000000000000000000000000000D0
:101020000000000000000000000000006DB20100A0
:1010300000000000000000005D2200005D220000B2
:10104000D9B20100DFB201005D2200005D22000084
:101050005D2200005D2200005D2200005D22000094
:10106000E5B201005D2200005D220000EBB201004C
:101070005D220000F1B20100F7B20100FDB20100F3
:101080005D2200005D2200005D2200005D22000064
:101090005D2200005D2200005D2200005D22000054
:1010A00003B3010009B301005D2200005D220000CE
:1010B0005D2200005D2200005D2200005D22000034
:1010C00000F002F81AF07BF80CA030C80838241899
:1010D0002D18A246671EAB4654465D46AC4201D170
:1010E0001AF06DF87E460F3E0FCCB646012633420D
:1010F00000D0FB1AA246AB46334318477CA301003D
:10110000ACA30100103A02D378C878C1FAD85207CC
:1011100001D330C830C101D504680C6070470000AD
:101120000023002400250026103A01D378C1FBD803
:10113000520700D330C100D50B6070471FB5C046C1
:10114000C04619F0DEFF04B00FB41FBDF0B4404636
:10115000494652465B460FB402A0013001B506482D
:10116000004700BF01BC86460FBC804689469246B8
:101170009B46F0BC70470000C11000008269024924
:101180008161024810447047911100000100000085
:1011900001B41EB400B501F000FF01B40198864609
:1011A00001BC01B01EBD0000401E00BF00BF00BF5B
:1011B00000BF00BF00BF00BF00BF00BF00BF00BF37
:1011C00000BFF1D17047000070B505460C461646C9
:1011D00002E00FCC0FC5103E102EFAD2082E02D31B
:1011E00003CC03C5083E042E07D301CC01C5361F2E
:1011F00003E021782970641C6D1C761EF9D270BD45
:101200008307FF22DB0E9A408907090E99400028C8
:101210000BDA0007000F0838830828489B001818CD
:10122000C36993430B43C3617047830824489B0001
:101230001B181868904308431860704710B504469F
:1012400000210120FFF7DCFF00211820FFF7D8FF65
:1012500000210B20FFF7D4FF02211920FFF7D0FF58
:1012600002210D20FFF7CCFF02210E20FFF7C8FF5F
:1012700002210F20FFF7C4FF0221C81FFFF7C0FFA4
:1012800003211620FFF7BCFF03211520FFF7B8FF4D
:10129000204600F019F8002010BD6721018070473A
:1012A00010B500F020F810BD0648704710B500F0EA
:1012B00022F810BD704770477047000000ED00E055
:1012C00000E400E003F9004370B505462D4C08200A
:1012D0002070A01CFFF7E1FF5920A080294620467E
:1012E00000F0B3FB70BD10B500F0B8FB254900203D
:1012F000891E087010BDF8B5224E0446B61E30781F
:1013000001270D46002807D0204660380B2808D852
:10131000204600F059FF2BE0602CF9D01A480860F5
:10132000F8BD20466C38032803D8204600F08DFF16
:101330001EE0204670381F2803D8204600F047F9E9
:1013400016E0204690380F2803D8204600F0EAF82F
:101350000EE02046A0380F2803D8204600F076F88B
:1013600006E02046B0380F2804D8204600F0E2F905
:10137000286000E02F60602CD2D128680028CFD1EF
:101380003770F8BD1A000020013000000120254907
:10139000C003086024490020087007202349C005C5
:1013A0008860704770B5204D04462878A04207D069
:1013B000002C05D0002803D01DA14D2019F0CBFE34
:1013C0002878A0420ED000211E4A18482C70002C0C
:1013D0001BD01D4B012C06D0022C0DD014A168206F
:1013E00019F0B9FE70BD1160022111605361032133
:1013F00009068160416070BD116003211160536175
:101400000121C9058160416070BD11601160072133
:10141000C905816070BD10B505A1712019F09BFE52
:1014200010BD000080E100E02000002000F5014038
:101430007372635C68616C5F63636D5F6161722E80
:101440006300000000F500408401002010B5A038C2
:10145000030019F0A1FF0B070E172028313A414B6A
:10146000525C65004B6808788A68194603F0D9F920
:1014700010BD88888A6883B20888194680B203F054
:10148000DFF910BD08884C68CB688A6880B22146B5
:1014900003F0DAF910BD08884B688A6880B21946F3
:1014A00003F0EEF910BD88888A6883B2088819466F
:1014B00080B203F0FAF910BD88888A6883B2088880
:1014C000194680B203F034FA10BD08884A6880B229
:1014D000114603F073FA10BD088982B2888883B27E
:1014E0000888194680B203F074FA10BD08884A686B
:1014F00080B2114603F091FA10BD08894C6882B29F
:101500000888CB6880B2214603F00AFB10BD08882A
:101510004C68CB688A6880B2214603F01BFC10BD82
:10152000012010BD10B59038030019F035FF0906F1
:101530000F161D242C363F464E0088888A6883B2D9
:101540000888194680B204F01DF910BD08884A6861
:1015500080B2114604F051F910BD08884A6880B283
:10156000114604F056F910BD08884A6880B2114649
:1015700004F05CF910BD08884B688A6880B219468F
:1015800004F067F910BD088982B2888883B20888A0
:10159000194680B204F066F910BD08894B6882B222
:1015A0000888194680B204F07CF910BD08884A68A2
:1015B00080B2114604F087F910BD888882B208888D
:1015C000114680B204F0DBF910BD012010BD10B54A
:1015D0007038030019F0E0FE1B0F15192125282F84
:1015E000363B4044484C53585F68707881889095EA
:1015F000999CA2A5AC004A680878114607F019FC2E
:1016000010BD086807F066FC10BD0C790B7B8A687A
:101610000868214607F06FFC10BD086807F000FD60
:1016200010BD07F08CF910BD08884A6880B21146D9
:1016300007F034FE10BD0A790888114680B207F021
:10164000C4FE10BD087840B207F0CDFE10BD08887A
:1016500080B207F0E1FE10BD086807F0EFFE10BD94
:10166000086801F0ECFB10BD086801F016FC10BD25
:10167000088982B209C9194607F0F8FE10BD05C9EC
:10168000114607F042FF10BD08884A6880B2114633
:1016900009F0FAF910BD0C790888CB688A6880B225
:1016A000214609F0CDFA10BD0B7908888A6880B20E
:1016B000194609F07DFC10BD08884B688A6880B225
:1016C000194609F0EEFC10BD08884C68CB688A68A2
:1016D00080B2214609F053FD10BD08884A6880B2E7
:1016E000114609F08CFD10BD0B7908880A7A80B28A
:1016F000194607F02DFF10BD088880B207F02DFFB6
:1017000010BD086807F030FF10BD07F0FCF810BDF1
:101710008A6809C9194607F08CFF10BD07F0DCF88C
:1017200010BD08884A6880B2114608F05BF810BD09
:10173000012010BD10B5B02805D0B12808D0B228BE
:101740000BD0012010BD088880B20AF056F910BDF8
:10175000088880B20AF070F910BD08884B688A6862
:1017600080B219460AF079F910BD000010B50300E7
:1017700019F012FE0A0609060C0C0F0F06060612D7
:1017800007F005F910BD09F027FF10BD01F042FA7E
:1017900010BD06F075FA10BDFAA1FE4819F0DBFC89
:1017A00010BD7FB5FC49054603C901900291132085
:1017B000800169468881F94A0F2310460A2128389A
:1017C0000AF043FE0024F6480AF05DFE641CE4B211
:1017D0000A2CF8D304200090F04801231A4603A9EC
:1017E000F0300AF05DFA002804D0FF20E5A1533064
:1017F00019F0B1FC686800F024FC00211E220846A4
:1018000004F040F907F0C6FA02222421E54801F06D
:101810007FFBE44801222C214C3001F079FBE149A7
:101820000B20B03901F000FA002804D0FF20D5A128
:10183000673019F090FC09F09FFE02F075F901ABDA
:1018400000220821D8A007F085F9002804D0FF2045
:10185000CCA16D3019F07FFC284602F0C2FC0028B4
:1018600004D0FF20C7A16F3019F075FCDB2189007F
:10187000D04819F045FBCF48012141710221817107
:101880000621C1717FBD10B5CA4CA078092804D3C8
:10189000FF20BCA1A73019F05EFC207860214843EE
:1018A000001900210173417BF722C908C900C91C36
:1018B0001140EF22114041730121E1700C3010BD45
:1018C00070B50E4600211C4619801546030019F01C
:1018D00063FD0723050B1711231D2300224629460C
:1018E000304609F096FE70BD22462946304606F085
:1018F00098FE70BD22462946304601F0C2FF70BDF9
:1019000022462946304603F0C0FD70BD22462946D6
:10191000304600F010FC70BD9E489AA1D53819F0F1
:101920001AFC032070BD70B5A24CE078002818D0D6
:101930002078602148430019407B00254007400F74
:1019400001190879401E08712078401CC0B220702F
:10195000092800D12570A078401CA0700AF01DFF56
:10196000E57070BD9348C079002800D08BE77047C0
:1019700070B5904DA86800280CD0FFF7F3FF002841
:1019800062D06022A968FFF71FFCFFF7CCFF0020A0
:10199000A860EFE76879002856D0FFF774FF044687
:1019A00080484C3001F0C4FA6060002804D1C9209E
:1019B00074A1800019F0CFFB60680AF0EAF80028F3
:1019C0000DD0204606F011FD6078010703D5C00850
:1019D000C000401C2BE0734861684C302DE071481A
:1019E00061684C3001F0ADFA00F05AFB00282BD1B1
:1019F000FFF749FF04466B4801F09AFA606000283F
:101A000004D164485FA16D3019F0A5FB60680AF04D
:101A1000C4F8002814D0606800886080204609F06F
:101A20002BFE6078010706D5C008C000801C6070DE
:101A3000FFF779FF9EE75B48616801F082FA99E75A
:101A40005848616801F07DFA70BD10B55A4CE160EC
:101A5000A0605A4800F034FC607010BD5649002068
:101A60000870704770B5564E0546706A94B00C46C3
:101A7000401C04D1B06AC0430004000C0BD0306A93
:101A8000C007C00F2870706A19F03CFAB06A207164
:101A9000000A607114E02B206946087009A96846A5
:101AA0000AF04BF8002804D0972036A1800019F0E6
:101AB00052FB0120287006220AA9204619F0C1F91C
:101AC0002878002803D06079C0210843607114B0E1
:101AD00070BDF0B53A4C0646206895B00D463746C5
:101AE0000837401C08D16068401C05D1A068401C24
:101AF00002D1E068401C11D02068314619F002FA8A
:101B00006068311D19F0FEF9A068394619F0FAF93C
:101B1000E06831460C3119F0F5F925E02B206946D3
:101B2000087009A968460AF008F8002804D0194886
:101B300014A1553819F00FFB08220AA9304619F0F4
:101B400080F92B206946087009A9684609F0F5FF5D
:101B5000002804D0A3200BA1800019F0FCFA082271
:101B60000AA9384619F06DF920692E460836401C3E
:101B700029D16069401C26D1A069401C23D1E069AD
:101B8000401C1FE07372635C686F73745F636F72F5
:101B9000652E6300DA020000B4B30100D801002012
:101BA0006D170000A40B00206E52463531383232DA
:101BB00000000000880700202400002071190000A8
:101BC0008000001012D02069294619F09BF9606945
:101BD000291D19F097F9A069314619F093F9E069C8
:101BE00029460C3119F08EF915B0F0BD2B2468464A
:101BF000047009A909F0A1FF002803D0F649F748AD
:101C000019F0A9FA082209AF28460AA919F019F90A
:101C10006846047009A909F090FF002804D0EF4835
:101C2000ED49C01D19F097FA0822391D304619F008
:101C300008F9D9E770B5EA4C0546A068002804D039
:101C40000320E549000219F086FAA56070BD10B5C1
:101C50000146E44801F075F9E1498879401CC0B2B9
:101C60008871012803D1E048407800F04DFB10BD99
:101C700070B50446DD4816460D46814204D1D7486A
:101C8000D549CB3019F067FA012E05D0E120D249B1
:101C9000800019F060FA70BD66202070002020726C
:101CA000A5810120A07370BD70B515460C4606468F
:101CB000FFF758FE00280CD06621017046800121F4
:101CC000017221680161A18881820573FFF72BFEF3
:101CD00070BD1321304607F078FB70BDC2494968DA
:101CE000884201D210207047032101700020704704
:101CF00070B5BD4C05462078002694B0002801D070
:101D00000820E4E6BA4A6260954201D21020DEE67D
:101D10006868002809D00921D82804D3C31C9B086F
:101D20009B00834205D00846D1E60320400268604C
:101D30000EE0012109074B6B896B4B43AD49511AEA
:101D40000122591AD202891A814201D20421EAE7FA
:101D500000F052FF6178A0680CF04EFBE068401E76
:101D600007280BD8302269460A70887068460DF043
:101D700088FF002802D009A80CF0FBFC2846FFF7DA
:101D800010FD012020703046A1E6F8B504469648C3
:101D90000F464068814208D3002C01D0844204D30E
:101DA000E01C80088000A04201D01020F8BD8C48C3
:101DB0008178002911D039880091417860225143FF
:101DC0000D18287B0C350007000F3B4600222946E2
:101DD000FFF776FD060004D015E0002038800520CE
:101DE000F8BD002C13D039880098814201D90C2607
:101DF0000DE028783B460007000F22462946FFF7F2
:101E00005FFD060005D00C2E01D000203880304642
:101E1000F8BD734C6078401CC0B26070092801D1D5
:101E200000206070A078401EA07068784107490FBC
:101E300001290ED0022906D003291AD066496E481E
:101E400019F089F9E3E7C006E1D46868FFF7FFFEFF
:101E5000DDE7644869684C3001F073F86079401C34
:101E6000C0B260710128D2D15F48407800F04CFACE
:101E7000CDE7E079401CE071C9E7604A10B59042B7
:101E800009D3594A0124A4045268A04201D39042C4
:101E900001D3914201D2102010BD00F0FEFE10BD12
:101EA000564B10B5994209D34F4B0124A4045B68EB
:101EB000A14201D3994201D39A4201D2102010BD10
:101EC000022803D0102801D0092010BD00F00BFF1C
:101ED0000028FAD0052010BD484B10B598420DD30C
:101EE000414B0124A4045B68A04201D3984205D36E
:101EF000994203D3002A03D09A4201D2102010BD88
:101F000000F017FF0028FAD0072010BD10B50446D6
:101F1000354894B04068844202D2102014B010BDFD
:101F20000F2008A9087369460BA809F006FE0028CF
:101F3000F4D16846007A207068464089608068461F
:101F40008089A0800020E9E710B500290BD0264A3F
:101F50005268914202D30B68934201D2102010BD07
:101F60008A88002A02D001F037FE10BD092010BD7A
:101F700010B5224A94B091420ED31B4A01239B0410
:101F80005268994201D3914206D3441E1E2C41D877
:101F9000994203D3914201D21020BFE7012837D1E3
:101FA00008780024C007C00F002803D0032069462A
:101FB000887001E06846847038206946087009A975
:101FC000684609F0BAFD002804D004480CA18B38FB
:101FD00019F0C1F82046A1E7841B0000AA02000006
:101FE00088070020A40B002024000020FFFF000031
:101FF00000220020000000202104000000C0010099
:102000007372635C686F73745F636F72652E6300D5
:10201000072083E70246203A1F2AF9D806F001FE7E
:102020007CE710B5604A5268914201D2102010BD81
:102030000246203A1F2A02D806F068FE10BD07208B
:1020400010BD70B50546594C002020702046461939
:1020500055484660E01C80088000A04204D0FF2064
:102060005349293019F077F801200007C06AC043AE
:102070000006000E03D14F480068401C03D04E48B4
:102080004E49301AC862A8B20422214604F00DF964
:10209000002804D0FF204649393019F05CF870BDA3
:1020A000F0B595B03B2008A9087369460BA809F064
:1020B00044FD002804D0FF203D49813019F04BF841
:1020C0003F4E00246D4630E02F19B87DC10706D081
:1020D000400704D460004019C08809F0E9FB394882
:1020E000807900281FD0B87D80071CD5600040197A
:1020F000C0880022062109F0F7FB002813D03C21FC
:1021000008A8017360004019C1886846C185694606
:102110000BA809F012FD06000BD0FF2024499630D1
:1021200019F019F805E0641CE4B268460079A04291
:10213000CAD8304658E5F7B50546007800270009AB
:102140000C463E46062804D0FF201949BF3019F03E
:1021500002F8287A00280ED0012814D0FF20144954
:10216000E03018F0F8FF0298002C068001D027809C
:1021700066800020FEBD02270926002C10D0A88909
:10218000A080A87B0AE003271426002C08D06888CA
:10219000A0802869E060A88A2082287B2072E2E77C
:1021A00002980680E5E700002400002000220020BD
:1021B000002000000010001000000020000500407A
:1021C000043000008807002010B56038030019F0C3
:1021D000E3F80A060A0F13181F252930353A086854
:1021E000FFF786FD10BD05C91146FFF7CEFD10BDF6
:1021F0000868FFF773FD10BD05C91146FFF73DFEE6
:1022000010BD4B6808788A681946FFF749FE10BD73
:102210008A6809C91946FFF75FFE10BD0868FFF715
:1022200075FE10BD08884A6880B21146FFF78CFE23
:1022300010BD05C91146FFF79BFE10BD05C911462B
:10224000FFF7EFFE10BD012010BD01207047000018
:102250000E4A12680C498A420AD118470B4A126882
:10226000094B9A4204D101B500F08EFE03BC8E46A4
:10227000074909680958084706480749054A064BAF
:102280007047000000000000BEBAFECA64000020D3
:1022900004000020F0210020F021002001203F490F
:1022A000400608603E4908603E490A68FF231B0259
:1022B0009A4383121A430A6038498039086070478C
:1022C00010B502460420384904E0C3005B181B79AE
:1022D000002B0AD00346401EC0B2002BF5D133A11B
:1022E000432018F038FFFF2010BDC300CA50002261
:1022F00059184A718A7101220A7110BD2A4A0021B7
:10230000C00080180171704710B50446042803D33B
:1023100026A1522018F01FFF2348E1000C18207955
:10232000012803D021A1532018F015FF6079A1796D
:10233000401CC0B2814200D06071012017494006A4
:102340008031086010BD70B5164804250068164E2F
:102350000004800F1B4C02281AD014A1692018F029
:10236000FAFE15E02078C10088190279012A07D108
:10237000427983799A4203D04279827170588047BA
:102380002078401CC0B22070042801D300202070A7
:1023900028466D1EEDB20028E4D170BD80E100E05A
:1023A00080E200E018E400E0200C00207372635C1F
:1023B000736F635F7369676E616C6C696E672E63C0
:1023C000000000003400002010B5EFF31080C407B7
:1023D000E40F72B6D2484178491C41704078012818
:1023E00001D10AF0FFF9002C00D162B610BD70B522
:1023F000CB4CE07800280AD10125E570FFF7E4FF17
:102400000AF0F8F9002804D000200AF0CBF90020E7
:1024100070BDC44865714560F9E770B5EFF3108091
:10242000C507ED0F72B6BE4C6078002803D1BEA17F
:102430008F2018F090FE6078401E60706078002851
:1024400001D10AF0D3F9002D00D162B670BD10B5EC
:10245000B348C178002904D000214171C170FFF751
:10246000DCFF002010BD10B504460AF0C3F9AC49EA
:10247000C978084000D001202060002010BDF8B5C8
:102480000246A74C0026A67108200421012510272A
:10249000130018F081FF0D080A0C0E101214161EFE
:1024A000262123252800257122E0022001E0217148
:1024B0001EE020711CE027711AE02020F9E70126B8
:1024C00016E0FFF781FF0AF095F90028FBD00226FD
:1024D0000EE02171A5710BE02771FBE7202000E0E1
:1024E00040202071F6E7FF208FA1763018F033FEF0
:1024F0000AF08CF9002809D00AF08EF9B04205D113
:1025000030460AF08CF90028FAD02CE00120800730
:10251000C560894900224A60884A9661814B02223F
:102520005A60856086480269D243D206D51702698F
:1025300010231A4302610F466D1C00E020BF78682B
:102540000028FBD030460AF06AF90028FAD0002DA6
:1025500004D17B48026910218A430261714902203B
:10256000886000207860A07900280CD00AF042F939
:1025700005460AF09FF8734A002D02D0A260E06081
:1025800001E0E260A060002E01D100F0A5F8F8BDE6
:1025900010B504460AF034F9002805D0604901203E
:1025A000C8704A78521C4A702046FFF768FF10BD79
:1025B000F8B5614DA8680026012802D1AE600AF086
:1025C000F1F86868012800D16E6028680127544C32
:1025D000012812D12E606079002803D000200AF073
:1025E000E1F866712078002807D00AF003F9002886
:1025F00003D0012080070761A770286901282AD12C
:102600002E6100F05FF8012080074761A079002863
:1026100015D00AF0EFF800900AF04CF80099002964
:1026200001D0E16800E0A168411A022901DA8A1CA0
:1026300011DC0099002901D0E06000E0A060FFF704
:10264000C3FE0AF0D7F8002804D0012080070761F4
:10265000A77000E02770E868012812D100F032F876
:1026600000F030F800F02EF8A078002804D1FF2008
:102670002DA1033018F06FFDEE60A6702670FFF7F5
:10268000CCFEF8BD10B5264CE078002801D10AF048
:10269000ADF801208107886100F014F8A0780028C7
:1026A0000BD0254CE068002803D10AF0B8F80028C8
:1026B000F8D10020E06000F005F800201949C0437F
:1026C000886010BD08B55020694608806A461088A9
:1026D000411E1180FAD208BDF8B51248192787604B
:1026E000154900200860C8600AF084F8BE0701247C
:1026F0000B4D002802D03461AC7000E02C70FFF765
:1027000063FE084847600D4928798863FFF7DAFFC0
:10271000B461FFF7D7FF0849002008617461F8BD74
:1027200038000020000300407372635C736F635FC6
:10273000636C6F636B2E6300000100400005004076
:1027400000ED00E0FFFFFF7F8107C90E002808DAD7
:102750000007000F083880082E4A80008018C069E2
:1027600004E080082C4A800080180068C8400006F9
:10277000800F704710B50D20FFF7E6FFC4B20420AC
:10278000C043FFF7E1FFC0B2844203D023A11A2067
:1027900018F0E1FC26490120486010BD0121254ABE
:1027A00048031060244B00221A60244A5160244AD6
:1027B0001060244A11601F49803908607047012168
:1027C0001C4A480310601F4A51601B4A00211160D7
:1027D0001B490860704710B517490868012804D0E4
:1027E0000EA1572018F0B7FC10BD114880680022D8
:1027F000C0B20A6009F0BEFC10BD10B50E480168F9
:102800000029FCD0FFF7E7FF01200D4940030860D5
:1028100010BD000000ED00E000E400E07372635CB6
:10282000736F635F68616C5F726E672E6300000098
:1028300000D5004080E100E000D1004000D300401E
:1028400080E200E000D0004030B40121BC48C90261
:102850000160CD1005604A030260BA4803681B029C
:102860001B0A036004680023240A24020460B6489B
:102870000468240A24020460B4480124446084608B
:10288000B34C23606360A360B24B19601D601A6093
:10289000B14B19601A600121016030BC704710B45F
:1028A0000121A748CA0202600B0203600C06046003
:1028B000A64841608160A94841680029FCD1A4492B
:1028C0000020086048608860A248026003600460DD
:1028D00010BC704701219F48C9020160C910016006
:1028E0007047002805D0012805D0022805D19C4852
:1028F00070479C4870479C48704710B59BA18B203F
:1029000018F029FC002010BD70B500219E4C9F4D91
:102910009F4A8F4B002808D001281DD0022822D0C2
:1029200092A1B32018F017FC70BD01200004A06034
:10293000A86011601960974BC2039A60964A906034
:102940007F4A0012106095480160864801609448F3
:1029500001609448017070BD01204004A060A8602F
:102960005160596070BD01208004A060A860916032
:10297000996070BDF8B59446834A8B4F834D00240F
:102980000126002808D0012832D0022840D077A1A3
:10299000E82018F0E0FBF8BD891E0902090A0120B1
:1029A000000490603C6468606C4A1164012B1DD087
:1029B00000217C4A7D4B51706146DC63DE637C4BB9
:1029C0005C6002249C6004241C61744B3D311960DE
:1029D00073490E605F4B891519606F4B58605E48F4
:1029E00001606C49C00548601670F8BD0121E0E740
:1029F0000120704E4004704F012B04D134645060AC
:102A000068603964F8BD9060346468603964F8BD0A
:102A100001206A4E80046A4F012BF4D1EEE74F4843
:102A20004068704770B54A4D28680026564C01280A
:102A300006D1A068C00303D501200004A0602E6069
:102A40006868012809D1A068800306D501204004E8
:102A5000A0606E6001200AF0B9FEA868012809D1C3
:102A6000A068400306D501208004A060AE6002206B
:102A70000AF0ACFE70BD10B54A490878002818D09D
:102A80000120444AC0079060434AC00B90602C4A22
:102A900000121060414A00201060324A1060404A23
:102AA000106008704A78002A02D048700AF08EFE42
:102AB00010BD0320FAE70120424900060860704774
:102AC0000120244900060860704701203D49400567
:102AD0000860704701201F4940050860704733496E
:102AE0000020C86388151B4908607047410A364AB0
:102AF000C005C00D5043801C5143400A0818704760
:102B000010B4324C430B63431B0C5C020C602E4C24
:102B10006343C31A2E485C0258432B4B400D43437A
:102B2000E31A0124DB0324041B191B1613700A6823
:102B30001018086010BC704710B50AF01BFF10BDDC
:102B400080E100E008E400E018E400E000B00040AC
:102B500040B1004080E200E000E100E000B500404C
:102B600048B100404081004044B100407372635C52
:102B700072656D5F68616C5F6576656E745F7469C0
:102B80006D65722E6300000000B3004040B300404A
:102B900040B5004000F50140008300404085004002
:102BA000008200404800002000B10040C08F00407B
:102BB0000085004004B1004004B5004008B1004069
:102BC00008B5004000E200E0093D00003786000043
:102BD0006F0C010010B50AF0B9FE10BD00200449C9
:102BE000C863012001218140024A116000BF704783
:102BF000C01F004080E200E010B50DF05DF909F063
:102C0000F7F9FEF7C3FB0FF0F5FA0DF08FFF0DF0AB
:102C10001BFF10BD70B50C46054603F0A7FA214610
:102C200028460EF0C2FF70BD70B50D46040012D0EC
:102C3000002D10D02101284618F060F910225449C7
:102C4000284618F0FEF852480121083801804480D7
:102C50004560002070BD012070BD70B54C4E002451
:102C60000546083E11E0716820014018817BAA7B6F
:102C7000914209D1C17BEA7B914205D10C222946C0
:102C800018F0B2F8002806D0641C30888442EADBD1
:102C90000020C04370BD204670BD70B50D460600D3
:102CA0000AD0002D08D03A4C083C20886188401C8E
:102CB000884203D9042070BD102070BD3046FFF754
:102CC000CCFF002801DB401C0AE02088616800017D
:102CD00040181022314618F0B4F82088401C20809B
:102CE0002870002070BD70B514460D001FD0002C58
:102CF0001DD00021A170022802D0102817D108E0B1
:102D0000687829780002084311D00121A170108051
:102D10000BE02846FFF7A1FF002808DB401CA0704D
:102D2000687B297B000208432080002070BD0120C1
:102D300070BD70B5054614460E000AD000203070F4
:102D4000A878012807D004D9114908390A88904287
:102D50000BD9012070BD002C04D028782070288861
:102D6000000A50700220087010E0002C0CD0496856
:102D70000001411810222046103918F062F8287816
:102D800020732888000A607310203070002070BD06
:102D9000540000205A4910B5884207D30121890404
:102DA000884205D357490968884201D2102010BDD6
:102DB0000146012005F0CBF810BD30B5044693B0B4
:102DC00000200D46079014210BA818F099F81C213B
:102DD000684618F095F86A46112010770020507761
:102DE000107802210843107007A80C90012008AA4F
:102DF000907245486A4610850AA80B902088108476
:102E000060885084A0889084E088D084907FF921E5
:102E10000840801C4008400090770820908610876A
:102E200008A80F9010AA0BA9684600F05CFF0028C4
:102E300003D110A800882880002013B030BD3EB513
:102E400004460820694608802D48844207D30120A3
:102E50008004844205D32B480068844201D21020AC
:102E60003EBD2146012005F072F80028F8D12088E7
:102E7000694688806088C880A0880881E088488189
:102E800005F065FE01AB6A46002101F0BBFB694617
:102E900009880829E4D003203EBD1FB50446002060
:102EA000029008206946088115480391844207D39F
:102EB00001208004844206D312480068844202D272
:102EC000102004B010BD05F042FE014602AA0F48D2
:102ED00001F02EFD0028F4D169460989082901D0A6
:102EE0000320EEE7694609882180694649886180A8
:102EF00069468988A1806946C988E180E1E70000C8
:102F000000C0010028000020042A0000FFFF00008C
:102F100010B5031D03600020521E04E05C181C6005
:102F2000401C2346C0B29042F8DB0020186010BD60
:102F300001460A680020002A02D0104612680A6082
:102F4000704702680A6001607047000010B50146D2
:102F50002022094817F075FF07490020C877084666
:102F600010BD0649012048610548064A01689142A2
:102F700001D1002101607047B00E00200005004023
:102F800064000020BEBAFECA0C4908784A78401C8A
:102F9000C0B2904200D008707047094A074820BF6D
:102FA00040BF20BF4178037843701368002B02D1E3
:102FB00003788B42F3D00020704700006B000020A4
:102FC00000E200E00A4A022151600A490B68002B26
:102FD000FCD0906008680028FCD000205060086891
:102FE0000028FCD0704701200007406970470000AE
:102FF00000E5014000E401407047704770477047AA
:1030000010FFFFFFDBE5B15100C001006700FFFFCB
:1030100003B40148019001BD09000020002803D03D
:103020008178012939D101E0102070470188FE4ADA
:10303000881A914233D01BDCFC4A881A91422ED068
:103040000BDC00292BD00320C002081A27D001284E
:1030500025D001210903401A07E001281FD00228CA
:103060001DD0FF281BD0FF380138002815D116E0ED
:10307000FF220132811A904211D008DC01280ED0C3
:1030800002280CD0FE280AD0FF2806D107E001292B
:1030900005D0022903D0032901D0002070470F205A
:1030A000704700B50B2826D009DC030018F074F92E
:1030B0000B1D2125251B25292325271F1B00112832
:1030C0001BD008DC0C2816D00D281CD00F2814D0DB
:1030D000102808D10FE0822809D084280FD0852835
:1030E0000FD0872811D0032000BD002000BD05208F
:1030F00000BDCF4800BD072000BD0F2000BD04204B
:1031000000BD062000BD0C2000BD0D20800200BDCA
:1031100070B500290BD0CB1FFA3B81241E46CDB2DF
:10312000112B1BD2012805D0022806D009E000206F
:1031300010701DE0FF20043001E0FF2003308142C9
:1031400018D0330018F028F9111613131613161699
:103150001316161613131313161316000846FF380A
:1031600081381F2803D9FF39FE39022902D815708A
:10317000002070BD1470072070BD00B5030018F06A
:103180000BF9060406040C080A0C002000BD1120EF
:1031900000BD072000BD082000BD032000BD007851
:1031A0000207120F04D0012A05D0022A0AD10EE02C
:1031B000000907D108E00009012805D0022803D042
:1031C000032801D0072070470870002070470620B0
:1031D0007047002807D0012807D0022807D003280D
:1031E00007D007207047002004E0112002E02120D2
:1031F00000E0312008700020704738B50C4605000B
:103200004FD06946FFF7CBFF002822D12088032149
:1032100089028843694609788907090D0843208097
:103220006946681CFFF7BBFF002812D121880320E4
:1032300000038143684600788007800C01432180A9
:10324000A8784007820F2020012A03D0022A03D049
:10325000072038BD814300E00143218088B2010589
:10326000890F08D0012189038843A9780907C90F6C
:1032700089030843208080B28104890F0AD0A9788D
:103280004004C906C90F400CC903084320808004CC
:10329000800F02D12088400403D5208840210843B4
:1032A0002080002038BD70B50446002008801546F7
:1032B0006068FFF7A2FF002815D12189A08981420B
:1032C00010D861688978C90708D00121490288426D
:1032D00008D8491C17F01EFE298009E0FF21FF31A4
:1032E000884201D90C2070BDFF30FF3003302880A8
:1032F000002070BD10B5137804785B08E4075B000C
:10330000E40F23431370FD2423400478A407E40F43
:10331000640023431370FB24234004786407E40F04
:10332000A40023431370F724234004782407E40FF8
:10333000E40023431370EF2423400478E406E40FF1
:10334000240123431370DF2423400478A406E40FF0
:103350006401234313700078BF244006C00F23404C
:10336000800103431370002906D00878C10701D1FA
:10337000800701D5012000E00020C0015906490E58
:103380000843107010BD30B50A8803239B020488DF
:103390009A4323059D0F02D1A3049C0F01D09B0FDC
:1033A00000E001239B021A4303230A801B039A4374
:1033B00003889804840F02D11805830F01D0800F71
:1033C00000E00120000302430A8030BDF3B593B052
:1033D0000D000FD0139800280FD01221284617F0A7
:1033E0008DFD03AAFF21012003F0D5F80024264615
:1033F00037467AE0102015B0F0BD0720FBE768469D
:10340000807D01280BD16846818A0520C002081AF8
:1034100010D0012810D0022812D0032812D0042C7A
:1034200014D0052C15D113E002290000012800005A
:1034300003300000012400E002246846468A08E0C8
:10344000032406E068460424478A02E0052400E0DD
:1034500006246846418A1398814246D12C74002E76
:1034600041D00DAA0EA905200292019100901023CF
:103470000022FF21304603F02FF9002823D16846AF
:10348000808E2A46C0B20EA9FFF72DFC00281AD163
:10349000AE81002F27D00DA9052008AE0291009023
:1034A000132300220196FF21384603F015F9002866
:1034B00009D16846808EF11CC01EC0B22A1DFFF7DC
:1034C00012FC002801D0032095E708A881784278F3
:1034D00008021043E881062C05D16846807DA87259
:1034E0006846808A2881002085E703A803F05CF8FD
:1034F000002884D0FFF7D5FD7DE7002805D0FE4ADF
:10350000012903D0022903D003207047518800E02D
:103510009188814201D1002070470720704770B523
:103520000C4605461C21204617F0E8FC00202080B0
:10353000002D08D0012D04D0F0A1F54817F00BFEA6
:1035400070BD062000E00520A07070BD70B592B07F
:103550001546064601206A461071107453740846D9
:1035600008300395029048889082FEF7FBF904002A
:1035700019D06580172069468883203600940AABED
:103580007178023307AA01A80EF017F90646607891
:10359000000701D5FEF7C7F9002E0AD03046FFF725
:1035A000ECFD12B070BD1321284605F00EFF03207C
:1035B000F7E708A800906846838B0422012128467B
:1035C00007F0B3FEEDE770B506468AB000200D4661
:1035D00007900590069003A90490052402460291E5
:1035E0000190102300942946304603F075F8002816
:1035F0000DD108A804A9009102900194684683891E
:1036000000222946304602F083FE002801D0FFF751
:1036100048FD0AB070BD10B50EF0D5FA10BDF0B57A
:1036200089B000260546059600780C460827030059
:1036300017F0B2FE0CFD070C390B75759BBEFCD361
:10364000E3FD68680A38FEF702FB07E1A88800225C
:1036500080B20421009008F067FB0290002C04D097
:10366000AB48A6A16E3017F076FD0298002804D171
:10367000A748A2A16F3017F06EFD0298009908309C
:103680000DF0D0FCFEF76EF9040007D060783843E7
:10369000607000986080FEF746F9E1E01321009821
:1036A00005F093FEEAE0002C04D1BD2093A1800038
:1036B00017F051FD60880022042108F035FB0090CE
:1036C000002804D192488DA1883017F044FD00995C
:1036D000002008802A7994461EE0C3005B199B688D
:1036E00007936B469B8B1A0708D5DA0606D560460A
:1036F000C20050194038C08F088006E05B0409D52D
:103700000871C2005019C0884880607838436070E2
:103710000226A3E0401CC0B28445DED89EE0E888C3
:10372000694608800090002C04D1794873A1983034
:1037300017F011FD2878062813D10098C00B10D07F
:1037400060880022042108F0EFFA060004D17048D6
:103750006AA1A23017F0FFFC00203071A8887080A9
:1037600039E060783843607078E0002C04D1684814
:1037700062A1B43017F0EFFC60880022042108F049
:10378000D3FA0090002804D161485CA1B73017F04B
:10379000E2FC009808300EF068FA0121484002D19E
:1037A000E888C00B5AD0009861880226C180D8E70B
:1037B000002C04D1564851A1D03017F0CCFC6088C1
:1037C0000022042108F0B0FA002804D150484BA18F
:1037D000D33017F0C0FC0226C3E7002C04D14C48BC
:1037E00046A1DC3017F0B7FC022661880122204692
:1037F000FEF73EFA01200590B3E7A889002280B2C7
:103800000421009008F090FA0746002C04D04048AC
:103810003AA1EE3017F09FFC002F04D13C4837A1AD
:10382000EF3017F098FC6868029001E009E010E0C2
:10383000288969468881012202A90098FEF734FA96
:103840000CE0002C8DD16D202CA1C00017F083FC62
:1038500087E72F4829A1FE3017F07DFC002C0DD002
:10386000607800070AD50598002807D184202070C9
:103870002046582229460830FDF7A6FC304609B0FC
:10388000F0BDF7B50C460546007A224688B00A32EC
:103890000492921C01920027811E16323E4602922B
:1038A0000B0017F079FD08F405F348488ED0F2F3C9
:1038B00068880022042108F037FA0190002803D11B
:1038C0000EA1144817F047FC01980088002802D088
:1038D0005227072600E151271E26002C70D0688849
:1038E000A0800120A071019804990079C0004019BE
:1038F000C089FFF76BFD0FE0400C00207372635C22
:1039000067617474735F636F72652E6300000000FB
:103910006F0200008603000000287DD10198007925
:10392000C0004019C089208101980079C000401969
:10393000408AA083F0E0698A0091062820D1E889B6
:10394000C00B1DD008462230512786B2002CC5D0AE
:10395000A8890199FFF73AFD002872D16888A080F4
:103960000220A071A88920810120A072288AE0830A
:10397000009820846969009A029817F062FACBE0F7
:1039800008462030502786B2002CA7D0A889049979
:10399000FFF71CFD002854D16888A080A889E0802A
:1039A000287A06280AD002202072288AA08300984C
:1039B000E083204669692030009ADEE70120F3E7C2
:1039C0008FE068880022042108F0AEF90690688A2A
:1039D00000900698002803D1FD49FE4817F0BBFB74
:1039E000069808300EF041F90121484002D1E889DB
:1039F000C00B25D000985127223086B2002C7AD0F7
:103A00006888A080A8890199FFF7E0FC002818D1F8
:103A10000220A071A88900E013E020810420A07298
:103A2000288AE083009820846969009A029817F038
:103A300008FA0699002008710698A98941806BE070
:103A400003200BB0F0BD688804F0DDF900906888B1
:103A50000022042108F068F901900098002804D1A0
:103A6000DC48DB492C3017F076FB0198002804D1A4
:103A7000D848D7492D3017F06EFB0198D649C08839
:103A8000884205D05127222604E01EE03FE035E0C1
:103A900050272026002C2ED06888A080502F07D0D9
:103AA0000220A0712146287B0831FFF738FD33E062
:103AB000287BA11DFFF733FD6A8800230199009838
:103AC000FFF744FD0028BCD126E0C449A889C98875
:103AD000814207D154270626002C0CD06888A0808C
:103AE0001AE008E053270826002C04D06888A0803C
:103AF000A889E08010E00A98068013E05527072681
:103B0000002CF8D0A889A0800020A07104E08D20AE
:103B1000AF49C00017F01FFB0A98002C068001D0A7
:103B20002780668000208CE7AC4900200870704731
:103B300030B585B00C4601F0DBF90546FF2804D10D
:103B4000A448A349953017F006FB0020208020717F
:103B50006080401EE0802046294608300DF056FA6D
:103B60006A462946012002F016FD102412E068463C
:103B7000808800070ED56846C0882946FFF723FDD8
:103B800068468188FF2321438180C0882946019AA5
:103B900002F02CFE684602F007FD0028E7D005B0D1
:103BA00030BD0A46014610B5104608300DF042FA05
:103BB00010BD70B505460022042108F0B5F80400D8
:103BC00004D184488249B73017F0C5FA2046294607
:103BD00008300DF027FA70BDF0B591B00C460746DD
:103BE00004F011F9050005D02878222804D2082015
:103BF00011B0F0BD7A48FBE700220421384608F0F6
:103C000093F80646002C02D0A08800280CD0012092
:103C1000694608710220087400204874002C05D001
:103C2000A0880883206802E00920E1E70883059066
:103C30003046083003970290FDF794FE040018D038
:103C40006780172069468883203500940AAB69781D
:103C5000023307AA01A80DF0B0FD05466078000701
:103C600001D5FDF760FE002D09D02846FFF785FA43
:103C7000BEE71321384605F0A8FB0320B8E708A8E3
:103C800000906846838B04220121384607F04DFBE3
:103C90000021C943F180ABE7FFB585B00E9E778860
:103CA000384604F0B0F8054600220421384608F0F2
:103CB0003BF80446002D03D145494A4817F04BFA1A
:103CC000002C04D147484249401C17F044FA0834FC
:103CD000089869460394C1C105A80DC820356978C4
:103CE0000DF0DAF9CBE5F0B50446002099B00D46A9
:103CF00001460D9010A88181164601818180374AC6
:103D000068469180018510A80180684601878185F9
:103D100081841078012808D0022806D0032804D016
:103D2000042802D0082019B0F0BD2F4A944273D362
:103D30002E4F0121890438688C4201D3844278D304
:103D4000294A954275D3012189048D4201D38542C8
:103D50006FD36168002913D0234A914269D30122AD
:103D60009204914201D3814263D3608921898842C0
:103D700003D801225202914201D90C20D3E70D90C1
:103D800016AA0EA92846FFF78EFA0028CBD168683C
:103D900080784007800F02280AD16846008F80048F
:103DA000800F05D02869002802D03968884240D3A6
:103DB0000AA92069FFF721FA0028B4D12069002858
:103DC0001CD0607880076846008D14D580040FE011
:103DD000FC380000EE030000FFFF0000400C002054
:103DE000023000000C05000000C001002800002087
:103DF000800F68D002E08004800F64D16846008D97
:103E0000810618D58004800F606806D0002812D083
:103E1000396888420DD302E00BE000280BD0FE4940
:103E2000884206D301218904884204D33968884234
:103E300001D2102077E709A96069FFF7DEF90028B1
:103E40009CD16069002808D06846808C0105890FE4
:103E5000012938D18004800F35D00BA9A069FFF764
:103E6000CCF900288AD16846808C80062BD468461D
:103E7000808D810627D4A169002906D00105890F0C
:103E8000012920D18004800F1DD0E068002804D0D3
:103E90000078002817D01C2815D204AA611C2046DF
:103EA000FFF728FA0121890210A80180012768463E
:103EB0008773DA49818104AA033217A92868FEF7BB
:103EC00038FF002801D007202DE710A8007F15A992
:103ED000C01CC2B200200C920190FF320090034639
:103EE0000291FF3203A80332109902F0ACFA0028C5
:103EF00026D110A9888A0F902A892969C84801917A
:103F00000092029010A90A8B6B8928680E9902F022
:103F10009AFA01007ED1C2480025001F81886846B8
:103F20004174090A8174052104A86A4623C210A8B5
:103F30002A46FF21808A0C9B02F0EAF9002802D071
:103F4000FFF7AFF8EFE66846007C0322C1090020C6
:103F5000920290430122920280181490002928D0E6
:103F6000014610A8018068462921877309028181D2
:103F7000058608A8007C0023410860784900C00736
:103F8000C00F014308A80174FD2001406078A54AD4
:103F90008007C00F4000014308A801740CA902204B
:103FA00001910090029503A8109902F04CFA0100CB
:103FB00030D16068002828D0206900280DD10AA9D6
:103FC0000EA8FFF7E0F96078800706D46946088DEF
:103FD0000321090388436946088590496846877329
:103FE000FE3181818F492089891E16F093FF626816
:103FF0000D9811AB0192009002930A46002303A88A
:104000000A9902F020FA010004D12078C10603D4F5
:10401000800600E085E02AD56846058660690028AC
:104020000DD109A90EA8FFF7AEF96846818C0320CF
:104030008002814301208002091868468184694614
:10404000888CC82108436946888474488F73FF3080
:10405000888112AA0CA902200292019100900023EB
:10406000704A03A8099902F0EEF9010059D12078AD
:10407000C00729D068460586A06900280DD10BA984
:104080000EA8FFF780F96846818D032080028143E6
:10409000012080020918684681856846818D40208C
:1040A00001436846818587735F49818113AA0CA902
:1040B000022002920191009000235A4A03A80B9912
:1040C00002F0C1F901002CD1E06800282DD010A821
:1040D00014990180544968468773491C8181E168BD
:1040E00008A80A78027449784174E068412241883E
:1040F00068464186E0680023017908A80175E068F8
:10410000D200C18808A84175090A81750CA8072149
:1041100001900091029503A8109902F094F9010012
:1041200003D00F9800F0E8FEFDE53D480321001F95
:104130000170002E0AD08088308010A8808870809E
:1041400010A80089B08010A88089F0800020EAE5DE
:1041500030B501248BB015460B46012802D0022849
:104160001CD104E0684605218473C90203E02B4991
:1041700068468473891E8181002B12D003210020A0
:10418000890288430121890240186946888405AA6A
:1041900004A91846FEF7CDFD002804D007200BB077
:1041A00030BD1020FBE76A46127C1D480092801E3D
:1041B00005A9FF3201910290FF32002303A80332C8
:1041C000099902F040F9002802D0FEF76AFFE6E7FD
:1041D0001348001F002D01D0418829800470002061
:1041E000DDE770B592B00446012608A886700F4935
:1041F0006846018410AA08A93046FFF7A9FF0028E5
:104200004ED12078064DC00700242D1F002849D02C
:104210001C2168460CE0000000C0010003280000DB
:10422000440C0020030200000329000001180000D4
:1042300016F066FE6846017820200143684601704A
:1042400008A88670F9496846018411940794817F13
:10425000F92001406846891C8177002001466846A4
:104260000177002001466846417704218185C48595
:10427000018607A80A9011A80D9008A809900EAA17
:1042800009A96846FFF72FFD002809D16846008F6D
:10429000E8806846808F2881401C68812C7000204F
:1042A00012B070BDEC802C8110A80088F4E7F7B53F
:1042B000DF4900260A789EB0012A04D0022A02D0E3
:1042C000082021B0F0BD4A88824201D00620F8E7DC
:1042D0001F98824201D10720F3E7012210A98A75B5
:1042E000D4488882002003239B020146994393020D
:1042F000CB1810A90B8669468A81CF4ACA8118A9B2
:10430000887110A9888419A904916946CA82069007
:10431000FF20087503A802F06AF900242546274605
:1043200008AA052103A802F065F9002810D0822808
:104330006FD1002C6FD0002D6DD010A88480C58067
:104340000021017418A8807B11AC012865D06DE0B4
:1043500008A88079002F21D0012857D16846818C88
:10436000B44881421CD113AA0DA905206B4607C38E
:104370006846408C10230022FF2102F0ADF900288E
:1043800068D110A88089042801D006284CD168463D
:10439000818E1F98814239D10F2092E7012835D1B3
:1043A0006846808C0521C902884202D0491C884297
:1043B0002CD19F4841886846408C814201D1012719
:1043C00000E00027002C01D0002D10D01F9988425A
:1043D0001CD113AB0DAA05216E460EC60446102350
:1043E0000022FF2102F078F9002833D101E03546A0
:1043F0000CE010A88089022801D0102814D1C0B286
:104400001BAA0DA9FEF76FFC00280DD16846468C4B
:1044100086E71FE0FFE7052053E714A91BA8221D2C
:10442000FEF787FC002801D003204AE710A8007C93
:104430000023001DC2B210A80274209802900194BB
:10444000009215A81C9901F0FEFF002802D17849BE
:1044500002220A70FEF725FE33E710B50B46401E18
:1044600086B084B203AA00211846FEF743FF04AACF
:10447000052103A802920191009001230022FF214F
:10448000204601F045FF04466846008A012804D012
:104490006D206A49000116F05EFE2046FEF701FE1F
:1044A00006B010BDF0B5624F0446387887B00E46AE
:1044B000032804D0042802D0082007B0F0BD04AAC5
:1044C00003A92046FEF7EFFE0500F6D1606880786C
:1044D0004007800F02280DD1684680898004800F34
:1044E00008D02069002805D055490968884201D2C2
:1044F0001020E2E7208905AA6B46216907C36946B7
:104500000A8A63892068039901F09DFF002802D080
:10451000FEF7C7FDD1E7002E02D06846808A3080C2
:10452000042038702846C8E738B50C00054609D085
:1045300000236A46FF2102F031F9002804D0FEF77B
:10454000B0FD38BD102038BD69462046FEF755FE47
:104550000028F8D1A078FF21C307DB0F2846009A76
:1045600002F044F9EBE73EB50C0009D002AB6A4615
:10457000FF2102F013F9002804D0FEF792FD3EBDA2
:1045800010203EBD0321204616F0B8FC6846008886
:1045900001A90005800FFEF71CFE00280BD168461C
:1045A000007920706846008801A98004800FFEF71A
:1045B00010FE002801D003203EBD684600796070DF
:1045C000A278EF20024068460088C10B09010A4327
:1045D000F7210A404104C90FC9000A43A270F9211A
:1045E0000A40800601D5022000E001204000694613
:1045F0000243097A50084000C907C90F0843A07058
:1046000000203EBD7FB514460522019203AD029500
:1046100000930A462388FF2101F07AFE69468989C2
:104620002180FEF73EFD04B070BD0000052A0000A9
:10463000400C002002280000FFFF0000FC380000B2
:1046400028000020F3B5002799B068460C4607877C
:104650003D4600291DD0E068002806D0A06800284B
:1046600017D001886A4611870780199803F0CBFBA1
:10467000002811D0007822287ED3199800F038FC49
:10468000009000220421199807F04EFB060009D182
:1046900004E010201BB0F0BDFC48FBE7FC49FD48DE
:1046A00016F059FDA078012803D0022801D0072078
:1046B000F0E72088002808D0401E80B203AA0099A5
:1046C00001F069FF002859D11DE0F048401CE1E7E6
:1046D0006946498A228891420BD26846807D00252E
:1046E000012810D16846808AEB4988420BD1012508
:1046F00009E0914203D1002D2AD06D1C01E0022D6A
:104700000BD0032D04D203A801F04EFF0028DFD008
:1047100082281BD0002831D11DE06946897D0129FE
:10472000F1D16946DC4B8A8A5B1ED11A9A420FD0BE
:1047300005DCDA48101A0BD00128E4D108E0012981
:1047400006D0FF390129DED10325E1E7022D15D17D
:104750000D2080029EE7E068002816D00EA90522F1
:1047600002910192009069460B8FA2882088FF2158
:1047700001F0CEFD002800E01DE002D0FEF791FC24
:1047800088E76846A168008F08806846008AC006EE
:1047900001D5C3487EE70798002803D06846008B00
:1047A000022801D0032075E70798A1780078012935
:1047B00003D0800710D408206CE7C007FBD000228C
:1047C0000721199807F090F8002802D00725022049
:1047D00004E0AE48801C5DE70225032008A90870AC
:1047E000218868468185199808360A90099617210C
:1047F0006846818712AB02330FAA052108A80097EB
:104800000CF0DBFF002802D0FEF7B7FC42E710A84F
:1048100000906846838F04222946199806F085FD8A
:1048200038E770B5064615460C460846FEF7F6FB17
:10483000002804D12A4621463046FFF789FCF3E6DA
:1048400010B5FFF734FD10BD70B51E4614460D00BF
:1048500014D0002C12D0616800290FD00121FEF77E
:104860004CFE002809D12068FEF7D8FB002804D1AF
:10487000324621462846FFF736FAD5E61020D3E621
:1048800070B515460C000ED00221FEF736FE00284A
:1048900008D12068FEF7C2FB002803D12946204634
:1048A000FFF700FEC0E61020BEE6F8B506467D48DC
:1048B0000D46016814468A4231D36068002808D04A
:1048C000794A90422BD301229204904201D388422C
:1048D00025D37648864204D0304603F094FA002867
:1048E0000CD0304600F004FB0646284600F0BDFA26
:1048F000002804D16068002802D012E06348F8BDA7
:1049000000236A463146284601F048FF002802D0BD
:10491000FEF7C7FBF8BD68460088800601D410206A
:10492000F8BD6188224628466368FFF76BFEF8BD34
:10493000F7B55C4E0746306886B01446824202D214
:10494000102009B0F0BD384600F0D2FA05465748AD
:10495000874201D0FF2D08D0002304AA29460798DA
:1049600001F01CFF002826D101E04848E9E768462D
:10497000008AC00601D54A48E3E703A90020029156
:104980000527019000976288484B2946079801F057
:10499000A3FE00280FD161683268914208D30191CB
:1049A00002900097238862882946079801F094FEB8
:1049B000694689892180FEF774FBC2E7002907D088
:1049C0003B4B0A881B899A4202D83048401C7047EA
:1049D00038E610B586B004236C46A382344BDC88DD
:1049E000002C07D01B898B4201D2914204D9274861
:1049F000401C55E5062053E56B4619825A8200217A
:104A0000009101911C800221997005A9029104A9CD
:104A100003916946FFF716FE42E5F3B50C4685B0F3
:104A2000812069460873002C1AD0059803F0EBF931
:104A3000070017D03878222868D3059800F058FA74
:104A4000049000220121059806F04EFF00280BD0AB
:104A500000220421059807F067F905000AD105E056
:104A600010202AE5094828E5112026E508491148C3
:104A700016F071FB284608300CF0F6FA064620784E
:104A8000012819D0022838D0072016E5023000008E
:104A9000FC380000E10800000328000000280000A6
:104AA000013400002800002000C00100FFFF0000CA
:104AB000400C0020840A0000A18803AAFEF728FB0E
:104AC0000028CED1B00721D56846007B00281FD131
:104AD000A079C0071CD0E068002205216B4607C3FF
:104AE000638922896888049901F012FC6946087379
:104AF00000280DD0FEF7D5FADFE4A18803AAFEF75F
:104B000007FB0028ADD13420064201D10820D4E4AF
:104B10006846037B29463846059AFEF717FDCCE424
:104B2000FFB597B0002001901F4615460C460E4673
:104B3000179803F068F9002804D00078222803D2DF
:104B40000820A7E5F348A5E5B80801D00720A1E5AE
:104B5000032F00D10027179800F0CAF90890002C05
:104B60001BD0022D77D3EC48006884427CD36119B6
:104B70000091012902D0491E814275D3AD1EAAB20F
:104B80002146E6480DF0F0F800991E394A7F0B7F68
:104B900011021943884267D1ADB2E148B90702D585
:104BA0000189491C00E0012189B20091F90701D077
:104BB000078900E0D94F03AA0899009801F0EBFC9F
:104BC0000DE0F078B1780002084310284CD8019924
:104BD000091D401880B20190A84245D82618002E21
:104BE00060D0707831780002084300998842E8D399
:104BF00058E06946098A0A0754D5002C3FD0019A2B
:104C0000A618121D92B20992F278B37812021A43D2
:104C10009446102A28D8099A6244AA4224D8727865
:104C2000337812021A4390421ED1C8061ED5099845
:104C30000AAA052120186B4607C370783178000254
:104C4000084363460022089901F062FB002803D064
:104C5000FEF727FA1EE507E0F078B1780002084376
:104C60006946098D884201D00B2013E5F078B178B0
:104C7000000208430999401880B2019006E0C90675
:104C800004D50899FEF79FFC0028E3D16946088AFD
:104C90001021884369460882488AFF23049A0899AC
:104CA00001F0A4FD03A801F07FFC002803D16846B1
:104CB000408AB8429DD900220421179807F034F8A1
:104CC000040003D19749984816F045FA2088002837
:104CD000C0D0012108A80170017300264673218805
:104CE0006846018620460830099017980A90FCF71C
:104CF00039FE05001BD01798688017206946888008
:104D000010AB023301AA052108A800950CF055FD4F
:104D100007466878000704D583488249223016F098
:104D20001AFA002F09D03846FEF727FAB2E4132109
:104D3000179804F04AFB0320ACE40EA800906846E4
:104D4000838804220121179806F0EFFA00288CD1FD
:104D500026809FE4F0B500248DB01F4615460E4610
:104D6000002A04D0B90804D007200DB0F0BD1020EF
:104D7000FBE7032F00D1002700F0BAF80390FF28CB
:104D800004D06749B80703D5488902E06148ECE7D9
:104D90000120FA0702D04989491E00E05F4906AAAE
:104DA0008FB2039901F0F7FB38E06946898B090758
:104DB00034D504AB05210022029300910192574B98
:104DC000039901F089FC002821D1002E21D06A46E8
:104DD000128A2988A2183019121D914234D36946CB
:104DE000CA8B0270120A42700A8A8270120AC2705A
:104DF00004A90522001D0092029101906946C88B0A
:104E00000B8A0022039901F067FC002801D00320DF
:104E1000ABE76846008A2018001D84B206A801F09E
:104E2000C3FB002804D0822806D0FEF73AF99CE79D
:104E30006846C08BB842B8D9002C07D0002E10D0DD
:104E40002988A01C814203D20C208EE705208CE724
:104E50002246314631480CF087FF31190870000AAC
:104E60004870A41C2C8000207FE700B585B06946FF
:104E7000FEF7ACFA00280AD16846007C030016F061
:104E80008BFA08052F2F2F2F08080531032005B0B6
:104E900000BD68468078012807D168460088032154
:104EA000C902401A1CD001281AD06846807901280E
:104EB00006D16846808815214902401A05280FD975
:104EC0006846807A012811D16846018929200002AC
:104ED000081A05D0022803D0032801D0042805D1E0
:104EE0000F20D4E711A1164816F035F90020CEE7BF
:104EF00010B506F00FFF10BD10B50C4601F01EFBFB
:104F0000002803D009A10F4816F025F92046FEF726
:104F1000C8F810BD0230000028000020FFFF00008C
:104F2000400C0020FC3800003F0B00007372635CF3
:104F300067617474735F636F72652E6300000000B5
:104F400022020000BB060000F8B500780C461646A9
:104F500010340E36069F022809D0032836D00528C3
:104F60007ED0FF20F6A1E53016F0F5F8F8BDCD892A
:104F70000A2068430E30188031203880002AF5D08E
:104F8000087B9581801FC7B21AE020886168308055
:104F900048780A7800021043F080C8788A780002C6
:104FA00010433081B21C3846091DFDF79CFE002FCE
:104FB00001D0002802D000203071708008340A36F9
:104FC00028466D1EADB20028DFD1F8BDCD890A207C
:104FD00068430E30188032203880002AF5D0087BD4
:104FE0009581401FC7B243E0616822880878F2804B
:104FF0003279C30752085200DB0F1A43FD231A40CF
:105000008307DB0F5B001A43FB231A404307DB0FC8
:105010009B001A43F7231A400307DB0FDB001A43F8
:10502000EF231A40C306DB0F1B011A43DF231A408C
:105030008306DB0F5B011A43BF231A404306DB0FD5
:105040009B011A433271C00970718A784B78100243
:105050001843308132463846C91CFDF744FE00E053
:105060000CE0002802D00020B070308008340A36EE
:1050700028466D1EADB20028B6D1F8BD087BCD899B
:10508000801E86B2304608306843103018803420C5
:105090003880002AF1D0174695811037E800D68174
:1050A000C01900900DE02088388000987860324662
:1050B0006168009815F0C5FE00980834801908371B
:1050C000009028466D1EADB20028ECD1F8BDFFB5AA
:1050D00081B00A9D1E460C46002A05D0607AFF303A
:1050E0000130D080E089108101980E2700780300FC
:1050F00016F052F90B7E0719293541536C787878F0
:105100007E000092087B082805D0032803D091A1D7
:10511000954816F020F8378030200FE000990020E5
:10512000888105B0F0BD0092087B042804D08E4829
:1051300088A1143016F00FF83780312028800098AD
:105140000028EBD1EDE70092087B042804D09320DF
:1051500080A1800015F0FFFF37803220EEE700923B
:10516000087B022804D080487AA13A3015F0F3FF7A
:1051700037803320E2E7087B1746042804D07A48BA
:1051800074A14C3015F0E7FF1020308034202880C7
:10519000002FC6D00020B88116E0207B17460528D6
:1051A00006D0062804D070486AA1603015F0D3FFFD
:1051B0001220308035202880002FB2D0E089B881BD
:1051C0000020388201984088F881AAE70092087B85
:1051D000072804D064485FA1713015F0BCFF378008
:1051E0003620ABE733460095019800F00AFC98E7BB
:1051F0002F2053A1000115F0AEFF92E770B50C46C9
:10520000054602F000FE002804D00078222803D2D0
:10521000082070BD554870BD00220521284606F0C3
:1052200083FD2060002801D0002070BD032070BDE8
:10523000FFB58BB00D4607461720694608850E98C6
:1052400003261446002805D10EA93846FFF7D6FFDD
:10525000002834D1002D0BD000220321384606F05F
:1052600043FB002834D00E980078002830D108E0A5
:105270002078092819D00F2823D031A13C4815F0F7
:105280006AFF0E98A760801D03AA606002320AA917
:10529000204600F00CFC002827D0030016F07CF814
:1052A000071A182323211C1E23000726002231463B
:1052B000384606F019FB0028E3D12C48801C0FB0BB
:1052C000F0BD00220321384606F00EFB0028D8D19D
:1052D0001120F4E70020F2E70820F0E72348401C03
:1052E000EDE70720EBE70320E9E701A80090684617
:1052F000038D04223146384606F017F80028DED127
:10530000002DDCD00E990D70D9E730B587B01D4661
:105310000C46002A11D0042369460B7013888B8138
:105320005288CA81A2788A7422880A8200236A4637
:105330002946FFF77DFF07B030BD1020FBE70000D6
:105340007372635C67617474635F636F72652E630D
:10535000000000007372635C67617474635F636F65
:1053600072652E630000000025020000023000007C
:105370004F030000F3B581B001980C460078082671
:10538000030016F009F8125E46461B134A0A0A0A81
:105390000A0A0A0A0A0A0A0A0A5E002C02D1F64917
:1053A000F64808E06078304360703BE0002CF9D1AB
:1053B000F248F149083015F0CEFEF3E701980022DB
:1053C0008088052187B2384606F0AEFC0546002CE1
:1053D00004D07520E849C00015F0BDFE002D04D1B1
:1053E000E648E549143015F0B6FE3946A81D00F030
:1053F00055FBFCF7B7FA040006D0607830436070C4
:105400006780FCF790FA0FE01321384603F0DDFFC8
:1054100015E0DA48D849283002E0D848D6492D307E
:1054200015F099FE002C0AD06078000707D593206C
:1054300020702046582208300199FBF7C5FE002055
:10544000FEBDCE48CC493130EAE710B500210170ED
:10545000801D00F020FB10BD0A4610B50146901DCE
:1054600000F024FB10BD70B505460022052106F0B2
:105470005BFC040004D1F920BF49800015F06BFEED
:105480002946A01D00F00AFB70BDF7B5054684B0A3
:105490000C4600206946088188806F8802460521F5
:1054A000384606F041FC060004D1FD20B2498000D8
:1054B00015F051FE002C03D0A7800020E080208151
:1054C000297A20461230C91E142700900B0015F0CF
:1054D00063FF0FFDFCFB3809A95E657A2FB2C9E9AD
:1054E0009191FB003078012804D0A3497020143139
:1054F00015F031FEA9896A46C8000E309080302030
:105500001081002C13D0A18100200DE0C100327960
:1055100009190A747288CA8182005319DA894A8289
:105520001A8A401C8A8280B2A1898142EED8F1E0B9
:1055300002A8009001AB22462946304600F02AFA24
:10554000E8E03078042804D08B49BD20143115F0F0
:1055500002FEA8890622014650436A460E3090801A
:1055600033201081002CE2D0A18100200BE0062125
:1055700041434F190919FA89CA81BA7C8A743A8A57
:10558000401C0A8280B2A1898142F0D8C2E0307802
:1055900006280BD078491431D72005E0307806284A
:1055A00004D07549EB20143115F0D5FDE889694622
:1055B0001230888035200881002CB8D0A989A181BB
:1055C0007188E18126E03078072804D06A49FF20FD
:1055D000143115F0C0FDA8896A4601460E3090804E
:1055E00036201081002CA2D0A1812046AA890E303D
:1055F000296954E0E8896946123080B238228880EF
:105600000A81002C7ED0A989A181287A102807D090
:105610000221A173E9892182EA89296900983EE083
:105620000121F6E702A8009001AB22462946304648
:10563000FFF78AFC6EE03078082805D04E49FF203D
:105640001431EE3015F087FD6846372187800181DF
:10565000002C5FD0A989A1810020608220820120D6
:10566000A07357E03078092805D04349FF20143152
:10567000FF3015F070FD288A694614308880372085
:105680000881002C46D00421A173A989A181E98950
:105690002182298A618220462A8A1430696915F09C
:1056A000D0FB37E030780A2804D03349344814312D
:1056B00015F051FD6846372187800181002C29D0E3
:1056C0000521A173002002E01FE004E00DE0A081AD
:1056D000208260821EE002A8009001AB224629468B
:1056E0003046FFF7F4FC15E00CE00D206946392246
:1056F00088800A81002C05D00120E08000202081D4
:10570000207307E00699088019E01C481A49A43064
:1057100015F021FD6846069980880880002C0ED07F
:10572000684600892080684680886080287A03283F
:1057300005D0102803D0112801D00020307000209F
:1057400007B0F0BDF7B5568815460F4682B0002267
:105750000521304606F0E8FA040004D1074806495E
:10576000C43015F0F8FCA41D33462A46394600948F
:10577000029800F022FBD4E440530000950300009F
:1057800013020000F7B58CB00D46144607A90C981B
:10579000FFF734FD002812D1B64E0127002C0FD0A0
:1057A0000321684601701021818208A802460690F4
:1057B000204605A9FDF7BDFA00280BD007207EE59D
:1057C0000821684601708581C68105218774C90258
:1057D00001820BE00798A178017121884180684619
:1057E00005218774C90201828581C6810246012193
:1057F000079B0C98FFF71CFD61E508B501236A467D
:1058000093709D4B13800A4602236946FFF77DFD86
:1058100008BD08B501236A469370974B5B1C138043
:105820000A4603236946FFF770FD08BD00B587B03F
:1058300000290CD002236A4613700B889381498893
:10584000D18100230421FFF7F3FC07B000BD102035
:10585000FBE710B5002903D00523FFF756FD10BD67
:10586000072010BD70B588B00D461446064607A93E
:10587000FFF7C4FC00280DD1002C0DD0062168468E
:1058800001708581C481079B02465C8006213046F9
:10589000FFF7CEFC08B070BD052168460170858118
:1058A000F1E710B588B000290BD007246B461C70B7
:1058B0009A81049100236A462146FFF7B9FC08B09B
:1058C00010BD1020FBE770B50024172288B0002916
:1058D00014D00D782B0015F05FFD06230505190483
:1058E0001B231522D21E93B2CA88002A02D08E68CA
:1058F000002E03D09A4203D90C20CBE71020C9E731
:10590000042D05D08A88002A0AD101E00620C1E7CB
:10591000012D11D0022D05D0042D18D0052D23D036
:105920000720B7E709236A4613704B889381CB8819
:10593000D381896804911DE00C236A4613704B885B
:105940009381CB88D38189680824049112E00D23C8
:105950006A4613704B8893818B88D381CB881382DE
:1059600089680924059105E00E236A461370497879
:1059700011730A2400232146FFF75AFC8AE700B579
:1059800087B00F236A461370918100231946FFF7F1
:105990004FFC5AE7FEB50078089D1C4616460F4698
:1059A000012803D03549912015F0D5FBF889C000B6
:1059B0000E30208030202880387B001FC0B201903C
:1059C000002E1DD0F889B081002516E0E80084196A
:1059D000C0190090224641690E320198FDF783F903
:1059E000002802D000202074E08100986D1C008AFD
:1059F00060820098ADB2408AA082B089A842E5D802
:105A0000FEBD70B514461425049A1D8037231380FB
:105A1000002C0ED0CA89A281002262820078082858
:105A200008D0092810D00A2819D01449144815F0B4
:105A300092FB70BD087B0C2804D011480F490C382C
:105A400015F089FB012008E0087B0D2804D00C48E4
:105A50000A49083815F07FFB0420A07370BD087B4D
:105A60000E2804D006480549001F15F074FB0520D8
:105A7000F3E70000FFFF000002280000545300007D
:105A8000BB02000010B5FE4B586019721A80C900A5
:105A900015F036FA10BD00210180704710B50022C4
:105AA000D2430280032006F0A8FD10BD7047F0B578
:105AB0000E460446017801208840F24999B008401A
:105AC0000090616815460888EF4A904206D0009A17
:105AD000002A06D0EB4A521E104202D0012019B013
:105AE000F0BD009A10430880002D12D000202870CD
:105AF0002178EA1C0027681C01920B0015F04CFC71
:105B000010F30E16233A59616F3CB4B08AB8F2F123
:105B1000F0F320780B28EBD00420E0E70221297075
:105B2000A1890170090A4170032097E004212970BE
:105B3000A1890170090A41700198E1890170090A7F
:105B4000417005208AE006212970A1890170090AA7
:105B500041700199E2890A70120A4A70218A017122
:105B6000090A4171A28AE81DA16915F06AF9A08AA3
:105B7000C01D73E0082129702178082901D1102166
:105B80002970A1890170090A41700198E1890170A9
:105B9000090A41700520308020466A1D02A9103094
:105BA000FDF7C7F800287DD169463088097A40188A
:105BB00054E00A212970A1890170090A417003206B
:105BC0000BE00C212970A1890170090A417001982C
:105BD000E1890170090A4170052030809CE0A089AC
:105BE00084464000401C81B2308888425AD305293F
:105BF00058D30E202870002008E0236942009B5AE9
:105C0000521953701B0A401C937080B26045F4D344
:105C10003180B9E09A48417A002973D0491E417217
:105C2000217B4068C9004518A988286808224018C7
:105C30000838216915F005F9022168460171002133
:105C4000417128680390A98868460181002101A854
:105C5000FFF790FB0020A880002E00D0308093E05A
:105C60002978802211432970297840221143297014
:105C700029788909890112312970A1890170090ADD
:105C80004170E289E81C216915F0DBF8E089C01C4D
:105C90003080287841063FD5C00975D0012168467B
:105CA000017200E02CE0002141723188091D8181E0
:105CB0000495E189019808180590001D0690704828
:105CC000017A68460177002102A8FFF753FB0746D7
:105CD00030880C303080022F06D0002F54D065E081
:105CE0003DE033E01CE05EE065486946097F4268BC
:105CF000CB00D218037A994202D29188002902D0AF
:105D0000042753E02FE0417A491C41721560308826
:105D100090800020308049E06168A089888033E06D
:105D200029788909890116312970A1890170090A28
:105D300041700198E1890170090A4170228A681D49
:105D4000616915F07EF8208A401D46E728788009B1
:105D5000800118302870207B687002207EE7606820
:105D60000188090401D4052720E0C088A189884260
:105D700001D006271AE01E202870012030806068BC
:105D800001884904490C0180009800280ED03C4845
:105D900000220088A1688300032006F087FB616869
:105DA0002078887007E00020308003276068009921
:105DB00002888A430280384691E6FFB59FB0289D4D
:105DC0000E46002805D0172803D82A882E4B9A4261
:105DD00002D1072023B0F0BD3278530601D4D20996
:105DE00001D00820F6E700226B461A715A7114465A
:105DF0003278431E1D939BB2189303AB1A939706F8
:105E0000CB1CBF0E1B93821E711C3B0015F0C4FA05
:105E1000209011EE66EE74EEB0EED4EEEDEEECEE08
:105E2000EBEEEAEEE9EEEEEEE8EEE7EEE6EEE5EEBC
:105E300090EE05287CD1042168460171A978017291
:105E4000F078B2780102114368464181317941719D
:105E500070788006800E0C282ED009DC801E03008E
:105E600015F09AFA0919661C6621662466276600F1
:105E700012282AD00ADC0E2821D01028DAD121E0FD
:105E80004C0C0020FF710000FFFF000016281FD0FF
:105E90001828CFD11FE02878800701E02878400734
:105EA000002845DA45E128780007F9E72878C00698
:105EB000F6E728788006F3E728784006F0E72878A8
:105EC0000006EDE72888C005EAE72888C004E7E770
:105ED00028888004E4E728884004E1E72A789207CC
:105EE00026D50328A6D105206A461071487809787E
:105EF0000002084310811CE129784907F0D50628E3
:105F000016D3717890B2012902D0022992D101E012
:105F1000022100E01021189106216A46117100212A
:105F2000118102AF189AB11C0237921C1B921AE021
:105F3000B3E04A780B7812021A433A80801E891C1B
:105F40001790BA1C1A911898FCF7CDFE1A99189858
:105F5000189A091817986B46801A1A8980B2521C31
:105F60001A811B9ABF1D8242E3D9002886D1E0E046
:105F700028780007B4D51D98694682B207200871B9
:105F800000200881701C0A3111E0437807781B0259
:105F90003B430B80C37887781B023B434B806F46A3
:105FA0003B89121F5B1C001D92B23B81091D042A14
:105FB000EBD2002A71D1BCE02978C9066DD5022840
:105FC0006BD30820694608710020488170780872F8
:105FD000844692B2B01C1A9919E089E090E07EE004
:105FE00067E05BE030E025E019E013E0BCE04378D7
:105FF00007781B023B430B80831C4B606346D21A1D
:106000006F467B8960445B1C92B27B81083194456A
:10601000EDD9CEE7287880063FD5092203E028781D
:1060200040063AD50A2268460271AA880281189A67
:10603000428107E0287800062FD50B206A461071B0
:1060400018981081039174E02988C90525D5022884
:1060500023D30C20694608710020488170780872AB
:10606000844692B2B01C1A9914E0437807781B0258
:106070003B430B80C37887781B023B434B80031D57
:106080004B606346D21A6F467B8960445B1C92B2B8
:106090007B8108319445E8D98BE763E02988C904FE
:1060A00060D501285ED10D2168460171A988018162
:1060B0003FE02988890455D5052853D30E22694627
:1060C0000A71AA880A811B99401F4A78097812022E
:1060D0000A4369464A818881701D049029E0298815
:1060E00049043FD501283DD10F206946087120E0C1
:1060F0002A88120436D44A780B7812021A43EA80AE
:1061000003282FD332789206920E1B2A26D0112212
:106110006B461A712A880123DB031A432A804A78C6
:10612000097812020A4369460A81C01E48811B98F9
:10613000039030788006800E1B2809D01D2807D0D8
:106140000320229906F059FA2888C00BC003288042
:1061500001A82199FFF70EF920463BE610226B4675
:106160001A71DCE70724F7E70824F5E700B597B0D4
:10617000032806D16A461070019100216846FFF796
:10618000F9F817B000BD000010B58B78002B11D0C6
:1061900082789A4207D10B88002B0BD003E08B79D1
:1061A000091D002B08D08B789A42F8D103880C88FF
:1061B000A342F4D1002010BD812010BD052826D0B7
:1061C000002A02D0012A0DD102E00988090501E068
:1061D00009888904890F07D0012918D0022909D01C
:1061E00003290ED081207047002A01D00320704778
:1061F0000220704703280AD0042808D0002804D0C1
:1062000007E0042803D0022803D0052070470020AF
:1062100070470F20704770B51388054614460B80F1
:1062200018061DD5FE481022807AA84203D81343D1
:106230000B80002070BDA06893430078E840C00741
:10624000C00E03430B802078A1788007800D08439F
:10625000F44914F05FFEA06869430818401C70BD43
:10626000906870BD37B569468B88138019061BD5B9
:10627000EB4C0125A47A9168844209D8FE280FD1FD
:10628000D80602D5A5406D1E00E000250D7007E080
:1062900085400C78DB06DB0FAC4383401C430C705D
:1062A00010881021884310803EBDF8B50746C81CF1
:1062B00080080E468000B04201D08620F8BD082A32
:1062C00001D90E20F8BDD64D00202E60AF80288168
:1062D000AA723446E88016E0E988491CE980810604
:1062E00010D48007A178800D0843CE4914F012FE27
:1062F000206800F0BAFA2989401880B22881381A3B
:106300008019A0600C3420884107E5D40020F8BD36
:10631000FFB589B09F041646139DBF0C01930998E1
:1063200000F095FA04000AD02078000609D5BC4890
:10633000817A0A98814204D887200DB0F0BD0120EF
:10634000FBE7224669460A98FFF765FF06900020A2
:1063500069460872052D14D0012221462846FFF710
:106360002DFF0028E9D1207840060AD50221684691
:106370000172099981810188C18106824782129840
:1063800005900198000404D500273E460125079793
:1063900009E02078A1788007800D0843A149079083
:1063A00014F0B8FD0D46019840040AD50798A8429C
:1063B00007D12088E1788005800F00020843B042B1
:1063C00001D3AE4201D90720B7E7B81980B20190D6
:1063D000A84201D90D20B0E76846007A002804D011
:1063E00002A8FDF718F90028A7D10798A8420BD1F9
:1063F000208803210902884301998905890F090230
:10640000084320800198E0701498002800D007808D
:106410001298002815D006983A468019129914F05F
:1064200010FD224669460A98FFF7F5FE694608887E
:106430001021884369460880224600990A98FFF790
:1064400011FF002079E7FFB5754D0C22E888296817
:10645000504383B00C180D9F7249059814F05AFDF3
:106460000091049800F001FA29682A898E46611A81
:106470000C310918944651188AB2A988914202D861
:10648000842007B0F0BD6A46168A320603D5B206EC
:1064900001D58520F5E7EA88521C92B2EA800E9B6E
:1064A000002B00D01A80B20601D5A76006E0604438
:1064B00080B22881091A70460818A0602246FE2082
:1064C0000499FFF7CFFE0598A0700098E07020882F
:1064D0000599800889058000890F08430321090276
:1064E000884300998905890F09020843042108435C
:1064F000208003988078A07103980088A0800020F5
:106500002073310601D5AC7A00E00124B10600D534
:10651000002700260EE0052100200191029000973F
:10652000E88831460C9B069AFFF7F2FE0028A8D1B6
:10653000761CF6B2A642EED30020A2E7F1B5009891
:1065400000F085F9060002D00025009C14E001202F
:10655000F8BD204600F07BF90746007831498007F6
:10656000820DB878104314F0D5FC386800F07DF93E
:106570004019641C85B2A4B22948C188601E8142BA
:10658000E7DC00992648491EC1800189491B018129
:1065900000203070F8BD002804D0401E108091709B
:1065A000002070470120704710B5044601881C4840
:1065B000C288914201D3822010BD00680C22514351
:1065C00042189079A072908820811088D178800537
:1065D000800F00020843A081A078211DFFF71BFE59
:1065E00020612088401C2080E080002010BD012117
:1065F00001827047F7B50546002084B0C043108083
:1066000068681746817868468170686801886846BE
:10661000018000218171288A2C88A04205D303E0E3
:10662000580C00200102000004462C8235E0288A24
:10663000401C2882301D6968FFF7A6FD00282AD17A
:1066400039889248814201D1601E38806888A04212
:1066500028D33088F1788005800F0002084302902B
:106660006946301DFFF790FD002814D169898748DD
:1066700081421BD0002231460598FFF79FFD00287C
:1066800009D16A890298824205D1E968B06814F09C
:10669000ABFB00280AD0641CA4B2204600F0D7F857
:1066A0000600C4D1641E2C828220EAE67C80B07988
:1066B000B871B088B8803078B1788007800D084311
:1066C00078810298B8813946287A32460831FFF736
:1066D000A2FD38610020D4E6FFB585B01C460F4608
:1066E000059800F0B4F8050009D02878000608D510
:1066F0006748807AB84204D8872009B0F0BD0120ED
:10670000FBE707982A468605B60D69463846FFF727
:1067100082FD07460E98052816D000222946FFF76D
:106720004DFD0028E9D1287840060DD501216846A5
:10673000017105990181018841818681C48101A887
:10674000FCF769FF0028D8D12888AA788107890D2D
:1067500011438005800FEA7800021043079A9642A1
:1067600007D04C4A914204D3611E814201DD0B20C7
:10677000C3E7864201D90720BFE7801B82B2A2424D
:1067800000D922461098002800D002800F980028D7
:1067900002D0B91914F055FB0020AEE7F8B51D463C
:1067A00017460E4600F053F8040008D02078000683
:1067B00007D53748807AB04203D88720F8BD01203A
:1067C000F8BD224639463046FFF725FD002D0BD097
:1067D0002078A1788007800D08432E49884201D295
:1067E000012000E0002028700020F8BDF8B51E460A
:1067F00017460D4600F02BF8040008D0207800065C
:1068000007D52348807AA84203D88720F8BD012005
:10681000F8BD224639462846FFF724FDFF2E14D046
:106820002588A178A807800D08431A4914F072FB47
:10683000002E03D1FF31FF31033189B2A170A808C6
:1068400080008905890F084320800020F8BD104989
:10685000CA88824207D3002805D00C220968504319
:106860000C38081870470020704703B50846694681
:1068700009888A0607D4090604D50549897A41435F
:10688000491C88B20CBD00200CBD0000FFFF0000B9
:10689000580C002001020000F8B507780D460446A8
:1068A000012F19D0072F02D00C2F19D114E0A068A6
:1068B000216906780B2E0BD0052005F09EFE052ED3
:1068C0000ED0782300220520216905F0EFFD07E0B6
:1068D000782300220620F8E70520216905F08DFEC7
:1068E000002D0ED0002028702946204603F0E2F942
:1068F000FE482978C05D884201D10320F8BD0220FE
:10690000F8BD0021204603F0D5F90020F8BD70B590
:106910000E460C462036317901208AB015460029F2
:1069200009D0012905D12978042902D10520107048
:1069300000200AB070BD6068019005A802900D218A
:10694000C01C14F0DBFA032205A8A16814F079FA40
:1069500001203071062069460870206A049029469B
:106960006846FFF799FFE4E770B50C4615462031FD
:106970000A790120062686B0002A2CD0012A28D1C7
:106980002978042925D169681022A06801F0B5F999
:106990006868C07B000606D5D44AA0681023103A68
:1069A000014601F09FF91022A168E06801F0A5F905
:1069B000A068C07B000606D5CC4AE0681023103AD8
:1069C000014601F08FF92E70A0686860E068A86049
:1069D000002006B070BD60680190C4482038029065
:1069E0000120087168460670206A049029466846AE
:1069F000FFF752FFEDE7027B032A06D00022242393
:106A00005A540B78092B02D003E0042070470A7611
:106A1000CA61027B9300521C0273C150032070476D
:106A2000F0B50E4615460C46203602463179012057
:106A3000072393B000290CD0012924D002292ED09D
:106A4000032904D12978042901D12B70002013B027
:106A5000F0BD01203071606800280DD0A1690B7075
:106A600060684860206988606069C860206A086260
:106A70001046FFF7C0FFEAE706202870206968602B
:106A80006069A86009E029780629E0D10220307108
:106A9000042028709548203868600320D7E72978BB
:106AA0000429D4D1A08910280AD9103880B2A08135
:106AB000A1681023091805A86A6801F013F923E0FA
:106AC00010282FD0C2B21020801AA1680DAF1190EB
:106AD000C01914F0B6F911980006000E06D0401E39
:106AE000C1B280207854384614F008FA6269102345
:106AF0000DA909A801F0F6F8102309A905A86A68EC
:106B000001F0F0F8032030716068019005A8029050
:106B1000062069460870206A049029466846FFF7F7
:106B2000BBFE94E710232269A168E2E7F0B50E46A8
:106B30000C4620363179012006278FB015460029F2
:106B40000BD0012932D0022905D12978042902D19C
:106B50000820107000200FB0F0BD217D08A8CA07E2
:106B6000D20F02718807C10F08A801716846027030
:106B700041700722801CE16814F063F902A8072223
:106B80000130216914F05DF9606805900AA806904B
:106B900010236A46A16801F0A5F80120307168460B
:106BA0000774206A0890294604A820E0297804295F
:106BB000D1D1062205A8E16914F043F906A80622FE
:106BC0000230A16914F03DF900200890606801903E
:106BD00009A80290102305AA696801F083F8022031
:106BE000307168460770206A049029466846FFF7AE
:106BF00053FEB0E770B50D460C46203529790120CB
:106C00008CB01646002909D0012905D13178042914
:106C100002D10920107000200CB070BD6068019096
:106C200006A802900822E16814F00BF9082208A8CF
:106C3000A16814F006F90120287106206946087041
:106C4000206A049031466846FFF726FEE4E770B5F7
:106C50000D460C462035297901208CB016460029B6
:106C600008D00129D8D131780429D5D10A20107053
:106C70000020D1E76068019006A802900822A16870
:106C800014F0DFF8002008900990012028710620F8
:106C900069460870206A049031466846FFF7FCFD9B
:106CA000BAE730B50B4620331C7901208BB0002C9D
:106CB00009D0012C05D11178042902D10B201070C4
:106CC00000200BB030BD4868019005A802908C6888
:106CD00068462578057564784475CC68257885758F
:106CE0006478C47500200690079001E0E4B30100C9
:106CF000089001201871062368460370086A049002
:106D000011466846FFF7C8FDDBE770B50C46203436
:106D1000034625790120002D0AD0012D14D0022D23
:106D200005D111780A2902D10C201070002070BD05
:106D300001202071C868052202704A684260F84A42
:106D40008260921CC2600BE015780B2DEFD10220FF
:106D50002071C86804240470526842608A688260A6
:106D6000096A016201461846FFF745FE70BD30B55D
:106D7000011D02463132947803258379ED432C437B
:106D800023408371DB070DD04B79547923404B713D
:106D90000B79127913400B718278C9788A4200D935
:106DA000817030BD00224A710A71F5E7F7B50C46D3
:106DB00086B00020694626460870203631790127C2
:106DC0001E2015461F2977D24B007B449B885B0011
:106DD0009F441E0017023E025602690288029A0270
:106DE000D102F5022E03590371037F03AE03C303DF
:106DF000CC03F7031A0464049A04AB04DF04FE0412
:106E000010052A0565059B05C605830587058B05C5
:106E10006069002802D0007813287DD0A068059012
:106E2000002849D0012168460170206A049003219E
:106E3000684601710A214171E069029020790028B9
:106E4000EFD0059909780029E7D00C2964D20B000E
:106E500014F0A2FA0CFD1A4B90B5E8FCFBFAF9F815
:106E600007FD022828D16069002802D00078082890
:106E700052D1022168460170206A04900598417839
:106E8000684601710021B9E20620216A05F0B5FBD0
:106E900020790728E6D1606900F051FF02280CD064
:106EA000606900F04CFF042807D060690028B8D062
:106EB00000780128D6D103E01BE261690120087047
:106EC00005980079C11F0A2901D30A2050E06169A1
:106ED0000722887060690599303013F0B2FF0120F5
:106EE000307161690320087034E00728BAD1606905
:106EF000002896D001780929B4D10599C978890765
:106F000007D1059949790029DFD1059989790029A7
:106F1000DBD105994A7900E04EE2014620314B7DF4
:106F20009A43D2D1059A8B7D92799A43CDD1059A15
:106F30001279D31F0A2BC8D20979914236D8072279
:106F4000C01C059913F07DFF0120307161690A2092
:106F50000870032069460870206A04906069313027
:106F600001906069001D029060691C300390A1E2ED
:106F70002076F2E311288DD1606900F0E0FE04284C
:106F800004D0606900F0DBFE0B2893D1606905999D
:106F900010223730491C13F054FF6069017804292E
:106FA0007CD12421095C8278914201D90620DFE757
:106FB000052101700320307168460170E2E3112859
:106FC00094D1606900F0BBFE062804D0606900F02F
:106FD000B6FE0C288AD1E068002813D0206900286A
:106FE00010D060690178062910D00D210170606908
:106FF000059910225730491C13F023FF6069573060
:1070000009218CE100206946087072E107210170B6
:107010006069059910224730491C13F012FF60691E
:107020004730EDE70228F0D1606900F088FE0028C3
:10703000EBD0606900F083FE0128E6D0606900F0C3
:107040007EFE05E0B1E08DE06CE02AE00AE0D6E0EB
:107050000828DAD00521684601710598417868460C
:10706000417146E11128D0D160690028CDD0017866
:107070000E29CAD1C16A4078022810D000201422FB
:1070800050431430085805991022491C13F0D9FEBA
:107090000520216A00F041FE0F205EE0F1E10120B1
:1070A000EDE70B28B1D160690028AED001780F2937
:1070B000ABD1C16A4078022826D000201422504368
:1070C0000C300958059842780A70807848706069D9
:1070D000C16A4078022819D0002014225043103091
:1070E000085805990822C91C13F0ABFE0520216A37
:1070F00000F013FE60694178022909D000220832AD
:10710000825C5208520073E00120D7E70120E4E7D7
:107110000122F4E7012100E0002108314254BCE3E0
:10712000BEB3010011289CD16069002899D0017874
:10713000102996D1C16A4078022811D0002014226B
:1071400050431830085805991022491C13F079FE55
:107150000520216A00F0E1FD112061690870B4E3A7
:107160000120ECE7082884D1606900289DD00178CF
:10717000112997D10599C06A49780170606905990C
:10718000C06A0622401C891C13F05BFE0520216AA0
:1071900000F0C3FD60694178022904D00022083262
:1071A000825CFD2323E00122F9E71128BBD160694D
:1071B0000028BBD001781229B5D1C16A40780228D5
:1071C00019D00020142250431C3008580599102271
:1071D000491C13F036FE0520216A00F09EFD60690F
:1071E0004178022909D000220832825CFB231A4030
:1071F000022991D18EE70120E4E70122F4E707207C
:10720000B6E6287801288ED16069696814221C309E
:10721000F9F7DAFF6069017F002901D02176ACE33C
:107220000178032901D0032037E00227C770817954
:107230004907490F8171017A4907490F0172417A63
:107240004907490F41726069FFF791FD377196E276
:1072500028780F28E3D1072069460870216A049135
:10726000916802916946087161690722C91C0298F8
:1072700013F0E7FD61690420087000203071BBE065
:1072800028780328CBD1606901780529696807D07F
:107290000822473013F0D5FD0420307105206FE23D
:1072A00008225730F6E728780328B8D160690178BA
:1072B0000529696811D008224F3013F0C2FD05205E
:1072C00030716069006A00280AD00220287000200E
:1072D00028716069006AA860F9E008225F30ECE775
:1072E00004204DE22878022899D12879002801D07D
:1072F000207642E36069A96801626069002901D1D2
:10730000F949016206200BE228780F2887D1A86886
:10731000E0616069017805292BD047300721317180
:10732000E16802220A706269126A4A6088606069D4
:107330003030C8606069C01C08616269087D926A6B
:10734000400812784000D207D20F104308756269D6
:10735000926A521C8A61FD2210406269D26A1278D8
:10736000D207920F104308756069C06A401CC8615B
:1073700053E25730D2E728780828BAD160690178FB
:1073800005291AD00B210170072069460870206A70
:107390000490E069029011200871029803210170A5
:1073A00051681022401C13F04CFD00216846FFF785
:1073B00073FA00203071E06187E20621E3E7287864
:1073C0000F2896D1072069460870206A0490A868A3
:1073D00002901120087102980421017061690A78F5
:1073E000072A0ED0002232710C220A706169102225
:1073F000401C473113F025FD00216846FFF74CFA89
:1074000063E21022401C573113F01BFD0021684637
:10741000FFF742FA0A203071E168032008706069C2
:10742000006A486060695730886060694730F3E1FE
:1074300028780828A1D1606969681022373013F0D4
:10744000D3FC002801D0042092E560690078072869
:1074500017D00A203071E168032008706069006A63
:10746000486060695730886060694730C860206A4A
:1074700008620698FFF7BFFA07466069FFF777FCD6
:107480006BE208207AE1287809289AD10B20307124
:1074900061696868897810224018511A13F02EFD2E
:1074A000082069460870206A049068680190606945
:1074B0008078087268E129780D29BBD161698979E2
:1074C000C90703D00C20307109203EE0307103273A
:1074D00070E228780E28ADD160691422291D1C3075
:1074E000F9F772FE6069018DC06A4172090A817202
:1074F00060698178C06AC1716169CA6A081D117AC0
:10750000C909C90111724379626919438378D26A42
:107510009B079B0F012B00D0002300799B01C0002B
:1075200003431943117260694078012876D0B4E1B1
:1075300060694178022901D0012100E00021083171
:10754000405CC00707D00E20EAE069460870206A58
:107550001146049019E11320B8E728780F2894D138
:10756000A868E0610F2030710520EEE72878032835
:107570008BD16069C16A4078022801D0012000E007
:10758000002014225043103008580822696813F074
:1075900058FC10203071E16806202269087060698B
:1075A000406A48606069C36A4078022801D00120BF
:1075B00000E000201427784310301858CA60886013
:1075C0002BE128780C2886D16069C26A40780228AD
:1075D00001D0012000E00020142148430C30105855
:1075E00002230932696800F07DFB11203071E168E7
:1075F000052008706069006A48606069C06A0930E7
:1076000088603948001F07E128780B28A7D16169F5
:107610004878CA6A022802D0012001E059E100201E
:1076200014235843143010588A78696813F009FC01
:1076300060694178C26A022901D0012100E000217D
:107640001423594314315258817850181022511A7A
:1076500013F054FC072069460870206A0490E06922
:107660000290112008710298062101706169CA6AAE
:107670004978022901D0012100E000211423594357
:10768000143151581022401C13F0DBFB00216846D6
:10769000FFF702F90020E06112206FE028780F2840
:1076A00091D1072168460170206A04909068029089
:1076B0000B2268460271029801706169CA6A4978B2
:1076C000022901D0012100E00021142359430C318B
:1076D00051580A784270497881706169CA6A49785C
:1076E000022903D0012102E0C4B3010000211423C8
:1076F0005943103151580822C01C13F0A2FB00213D
:107700006846FFF7C9F826E760694178022901D089
:10771000012100E000210831405C800703D51420DE
:1077200030710A2011E71620D0E628780F287AD188
:10773000A868E061072069460870206A0490E06943
:107740000290112008710298082101706169CA6ACB
:107750004978022902D0012101E011E1002114231E
:107760005943183151581022401C13F06AFB002174
:107770006846FFF791F80020E061152030710A207B
:1077800069460870206A049029466846FFF784F825
:107790002BE028780F2846D1072069460870206A18
:1077A00004909068029008200871029809210170E5
:1077B00061690622C969097841706169801CC969DB
:1077C000491C13F03EFB00216846FFF765F8AAE765
:1077D00060694178022901D0012200E000220832CC
:1077E000805C400703D51720C8E70746B5E00129AC
:1077F00053D070E028780F2815D1A868E0611820D0
:107800003071E168052008706069006A486060694D
:10781000C06A09308860F848C860206A0862069823
:10782000FFF7E9F8E1E76FE028780B286CD1606991
:10783000C16A4078022801D0012000E00020142213
:1078400050431C3008581022696813F0FAFA0720D8
:1078500069460870206A0490E0690290112008715E
:1078600002980A2101706169CA6A4978022901D027
:10787000012100E00021142359431C3151581022EA
:10788000401C13F0DEFA00216846FFF705F80020DF
:10789000E0616069407801281DD1192016E6606911
:1078A0004278022A09D000210831411809780029BC
:1078B0000DD0CA0703D00E2106E00121F4E78907A5
:1078C00001D5102100E012210170002772E0012A89
:1078D00001D00D20FAE51C20F8E51D2030710B20A9
:1078E00033E62978102948D1F0E56069017801294B
:1078F00043D0082941D00021317100F01AFA0C2040
:1079000069460870206A049037E028780F2805D06F
:107910001020107003271B2030714BE007216846B0
:107920000170206A0490A8680290022168460171E3
:10793000029805210170217E417000216846FEF702
:10794000ABFF0B2168460170206A04902946684607
:10795000FEF7A2FF07461B203071012F0DD029E052
:10796000012168460170206A049004216846017173
:10797000217E41710020207612E0207E00280FD069
:107980006169132008701A2030710A206946087056
:10799000206A049029466846FEF77EFF074609E004
:1079A0006069002801D01421017068460078002821
:1079B00000D021E5384609B0F0BDF7B50F462037B5
:1079C0003879012686B00C46002804D0012828D03A
:1079D00002281CD197E02079012804D0022811D078
:1079E000032814D10AE0A068407801280ED10620AF
:1079F000216A04F0DCFD00287FD10CE0A16813208F
:107A0000087008E0A0684178022901D0052674E0DA
:107A10000078082871D1012038710A206946087061
:107A200033E0089800780F2867D107216846017075
:107A3000206A049008988568029522790220012A1C
:107A400004D0022A29D0032A57D10FE006466846FF
:107A500006710B202870207B00214007400F6870C2
:107A60006846FEF719FFA068067045E006466846BE
:107A7000067105202870207B687000216846FEF79B
:107A80000BFF3E710B2168460170206A0490684626
:107A90000899FEF701FF06462FE0684601710120B4
:107AA0002870207C6870607CC007C00FA870A07C24
:107AB0004007400FE870E17C2971C0071FD0207D8E
:107AC0004007400F6871607D4007400FA87100219A
:107AD0006846FEF7E1FEA06807222946303013F021
:107AE000B0F9E068017AA06820300171A1682879B6
:107AF0008870A16809200870002630465BE70020E6
:107B0000A8716871E3E7A168142008700121684634
:107B10000170206A0490042168460171217B417143
:107B20000021FEF7B9FEE7E7F0B585B00F46054640
:107B30000124287B800040198038C66F3078411EB0
:107B40000A290AD22C498000323140188038C36F8C
:107B50003A463146284698470446002C01D0012C6D
:107B600011D1287B401E0006000E287301D003248B
:107B7000DFE70D2069460870306A04900021019605
:107B80006846FEF789FE032CD3D0204605B0F0BD31
:107B900070B515460A46044629461046FFF7C4FF4D
:107BA0000646002C0FD0207814280CD1207E002807
:107BB00006D000202870204629460C30FFF7B4FF7D
:107BC000204600F0B6F8304670BD704710B5012968
:107BD00003D0022901D0052010BD417000F0A9F8A2
:107BE000002010BD002809D0027E002A06D00A46D7
:107BF00001460C31CCE70000C2B301000120704700
:107C000030B5044687B00D46062004F0F6FC294640
:107C1000052004F0F2FC2078142805D000206946E5
:107C200008702046FFF7DEFF07B030BD7FB50E4677
:107C300000216A4611730178092903D00A2903D06B
:107C4000002407E0446900E08468002C02D0217E13
:107C5000002912D0154601462846FEF7CCFE03281F
:107C600009D1324629462046FFF792FF6946097B33
:107C7000002900D0042004B070BD25460C35EAE789
:107C800000B50023012285B005280CD0062808D1B4
:107C90006846027004910221017143710021FEF7D0
:107CA000FBFD05B000BD6846027004910271F4E767
:107CB00010B590B00C4605216B4619700190234811
:107CC00002900892001D03900AA96846FFF7AEFFD4
:107CD000002805D1102220460B9913F0B2F800209D
:107CE00010B010BD30B505E05B1EDBB2CC5CD55CDE
:107CF0006C40C454002BF7D130BD10B5002409E00E
:107D00000B78521E5B00234303700B78401CDC0988
:107D1000D2B2491C002AF3D110BD70B50C460546FD
:107D200004F06BFC782300222146284604F0BEFBB9
:107D300070BD4178012900D00821017070470028EA
:107D400001D000787047082070470000BCB30100E4
:107D500070B5F84D040008D0012C10D0022C07D0CB
:107D6000032C05D0F4A1752007E0F3A16C2004E0FA
:107D70002878012803D0F0A1722013F0ECF92C70C0
:107D800070BD70B5EB4D044610280AD0112C16D0EA
:107D900028468178122C07D0132C0AD0E6A1A42003
:107DA0000BE0E5A1992008E0112908D0E2A19E206E
:107DB00003E0112903D0E0A1A12013F0CCF9AC70AD
:107DC00070BD10B5DB4894B0007B002819D0172097
:107DD00069460870D74900A806220D31023013F019
:107DE00030F809A9684603F0A8FE0446112805D01A
:107DF000002C03D0D0A1C02013F0ADF9204614B060
:107E000010BD3220E4E710B50022022103F08CFF00
:107E100010BDFFB595B01D460E460746FFF7F3FFB0
:107E200004000AD02078222804D3A07F8006C00F47
:107E3000A84204D1082019B0F0BDC348FBE73721A0
:107E4000684601704780002D05D0012101714671FF
:107E50001799817102E000206946087109A96846F6
:107E600003F06BFEA07FDF21084069010843A07783
:107E70000020E0E770B50446084620380D460300B0
:107E800013F08AFA0A060A11232C3342495057612B
:107E9000FF20A9A10D3052E02078202851D1FF20E9
:107EA000A5A110304BE0A3480178032949D0807880
:107EB000132846D02078242843D0252841D02328D1
:107EC0003FD0FF209CA1133039E02078222838D001
:107ED000232836D8FF2098A11A3030E020782228B5
:107EE0002FD0FF2094A11E3029E02078222828D00E
:107EF000242826D0262824D0272822D0292820D07C
:107F0000FF208DA121301AE02078252819D0FF20EC
:107F100089A1283013E02078252812D0FF2086A1DF
:107F20002B300CE0207825280BD0FF2082A12E30AA
:107F300005E02078282804D0FF207FA1313013F0FD
:107F40000AF9257070BDFF207BA13430F7E730B50A
:107F50007E4C0B887E4A022801D0934204D09D1F9C
:107F6000A54225D2022802D04D88954203D04D88E3
:107F7000AD1FA5421CD24C88A34219D88B88FF257F
:107F8000F435AB4214D8022802D0C888904205D0FC
:107F9000C8886E4D0A382D1FA84209D2C888904261
:107FA00008D0944206D05B1C63438000834201DB0F
:107FB000072030BD002030BDF0B56649884245D36A
:107FC000654A0125AD041368A84201D398423DD308
:107FD0000279002A06D0082A02D8067B082E05D985
:107FE0000720F0BD047B002CFAD0F6E7002A06D06B
:107FF00004688C422AD3AC4201D39C4226D3002E83
:1080000006D084688C4221D3AC4201D39C421DD35C
:1080100000240CE00568A700ED598D4216D3012716
:10802000BF04BD4201D39D4210D3641CE4B2A242FE
:10803000F0D800220125AD040CE084689700E459D3
:108040008C4203D3AC4203D39C4201D21020F0BD3A
:10805000521CD2B29642F0D80020F0BD10B5028971
:108060003E4B111F994213D24189042910D3DB1CC6
:1080700099420DD891420BD80178890706D54068FE
:10808000002803D0FFF798FF002800D1002010BD82
:10809000072010BDFFB50022099B002802D099429D
:1080A00005DC6EE0002902D1002004B0F0BD0920FB
:1080B000FBE7845C002C12D087187D78112D59D0F5
:1080C00010DC2B0013F068F90A561726262C2C2EEC
:1080D0002E4C4C56835C002B46D1521CD2B28A42A5
:1080E000F8DBE1E71C2D45DA123D2B0013F054F9C3
:1080F000044242121A42022CD9D1BB78039C072BAE
:10810000237001D25B0701D40A20CEE7029B012431
:108110001B782CE0E343DB0708E0012C08D029E0C2
:108120000620C2E70F2523072D075B19002BF4D08B
:108130003046BAE7640C00207372635C6761705F5D
:10814000636F72652E630000023000007B0C00003C
:10815000FFFF000000C0010028000020FD3F0000DC
:10816000029B1B789C0701D50B209EE7022423432A
:10817000029C2370835C521C9A18D2B28A4202DDA0
:1081800095E7192676028A4293DB8DE710B50478CD
:108190000B46002C08D00121F94A012C07D0022CF3
:1081A0000BD0032C13D10EE00021197011E01970CF
:1081B0008179890903290AD10BE01970817989092C
:1081C000012904D105E019708179890901D010468F
:1081D00010BD411C0622581C12F033FE002010BDB9
:1081E00008B51346002806D0E6A00068009048793C
:1081F0006A468009105C18700622581C12F021FE95
:1082000008BD30B50C46097895B0222902D2082065
:1082100015B030BD282369460B704880132A03D05F
:108220003B2A01D00720F3E708460A7109A903F0A9
:1082300084FC050003D121212046FFF71BFE2846C0
:10824000E6E700B595B0232369460B704880108897
:1082500088805088C880D088488190880881002014
:108260008881C88109A9684603F067FC15B000BD84
:1082700070B50C00064610D0FFF7C5FD050003D110
:10828000C149C24812F067FFA6802889E08028898A
:10829000208168896081A889A08170BD70B50E4673
:1082A000050003D00021092004F0A7F90120B84CF3
:1082B000022E207324D0032E04D0D320B249800094
:1082C00012F049FFB24806210D3003F02DFFA07CCB
:1082D0008006800EA074FFF774FDA08B00280ED0DE
:1082E000002D0CD0830001220021092004F0DEF8CB
:1082F000092804D0A548A449283012F02CFF70BDED
:10830000A3480321103003F00FFFA07C402180061A
:10831000800E0843A0749E480C3002F04EFBDAE752
:108320007FB501A9022003F06EFD002851D09748C7
:108330009549673012F00FFF4BE0029C207821280E
:1083400047D0A07F01072BD52046223000906846F9
:108350002346628E80882146343301F084FC050078
:1083600005D011282ED089488749843028E0A07F85
:10837000F7210840A077E17F480889074000C90F2E
:1083800008432021095D4007400FC9000843E077FA
:108390002078282824D129212046FFF76BFD1FE0F3
:1083A000400716D568462246808821460E32FFF7E0
:1083B00048FF050008D0112804D074487249933052
:1083C00012F0C9FE00250BE0A07FFB210840A0773A
:1083D00006E001A803F025FD0500AED0052D02D072
:1083E000284604B070BD0020FBE7F8B5040004D1B6
:1083F00066486549A13012F0AEFE722020706068B8
:1084000008260178091F0B0012F0C6FF11FD0A466D
:1084100068FC460EFCFC4746464646FD92FD46007B
:108420007B205949C00035E087883846FFF7EBFCD0
:10843000050004D11F205449400112F08CFE6078E1
:10844000042130436070524CA07F0843A077212163
:108450002846FFF70FFDA87F8007800F012801D174
:10846000801EA080384603F0B1F83846FCF7FBFFC9
:108470003846FBF79EFB3946022004F0BEF8A87F81
:10848000EF210840A877FFF74BFF002804D03F48B2
:108490003D49C93012F05FFEF8BD85882846FFF7D8
:1084A000B2FC002804D139483749D33012F053FECA
:1084B00060688078012804D034483349D53012F000
:1084C0004AFE60688179284603F09CF90028E3D0D1
:1084D0006178314361706168C880F8BD878838462B
:1084E000FFF791FC050004D128482749E63012F037
:1084F00032FE60783946304360706068C0882881F9
:1085000060680089688160684089A881022004F061
:1085100074F80020A875A87F8007800F0228DCD19E
:10852000FFF7FEFE0028D8D0212017494001B1E70F
:1085300080783C2803D00025022814D000E00125D3
:108540000027002808D03C2806D0022804D00F4875
:108550000D49FF3012F0FFFD002F06D002263046F5
:1085600001F06CF9F8BD0127EBE7607830436070EB
:108570000748817F31438177002D0BD00126EEE73C
:10858000023200000302FF01388100002E030000C8
:10859000640C002060688788384601F07BF9054646
:1085A00060688079012832D00226A87F06228008E0
:1085B00080003043A8776068C08A28816068008B9B
:1085C00068816068408BA8816068C079E8756168DF
:1085D00028461830083112F034FC60680622807B8F
:1085E00068706168A81C0F3112F02BFCA87F81070E
:1085F000890F384602F0D4FFA87F8007800F01283A
:10860000ADD101E005E008E0FE488780A7E701263C
:10861000CBE7204601F01EFEF8BD60783043607065
:10862000F8BDF7B505460078002700090C463E4620
:1086300001287DD00022F44902287AD0072804D0EE
:108640000A2877D0F149F24839E1686803780D2BA0
:1086500035D006DC042B6ED0072B3AD00A2B69D11B
:1086600006E0122B3CD0132B44D0142BF7D1BEE0E4
:1086700011270726002C7CD08088A0806968FB2306
:108680008979A171DF4905468A7F1A408A770421DA
:1086900003F071FB0521284603F06DFB00212846FD
:1086A00003F069FB0121284603F065FB03212846FE
:1086B00003F061FB0221284603F05DFB01E1012785
:1086C0000926002CD7D08088A08068688079207225
:1086D000F7E012270E2680882146FFF7C9FDF0E05B
:1086E0001A270726002CC6D04088A0806868007929
:1086F000A071E6E081783C293ED010271E26002C90
:10870000B9D08088A0806868C08A20836868C08AE1
:10871000E0826868008B60836868408BA08369682A
:10872000607D497F40084000C907C90F084303E046
:108730006CE097E0BAE029E060756968C007497F9E
:10874000C00F49084900084360756968A21DC879CF
:108750000831FFF745FD69682246887B0D320F31ED
:10876000FFF73EFD68688079002803D0012020755E
:1087700007E076E00220FAE719270726002C70D0E0
:10878000A271A048F722817F11407DE01B272E2691
:10879000002C66D0A1806968A21D0879491DFFF7E9
:1087A0001FFD68682030C07A60736868C07804284C
:1087B000A07B19D040084000A073F92108406968E7
:1087C0001F22C9788907490F0843A07369684007C9
:1087D000C97A400FC9000843A073696820460F306A
:1087E0000C3112F02EFB6CE001210843E4E71E2758
:1087F0000E26002C6DD0A1806868E21D407AA07121
:1088000069688878C91CFFF7EBFC5AE0287A0128D0
:1088100005D0022815D07E487C4932384FE01D270C
:108820000E26002C55D06888A080A889E080E889B1
:108830002081288A6081688AA0817248DF22817F36
:10884000A2E712270E266888FFF712FD002C40D001
:1088500068784007400F032833D16A48FD22817FA2
:1088600092E736E0287A030012F096FD0604101015
:108870002020202619270726002C2AD0A180614815
:10888000A271817F4908490081771AE019270726DC
:10889000002C1ED0A180287A012805D00320A071C9
:1088A0005848EF22817F6FE70220F8E721462846EB
:1088B000029A01F068FEFEBD55485449801F12F02F
:1088C0004AFC0298002C068001D027806680002098
:1088D000FEBD02980680FAE710B54A4894B0807849
:1088E000132802D0082014B010BD22206946087059
:1088F00009A9684603F021F904460021072003F086
:108900007CFE2046EFE700B53E4895B080781228FF
:1089100001D00820AAE41E21684601700021817060
:10892000C17009A903F009F90028F3D1002107203B
:1089300003F063FE1120FFF724FA002096E400B54F
:10894000304895B00078022801D0032818D11B21A7
:1089500008A801730021817369460BA803F0EDF8A4
:10896000002804D1684640781B2801D003207DE40C
:108970000021084603F041FE68468078002801D0B7
:10898000082073E40120FFF7E3F900206EE4F8B556
:108990001C4C030012F000FD0A06791779797979E9
:1089A00044356779FFF7CBFF00282AD1F8F7DAFFC3
:1089B000002826D02221017000210172F8F7B3FFB0
:1089C000A07F01214BE08EB23046FFF71CFA050074
:1089D00004D10F480D492E3012F0BDFB2878212814
:1089E0000FD0F8F7BFFF002814D012210170022722
:1089F000077246800020A875F8F795FFA07F3843DE
:108A0000A077F8BD640C0020FFFF00003881000053
:108A10005F050000132229463046FFF7F2FBF0E71E
:108A2000A578122D06D0132D07D0F849F84812F07A
:108A300092FBE6E7FFF767FF01E0FFF74DFF002835
:108A4000DFD1F8F78FFF0028DBD022210170122D33
:108A500007D002210172F8F766FFA07F10210843BA
:108A6000CEE70121F6E7A07C810901290BD080091E
:108A700004D0E748E549223012F06DFB03210020C5
:108A8000FFF70CFCBDE70221F9E7E148DF49293097
:108A9000CDE7F7B514460D0004D1DD48DB49313090
:108AA00012F059FB28780827012807D002281FD088
:108AB000D748D649623012F04EFBFEBD0098FFF752
:108AC000A2F9060004D1D248D049383012F043FB55
:108AD0000220B0751030207060783843607007CD88
:108AE000083407C4CB482022817F11438177FEBD23
:108AF0000098FFF788F9060004D1C548C3494630FD
:108B000012F029FBA988C448814208D1EA88824230
:108B100005D1132231460098FFF773FBFEBD814259
:108B200002D1E888002809D01220207060783843EC
:108B3000607007CD083407C4002006E078230022C7
:108B40000220009903F0B2FC0120B075FEBDB148CF
:108B500040897047FFB591B01498FAF71BF90028C7
:108B60005DD10124684603218471C90281800022FD
:108B700001A92046FBF7ECFA002850D168461521E0
:108B800084714902818000261C2102A8009612F0FF
:108B9000B7F90120014668461031017000200146F6
:108BA000684641708178F9273940891C21438170DA
:108BB000017A02252943017212998186C6861F21F6
:108BC00001870C9011980F9001A80B9009AA0BA98E
:108BD00002A8FBF788F8002821D168468D4E808CCA
:108BE000F080684684718D498180807809AA384078
:108BF000801C41084900684681708586058713A856
:108C00000F900BA902A8FBF76EF8002807D1684661
:108C1000808C308131460A311498FAF7CEF815B0BD
:108C2000F0BD30B50C467E4995B08C423CD37D49B1
:108C3000012292040968944201D38C4234D3203833
:108C400000220125030012F0A7FB06042A44484E27
:108C5000575F0021082003F0AAFC002802D0112051
:108C600015B030BD24206946087000A80522A11C5B
:108C7000023012F0E6F809A9684602F05EFF05002E
:108C80002FD1082300221146184603F00FFC0828B4
:108C900027D05F485D49D63012F05DFA21E0606868
:108CA000002803D0884201D21020D9E73D21684630
:108CB0000170218841806188818009A902F03DFF0F
:108CC00005000ED1606800280BD06946098D01802F
:108CD00007E0206801F0B2FE02E0204600F024FE2A
:108CE00005462846BCE73E2007E0857000E082701C
:108CF00009A902F022FFF3E73420694608702078C2
:108D0000C0076846F3D0F0E70720A9E730B50C4666
:108D1000444995B009688C4201D21020A0E7203860
:108D2000030012F039FB05042121232132002088A1
:108D3000FFF769F8002804D00078222803D2082021
:108D40008EE739488CE725216846017021884180EB
:108D500009A902F0F2FE050015D10AA90522023187
:108D6000A01C12F06EF80EE006250CE0206800282A
:108D700005D0884201D2102505E001F055FE2548B6
:108D80000025808BA08028466AE7072068E72148F5
:108D90001330704710B520211E4812F0AFF80120A3
:108DA000FEF7D6FF1120FEF7ECFF00211948C9435A
:108DB000818000218176E1218900818301460C3088
:108DC0000D310446F8F74EFE1248072221461330B3
:108DD00012F037F8FEF7F5FF002803D00B491348CF
:108DE00012F0B9F901F0E5F910BD10B504463C21C7
:108DF00012F084F8A07F80088000A07720202070E7
:108E00000020A0752034607010BD00003881000083
:108E1000B5050000640C0020FFFF0000012A0000DF
:108E200000C0010028000020023000001C070000E4
:108E30007047FEB50546FF480C46814207D3012026
:108E40008004844205D3FC480068844201D210208B
:108E5000FEBD002D02D0012D32D126E0F7490822B7
:108E60000F46684611F0EDFF39462046FFF78EF9B0
:108E70000028EDD1FEF7A5FF060006D007226946BF
:108E8000384611F0DEFF3046FEBD2078002801D0C4
:108E9000012805D1E94807223946C01D11F0D1FF4C
:108EA0000021092003F0A9FB0FE00978002907D071
:108EB000012905D0022905D0032903D0E048FEBDD1
:108EC0000720FEBD0120FFF7E9F9DC480C38857664
:108ED0000020FEBD10B5D8490968884201D2102093
:108EE00092E7D64902460C390B7B0D311846FFF745
:108EF00077F9002088E7FFB599B00546002008A95A
:108F000008746946087108A908730875CA481446A8
:108F10000121C84A890400681E46002D05D09542EB
:108F20000BD38D4201D3854207D3002C08D0944245
:108F300003D38C4204D3844202D210201DB0F0BD72
:108F40002846204318D01F270BAB0CAA00972846B1
:108F50001A99FFF79FF80028F0D10DAB01AA31460E
:108F600020460097FFF796F80028E7D16846007979
:108F7000C00703D00A20E1E70720DFE702AF002D9A
:108F80000FD01A20694608721A9888722946F81C70
:108F90001A9A11F056FF0EA902A802F0CEFD002881
:108FA000CCD1002C0ED02021684601728672324648
:108FB0002146F81C11F045FF0EA902A802F0BDFDE4
:108FC0000028BBD19D4908A8007B0C3948700020BF
:108FD000B4E770B506460A200C46087015461146DF
:108FE000204602F0AAFD002807D139212170204631
:108FF000294602F0A2FD002804D0082801D190489B
:10900000401C70BD2A462146304600F0B9FC04469B
:10901000082803D18B498C4812F09DF8204670BD7A
:10902000F0B5044689A003C897B0824D002715917A
:109030001490AC4211D380480121890403688C420A
:1090400001D39C4209D32078012809D16268AA4241
:1090500003D38A4204D39A4202D2102017B0F0BD43
:1090600076490C390A78012A0CD18A88794B9A42C0
:1090700003D0002806D0012804D08A7F13079B0F55
:1090800006D101E00820E9E7D30701D1910701D516
:109090001120E3E7218A704B0A46203A9A4207D30F
:1090A000012877D1002975D1628A002A72D111E096
:1090B000022801D0032801D1A0296BD3012809D0AF
:1090C0005E4A0C3A5278D20704D0628A002A61D0F4
:1090D000B42A5FD8002806D0012808D0022804D07E
:1090E000032857D117E0002518E0022516E00029D3
:1090F00002D1608A00280CD004256068007800281E
:109100000CD0012809D0022807D0032805D04C48EC
:10911000A4E70125F1E7032500E00127207A0028D4
:1091200006D0012806D0022806D0032867D105E022
:10913000002604E0012602E0022600E00326002DBE
:1091400001D0022D16D1002E14D0E068002803D0E3
:10915000FEF732FF002881D138480C38407880076C
:1091600002D03748401E79E7022D03D1022E46D0A7
:10917000032E44D0182168460170218A4180218A3B
:10918000818085712D480C38007B002803D0012890
:109190006FD104E033E000216846C17102E0012094
:1091A0006946C8716846077221780930012920D0C4
:1091B000062111F0A3FE69460E74207D8207C107C7
:1091C000D20F4007C90F5200C00F11438000014366
:1091D00014A8405C6946C873002810D009A96846E5
:1091E00002F0ABFC002893D1002D0AD0022D08D04C
:1091F00012E061680622491C11F023FEDBE707201C
:109200002CE7002E08D0E068002805D009AA69469E
:10921000FFF7DFFE0028A6D11B2069460870012059
:10922000887009A9684602F088FC00289BD108A82C
:10923000407913E000C0010028000020700C0020DD
:1092400002320000388100002708000007060504EC
:1092500003020100FFFF0000E13F00001B2819D1BD
:109260002B0012F099F80504040707040A000320F4
:1092700001E00FE00220FEF76BFD012D0CD0608AAB
:10928000002809D0002283001146104603F00EF991
:10929000002801D00320E1E60020DFE6F3B5032635
:1092A00087B00D4600290AD0FE4885426FD30120C1
:1092B0008004854203D3FC480068854267D3079841
:1092C000FEF7A1FD040005D02078222804D2082052
:1092D00009B0F0BDF548FBE7A07F8707BF0F002D61
:1092E00005D029463846FEF732FE0600F0D1394651
:1092F0000027EF48012907D0022931D0ED49EE4877
:1093000011F029FF3046E3E7A27D2946012A02D069
:10931000827F920701D51120DAE700291BD10821AD
:109320006A46049711820592418904AAE348FBF733
:10933000FFFA0028CCD16846008A082801D0032013
:10934000C6E7684601880181418841818188818121
:10935000C188C18102A9079802F0E7F90646D1E762
:10936000A17D022916D1807F800613D4002D04D060
:10937000A07F40070CD4002100E00121079802F0F3
:1093800014FA0600BED1A775002DBBD004E01AE088
:109390001126B7E7002D16D02A4621460798FEF77A
:1093A00050FF06461128ADD1A07F4007AAD4204621
:1093B000082229460E3011F044FDA07F0421084305
:1093C000A07700269EE7102082E770B50C46054680
:1093D000FEF719FD010004D022462846FEF711FFD2
:1093E00070BDB24870BD00B50146143195B0192961
:1093F00001D2810707D001461E3104D00A3102D0C4
:10940000072015B000BD312269460A70887009A98D
:10941000684602F092FBF4E701B582B0022069468B
:109420000880A34802AB00896A460021FBF7EAF8EE
:1094300069460988022900D003200EBD1CB5002111
:10944000009102216A46118097490190096888427B
:1094500001D210201CBD964801899848FBF768FA94
:10946000694609880229F5D003201CBDF0B50E46D7
:109470008C4985B0174605468E4207D38A4801229B
:1094800092040068964204D3864202D2102005B0AE
:10949000F0BD1F2F01D90C20F9E7854C8D4226D352
:1094A000954201D3854222D3E08803A9FBF75BF8FC
:1094B0000028ECD1287869464873E08803A9FBF7B7
:1094C00033F80028E3D16946009008780221084368
:1094D00069460870497B090703D00821084369469B
:1094E0000870E0886946FAF7B8FF0028CFD16946CE
:1094F0008F80E088334601AA0021FBF783F8694694
:109500008988B942C3D00320C1E71CB50C460021AD
:1095100000910191228869460A8063490190096897
:10952000002801D0884201D38C4201D210201CBDFA
:10953000002801D0002A09D05D486A46C1885F48EA
:10954000FBF7F6F96946098821801CBD0C201CBD7B
:1095500010B50123FEF75DFC56E4002310B51A4652
:109560001946FEF756FC4FE470B504464D4894B0DA
:10957000844207D301208004844206D34A4800680D
:10958000844202D2102014B070BD2046FEF766FD62
:109590000028F8D146488178112901D00820F2E747
:1095A000817FC90601D51120EDE71D2269460A70A9
:1095B00021780025CA07D20F69468A7022898A80DD
:1095C0006289CA80217801268907CA0F69464A72D2
:1095D000007B002803D0012804D00320D3E70846ED
:1095E0000D7201E008460E7209A902F0A6FA0028E1
:1095F000C9D12078800708D56068002805D009AA5D
:109600006946FFF7E6FC0028BDD11E2168460170BF
:109610008670C57009A902F090FA0028B3D1A0891C
:1096200000F073F90400AED11220FEF7AAFB204629
:10963000A9E7F0B516461C4A0C4605001948204912
:10964000126899B005D085420FD38D4201D395425F
:109650000BD3844209D38C4201D3944205D3864272
:1096600003D38E4204D3964202D2102019B0F0BD2B
:109670000F4FB87FC106890F01D1400701D51120D6
:10968000F4E72046FEF7EAFC0028EFD120788107B6
:10969000C90F294303D0800714D5002D12D007200D
:1096A000E4E7000000C001002800002002300000B4
:1096B000640C002038810000F3090000FFFF000067
:1096C0000000040031460220FEF741FC0028CDD105
:1096D000C9488078112803D0122801D00820C5E796
:1096E0000220002714A9189002F08DFB00280DD04D
:1096F000C2A1C64811F02FFD08E01598807F8107B0
:109700001898890F814201D17F1CFFB214A802F082
:1097100088FB0028F1D0032F01D30420A6E7B64828
:109720008078122803D1FFF7EEF800289ED1207828
:10973000800708D56068002805D009AA6946FFF7A8
:1097400048FC002892D1212168460170218941807E
:1097500061898180207800278007C10F6846817168
:1097600020788007002815DB2878002807D00128FA
:1097700008D0022806D0032804D0A54876E768461A
:10978000C77102E001206946C8710622691C02A85F
:1097900011F057FB9848007B002803D0012804D023
:1097A000032063E76846877302E0012069468873F7
:1097B00031886846018271884182B1888182F1884E
:1097C000C1820783478309A902F0B7F9002886D12F
:1097D000A08900F09AF80400A0D11320FEF7D1FA76
:1097E000204643E730B505468A4895B000680C46E8
:1097F000814202D2102015B030BD2846FEF703FB8F
:10980000002807D00178222902D3807F800603D464
:109810000820F0E78048EEE7132168460170458094
:1098200009A902F08AF90028E5D108AA0A215156AF
:109830007F2901D02170DEE70520DCE710B56E49F5
:10984000012807D0022815D0FF206CA14D3011F05F
:1098500082FC81E60878032804D0FF2067A143300A
:1098600011F079FC0021084602F0C7FE0120FEF746
:109870006FFA71E68878132804D0FF205FA1483082
:1098800011F069FC0021072002F0B7FE1120FEF75D
:1098900078FA61E6F8B504460122022102F044FAA2
:1098A000074601220321204602F03EFA0646012225
:1098B0000521204602F038FA0546012204212046FF
:1098C00002F032FA0446002F04D1AF204BA18000F1
:1098D00011F041FC002E04D14C4848A11A3811F077
:1098E0003AFC002D04D1494844A1193811F033FC49
:1098F000002C04D1454841A1183811F02CFC22213C
:109900003846FEF7B7FA3846F8BD10B5002809D03A
:10991000830000221146072002F0C8FD072801D06D
:10992000032019E6002017E610B504460068002859
:109930000CD03A49884207D301218904884205D3D3
:1099400034490968884201D2102005E601F060F828
:10995000A088294CA083A07E01280DD100210920D8
:1099600002F025FE002800D00120A17C89090129F0
:1099700004D00321FEF792FC0020EDE50221F9E777
:10998000F7B500260C4605460B271AE02968B000FB
:1099900009580978002903D0012901D00720FEBD0C
:1099A000A170296806220958E01C491C11F049FAE7
:1099B00027702046029902F0C0F80028EFD1761CEB
:1099C000F6B22879B042E1D800263A270FE0A8681D
:1099D000B10041581022A01C11F033FA2770204624
:1099E000029902F0AAF80028D9D1761CF6B2287B99
:1099F000B042ECD80020FEBD640C00207372635CA2
:109A00006761705F636F72652E630000D7020000AC
:109A100002320000280000200230000000C00100D7
:109A200030B5FE4B9A4207D301239B049A4205D3DB
:109A3000FB4B1B689A4201D2102030BD1578EB0613
:109A40005B0F042B07D85478072C04D39378102B82
:109A500001D8A34201D2072030BDD3785B0702D4DE
:109A600013795B0701D5062030BDC37FAC075B08C7
:109A70005B00E40F2343C3770878EF231840137883
:109A80009B06DB0F1B0118430870F1231840137865
:109A9000DB065B0F5B0018430870507808730020EA
:109AA00030BD30B500240C70C378DB07DB0F0B70C2
:109AB000C578AD07ED0F6D002B430B70C5786D07B2
:109AC000ED0FAD002B430B7014700179C907C90F5E
:109AD000117003799B07DB0F5B001943117000794C
:109AE0004007C00F80000143117030BD70B51446AF
:109AF0000D460646F7F736FF002809D0A22101706F
:109B0000142221460830F7F75FFBF7F70CFF70BD12
:109B1000132229463046FEF774FB70BD70B514461B
:109B20000E460546F7F71EFF002809D022210170D6
:109B300045802178017261784172F7F7F4FE70BDBB
:109B4000132231462846FEF75CFB70BD10B5B54CBC
:109B5000207C00280DD12046B34A21461038FEF75C
:109B6000A7F8002803D0B1A1F12011F0F4FA0120E8
:109B7000207410BDFFB581B00A9D06461C461746ED
:109B80001421284611F0BCF90B9800210160F80758
:109B90000ED0A34920680968884239D31230286062
:109BA0002068143068602068A8600B982168016004
:109BB000B80726D56068002803D09949096888420B
:109BC00026D3029900290AD0FC3600280ED031464F
:109BD0001030FEF7DBFA00281BD1606810E0002887
:109BE00016D0E86080366068B0670AE0FFF7CFF80B
:109BF00001460722304611F024F9FFF7A7FF8948F4
:109C0000E860780708D58649A0680968884202D2CA
:109C1000102005B0F0BD28610020FAE770B50546B8
:109C200011200C460870002161702121495D002936
:109C300008D003290ED0042910D0FF207BA1523078
:109C400011F089FA20780009012802D9E87FC008BC
:109C5000607070BD0007000F203002E00007000FA9
:109C600030302070EEE770B594B015460C462C22CB
:109C70006946189E0A704880002B17D008221946A2
:109C800001A811F0DEF868468581102231460E30B9
:109C900011F0D7F809A9684601F04FFF002803D159
:109CA000A17F10221143A17714B070BD0020019054
:109CB0000290E8E7F0B50646008A97B080B20D46FC
:109CC0000190FEF7A0F804465648317848385B4FBB
:109CD00009900B0011F060FB0EFEFD43084A7283F1
:109CE000B8D9FCFBFAF9F8FEA07F8007800F0128A5
:109CF00007D000210022019802F016F8050007D1D4
:109D000001E00121F6E7FF2048A1943011F023FA89
:109D1000387CC00904D049484038406DA86112E041
:109D20002B20694608720BA902A801F006FF002843
:109D300004D0FF203DA19F3011F00DFA40490C984E
:109D400011F0E8F8A9617068A862B068E86220784C
:109D5000252804D0FF2035A1A53011F0FCF93246AA
:109D600021460198FFF7C2FE17B0F0BDA07F800723
:109D7000800F012807D000210022019801F0D4FFB4
:109D8000060007D101E00121F6E7FF2027A1AF304F
:109D900011F0E1F92078252804D03078012108431A
:109DA0003070E1E702202870B068A860B068002831
:109DB00002D000202871D7E70120FBE72B2069465D
:109DC0000870184968464C3901F0B7FE002804D0E5
:109DD000FF2016A1CE3011F0BEF903201BE02A208F
:109DE0006946087000A810220230716811F029F845
:109DF00004A810220230B16811F023F8094968461E
:109E00004C3901F09AFE002804D0FF2007A1DF3072
:109E100011F0A1F904202870099813E000C0010096
:109E200028000020300D0020FFFF00007372635CEB
:109E30006761705F7365632E63000000500E002041
:109E400040420F0068608FE7B068002804D1FF200F
:109E5000F649EB3011F07FF9E07F400704D5FF2091
:109E6000F249EC3011F077F9B06806220A38009018
:109E700033790421019801F058FA002891D0FF208D
:109E8000EA49F13011F067F96EE7002C04D1FF20A8
:109E9000E649F93011F05FF92046223010220546DC
:109EA000716810F0CEFF28212046FDF7E3FFA07F68
:109EB0008007800F022814D100231A4621460095FE
:109EC0000198FFF7D0FE06E055E1B6E0ACE089E08E
:109ED0002CE065E069E111280BD029212046FDF72F
:109EE000C9FFE07F317A4007400FC9000843E0779F
:109EF0003AE7A07F000703D5CC49CD4811F02BF9F4
:109F0000A07F08210843A0770020608620463430D7
:109F100010F0F4FFE07FFD220146C9071040890FD1
:109F20000843E077307A203420701DE7A07F800757
:109F3000800F012807D000210022019801F0F4FED3
:109F4000040007D101E00121F6E7B948B7491D3007
:109F500011F001F92B2069460872B64902A801F0F8
:109F6000ECFD002804D0B248B049223011F0F3F8DB
:109F7000B0488188204621300176090A41760E21B9
:109F800029702146FC316960017E2974407E687425
:109F9000A8482C30A860103030346C61E860E3E6EB
:109FA000002C04D1A248A149363011F0D4F8207811
:109FB00021289DD93079012802D0022808D103E058
:109FC000E07F04210843E077387C0121084338749E
:109FD000324621460198FFF789FD23212046FDF7EF
:109FE00049FFC1E601220421019801F07DFC00280F
:109FF0009BD0A07F8007800F012807D0002100227E
:10A00000019801F091FE040007D101E00121F6E77B
:10A0100087488649543011F09EF80F202870172089
:10A0200028716E34AC609FE60421019801F0ABFC0E
:10A030000028B4D11020287096E6A07F8007800FFA
:10A04000012807D000210022019801F06DFE0500D3
:10A0500007D101E00121F6E7754874496D3011F030
:10A060007AF82E462036307E41064DD5A17F8F07E7
:10A07000BF0FC00713D02A468032516F00290ED07F
:10A08000087CF37DC007C00F5B0018430874516F54
:10A09000E27F40084000D207D20F10430874307EA0
:10A0A000000713D528468030026F002A0ED0117C9D
:10A0B000F37DC907C90F5B0019431174E27F49089A
:10A0C0004900D207006FD20F11430174307E800720
:10A0D0000BD5F8204259002A07D0012F05D0294678
:10A0E000307C31311032FEF77BF8307EC0060BD564
:10A0F000F8204259002A07D0012F05D12946307C8B
:10A1000031311032FEF76CF8052368460370357E56
:10A110004570484822226038019902704278D2087E
:10A12000D200D21C4270418003724572F7F782FD63
:10A130002078252809D021280BD0AD203B4980006C
:10A1400011F009F82078222803D922212046FDF7B2
:10A1500091FEA07F8007800F01280AD0002101987E
:10A1600001F009FE002800D1FEE5AF202F49800054
:10A1700088E60121F3E774682E4D207860350928C0
:10A1800002D00A28F0D10BE0E168002902D028466D
:10A19000F8F7D7FE2169002902D02846F8F7D1FE4A
:10A1A00021462846F8F7CDFEDEE521481F49DC3080
:10A1B00068E6204810B5072228216030F8F7A8FE8D
:10A1C0001D480024017C4906490E0174403844654D
:10A1D000FDF7FBFC17493C3108461038F7F779FCCE
:10A1E00014484C30047410BD70B50D46FDF70BFEDD
:10A1F000040004D103200D49000210F0ACFFFF2140
:10A200000531284610F07CFEA07F8007800F0128D2
:10A2100016D0022128468830FDF7D8FC002803D04C
:10A220000249064810F097FF70BD00002C9E000008
:10A2300005020000E40C0020500E00200503000081
:10A240000121E7E70A46014610B510468830FDF7C0
:10A25000D7FC10BDF0B505464068082601789BB0D4
:10A2600008290DD00B2903D00C293FD10121817180
:10A27000686887883846FDF7C6FD040041D13BE099
:10A2800047883846FDF7BFFD040003D1FD49FE486D
:10A2900010F061FF2078212828D0282828D168686C
:10A2A00002210C3000F0BEFF002821D06868082190
:10A2B000001D00F0B7FF00281AD02D21684601705C
:10A2C000478021461022223101A810F0BAFD0FA9C3
:10A2D000684601F032FC002804D0CB20E949800018
:10A2E00010F039FF29212046FDF7C4FD1BB0F0BD59
:10A2F000687830436870F9E7E348E2492D3010F0A0
:10A300002AFFA07F8107890F022902D1EF2108408F
:10A31000A0772078212810D068688179002902D0A0
:10A320008078002818D0A07F8007800F022864D092
:10A330000720D449C00110F00EFFA07F8007800FD6
:10A340000228D3D1FDF7ECFF0028CFD0CE48CD496D
:10A35000733010F000FFC9E7687830436870E07F21
:10A36000C00701D0042100E00321212001552078FD
:10A37000292818D02428E0D13946062002F03DF9DA
:10A3800022212046FDF776FDA07F8007800F01285F
:10A3900031D00021384601F0EEFC0028CDD0BA487B
:10A3A000B8495830C7E7A07F8007800F012807D041
:10A3B00000210022384601F0B7FC050007D101E07A
:10A3C0000121F6E71B20AF49400110F0C4FE252112
:10A3D0002046FDF74FFD0D2008A90871284609A960
:10A3E0008830FDF7FFFB0228A7D00028A5D0A6489B
:10A3F000A4494D309FE70121CCE76878304368706D
:10A400009BE7F7B58AB00A98FDF7FDFC050056D02A
:10A410002878222853D3232851D0E87F40074ED4F0
:10A42000A87F8007800F01280ED0002201280DD0C0
:10A4300000210A9801F078FC064694480290F8F74B
:10A4400077FD040009D103E00122EFE70121F0E7E5
:10A4500075208C49C00010F07EFE002E0FD088368B
:10A4600066610298F8F764FD07460298F8F760FD08
:10A4700006462878222807D0242805D008E00020A6
:10A4800007460646606103E025212846FDF7F2FCF9
:10A49000092020700A9820620C9820710B98E760C0
:10A4A0002661A06004A92046FDF7C0FB022806D063
:10A4B000002804D074487349AF3010F04CFE0DB042
:10A4C000F0BD30B587B00446FDF79DFC0546807FA2
:10A4D0008007800F01280BD000210022204601F0C8
:10A4E00023FC0446287822281ED9002C07D101E03D
:10A4F0000121F2E764486349BB3010F02CFE0F21C4
:10A50000684601701721017120466E30029069463D
:10A510001A30FDF767FB022806D0002804D05A48FD
:10A520005849C03010F017FE07B030BD30B587B0C5
:10A530000446FDF768FC0546807F8007800F0128F0
:10A540000BD000210022204601F0EEFB04462878C3
:10A550002228E9D9002C07D101E00121F2E74A487D
:10A560004849CD3010F0F7FD1020694608702046AC
:10A570008830FDF737FB0028D6D043484149D0301A
:10A5800010F0E9FDD0E7F7B505460078002700098F
:10A5900082B00C463E4602287CD0072802D00A280A
:10A5A00049D149E068680178082906D00B292FD0E5
:10A5B0000C292DD03349364865E114271A26002C82
:10A5C00069D04088A080FDF71EFC0090002804D1CF
:10A5D0002F482C49243810F0BEFD00980099C07D0A
:10A5E000A21D1831FDF7FCFD686808228089E08112
:10A5F000696820461030091D10F023FC207E0121DF
:10A600000843F9210840207600984021807F50E0DF
:10A6100018270826002CD3D08088A080FDF7F3FBF4
:10A62000050004D11A481749401F10F094FDA11DE0
:10A630002846FFF7F3FA28E1002C01D0288BA080F0
:10A64000287A01287ED0022805D0032838D0104867
:10A650000C49853017E11C270726002CB0D0A088B4
:10A66000FDF7D1FB0090002804D1094805491330BB
:10A6700010F071FD287B8007800F0128A0791CD085
:10A68000400809E02C9E00001A030000440D002041
:10A6900027040000E9E0E3E04000A071FD2108404C
:10A6A000297B4907C90F49000843A0710098802100
:10A6B000807F084300998877E7E001210843ECE7B1
:10A6C00013270B26002CA6D0A088FDF79CFB00903A
:10A6D000807F8007800F012807D00021A0880022FA
:10A6E00001F022FB050006D101E00121F6E7FB495C
:10A6F000FB4810F030FD0098807F8007800F012814
:10A7000050D0E86A81788907890F0129A1794BD057
:10A7100049084900A1718278FD255207D20F2940CE
:10A7200052001143A171E322114002785207D20E68
:10A730001143A171DF2211404278D207920E1143DA
:10A74000A17100E033E00021E171C178217242790A
:10A750000179607AD30740084000DB0F1843930764
:10A76000DB0F28405B0018435207FB23D20F184031
:10A77000920010436072A07ACA0740084000D20FCE
:10A7800010438A07D20F2840520049071043C90FCF
:10A79000184089000843A07200980078232874D9D3
:10A7A0002621C4E0A86AADE701221143B2E7297B64
:10A7B000CC48022911D017270C26002C50D0012993
:10A7C00012D003291FD0042920D005291ED09320A0
:10A7D000C249C00010F0BFFC23E019270726002C57
:10A7E00053D00121A17105E00121A171E17989080E
:10A7F0008900E171017CCA094906D201890E49002C
:10A800000A4302740DE00220A07106E0687B000795
:10A81000000F8030A07105291DD0E07980088000EC
:10A82000E071A088FDF7EFFA0546007821282CD0CA
:10A83000232804D0AA48A949573010F08CFCA87FDF
:10A840008007800F01280ED00021A08801F093FA24
:10A85000222128466CE0E07980088000401CDFE778
:10A860000498068017E00121EFE7002C01D06888EA
:10A87000A080287A032832D004280FD005285AD087
:10A8800097489649B03010F066FC0498002C06807A
:10A8900001D027806680002005B0F0BD15270C266A
:10A8A000002CDDD0A088FDF7AEFA807F8007800FF6
:10A8B000012807D00021A088002201F035FA050008
:10A8C00007D101E00121F6E785488449763010F090
:10A8D00042FC0622A11DA86907F036FAD5E7162723
:10A8E0000726002CBCD0A088FDF78DFA0090807F51
:10A8F0008007800F012807D00021A088002201F0E6
:10A9000013FA050007D101E00121F6E77448734905
:10A91000843010F020FC2878C00601D5022000E029
:10A920000120A071009800782328AED92721009833
:10A93000FDF7A0FAA9E717270C26002C90D0A088D5
:10A94000FDF761FA00906D7A002804D164486349EC
:10A95000973010F000FC0621A01D10F0CFFA002067
:10A96000A071207A032108432072FB21084000993E
:10A97000C97FC907490F08432072680685D5E07969
:10A9800004210843E071A07AE90740084000C90F9C
:10A990000843E17A2A0749084900D20F1143FD22F2
:10A9A000AB07DB0F10405B001843A072E806C00F36
:10A9B000114040000143E17267E710B50446807919
:10A9C00090B08009012804D045484449C93010F0AE
:10A9D000C2FBFFF7BBF801206946087042480890A7
:10A9E00042480190201D0290601C0B900AA9684605
:10A9F000FDF71CF9002804D039483849D43010F04C
:10AA0000AAFB0322601C0B9910F01BFA10B010BDBA
:10AA100010B5364C002805D001461022204610F013
:10AA200010FA0120207410BD10B50446FFF78EF80F
:10AA300010222E49204610F004FA10BD70B50025F2
:10AA4000284C00281CD02A49884207D301218904B8
:10AA5000884205D327490968884201D210250DE0B4
:10AA6000062107F05BF9411C07D01E4940394865B3
:10AA7000207C80210843207400E00725284670BD13
:10AA8000207C4006400EF6E7F3B5002089B00D4665
:10AA9000029000290AD0164885421CD30120800468
:10AAA000854203D313480068854214D30998FDF703
:10AAB000AAF9060003D03078222826D102E00E48F9
:10AAC0000BB0F0BD002D19D1B07FC10903D08007B4
:10AAD000800F022812D01020F2E700002C9E000008
:10AAE0004D040000500E0020FFFF0000300D00203C
:10AAF00000C001002800002002300000B07FC10625
:10AB000001D4010703D5002D01D00820D8E7FE4964
:10AB1000097CC90717D1F17F490701D50D20CFE77F
:10AB20008007800F01280CD000210122099801F034
:10AB3000FBF8070007D0B07F8007800F022804D001
:10AB40000DE00121F1E71120BAE7002D07D02A46D8
:10AB500039463046FEF764FF02900028B0D1EB483A
:10AB6000F8F7E6F9040003D1E949EA4810F0F3FAEE
:10AB70000A2020700998206238468830A060B07F93
:10AB8000FB218007800F012829D0002D3DD0022015
:10AB90002071381DE06038780007400F2074387845
:10ABA000C006C00F6074A07C2A788008D20780009D
:10ABB000D20F1043A0740840F17F01AAC907490FC2
:10ABC0000843A074A878E07469462846FEF769FF38
:10ABD00068460079207568460078607519E00120A4
:10ABE0002071207B2A788008D2078000D20F104382
:10ABF0002073084029788907C90F8900084320730A
:10AC000024213046FDF736F90BE0032020710520A2
:10AC1000207325213046FDF72DF9B07F4006400E08
:10AC2000B07703A92046FDF701F8022806D00028D6
:10AC300004D0B848B6492B3010F08DFA02983FE79F
:10AC4000FFB5B54A0E4607CA97B002AB07C3002747
:10AC500001970C971798FDF7D6F8050005D02878CE
:10AC6000262804D008201BB0F0BDAC48FBE7A87F25
:10AC70008007800F012807D000210022179801F0DB
:10AC800053F8040007D101E00121F6E7A148A049EB
:10AC9000623010F060FAA87F8007800F16900128BC
:10ACA00014D0022824D09B4899497B3010F053FAE5
:10ACB00001210022852E31D01EDC002E26D0812ECF
:10ACC00026D0822E26D0832E1ED125E0002EEFD155
:10ACD00021462846199AFEF7A3FE0028C3D11998E9
:10ACE0008078019019980078C007C00F0C90DFE7BA
:10ACF0001998002808D1DBE7862E11D0882E11D0B4
:10AD0000892E11D08A2E11D00720ACE710460EE014
:10AD100008460CE002200AE0032008E0052006E0D7
:10AD2000062004E0082002E0092000E00A200022BA
:10AD3000227101216A461176211D0791002801D058
:10AD400020710BE1169801280CD0A66AE06A022255
:10AD5000012111900020A0602846173002291AD046
:10AD6000012119E0E66AA06A119003203070207872
:10AD7000FB23C006C00F7070B07801221840019B01
:10AD8000F37080080C9B800018430221B0700020F3
:10AD900070713071DEE70021890009190861681CB3
:10ADA000022A01D0012100E000218900091908616F
:10ADB000B0788007800F01285ED1119880788007D5
:10ADC000800F012858D1119800790190119840798D
:10ADD0000090169801281DD0317908A80174717966
:10ADE000017508A8027C01980099024008A8007D1E
:10ADF0000840149010433FD049491A98884207D31D
:10AE000001218904884215D346490968884211D234
:10AE1000102028E70CAA0DA91998FEF742FE08A8F1
:10AE2000007C01990840307108A8007D0099084015
:10AE30007071D6E720463C3021460090F0311698DC
:10AE40000191022834D000211A9B20460C33FEF7D2
:10AE500091FE0028DDD12046503021460090F4318B
:10AE600016980191012825D0002120461A9B149A9A
:10AE7000FEF780FE0028CCD111988078400702D4DC
:10AE8000E87FC0072BD0169902A8012914D0119988
:10AE900009784900405A21780907490F4900C840FC
:10AEA0008707BF0F2AD0012F14D0022F0FD113E034
:10AEB0000121C9E70121D8E721780907490F490095
:10AEC000405A119909784900C8408707BF0F032FDE
:10AED00004D004E0022711E001270FE002271698B2
:10AEE00001280BD1B078FB210840E97FC907490F41
:10AEF0000843B07020780007400F30702078400879
:10AF00004000207011990FE0500E0020440D0020E9
:10AF10002C9E0000A90500001CB4010002300000B6
:10AF200000C001002800002049781022C907C90E7E
:10AF3000D243114308402070C00622D4022F20D0F3
:10AF4000012F20D00020A061E061206260622046D5
:10AF50001830A060E87F40084000E877204606A946
:10AF60008830FCF73FFE002805D0022803D0B44902
:10AF7000B44810F0F0F825212846FCF77BFF0020AC
:10AF800071E6032008E020460D211B300FF0B6FFCC
:10AF900020461830A060042069460875E87F01212A
:10AFA0000843E87705AA29461798FEF7B7FDD5E7C5
:10AFB000F0B587B015460F0004460DD0A248854273
:10AFC00007D301208004854206D3A048006885424B
:10AFD00002D2102007B0F0BD2046FCF714FF060097
:10AFE00004D03078272803D00820F3E79848F1E709
:10AFF000B07F8007800F012807D000210022204663
:10B0000000F092FE040007D101E00121F6E78D482F
:10B010008B491F3010F09FF80020002F05D0022F21
:10B0200008D0012F11D00720D4E701216A46117101
:10B03000A06018E0234618336946A3600871102207
:10B04000294618460FF0FDFE0DE021461831A1609B
:10B0500069460871A061E0612062606206212846AD
:10B0600006F05CFEA0612078C10714D040084000C3
:10B070002070022069460870204618300290703017
:10B08000FCF7B0FD022806D0002804D06D486C49BA
:10B09000423010F060F825213046FCF7EBFE00202E
:10B0A00098E7F8B515460E460746FCF7ACFE0400D7
:10B0B00004D02078222803D00820F8BD6448F8BDC9
:10B0C000A07F8007800F022802D06148C01CF8BD15
:10B0D0005D4886420ED3012189045C4A8E4202D328
:10B0E00013689E4206D3854204D38D4204D3106870
:10B0F000854201D21020F8BD00953288B31C21464C
:10B100003846FEF7B0FD112816D00028F3D1E17FB4
:10B110002A7C4908D2074900D20F1143E1772A7CE3
:10B1200049079206490FD20ED2001143E177A17F61
:10B130004906490EA177F8BDA17F0907FBD4204637
:10B140000822B11C34300FF07CFE30886086204627
:10B150001022294622300FF074FEE07FFD210840C6
:10B16000297CC907890F0843E077287C4108202003
:10B170000155A07F08210843A0770020D7E770B5CC
:10B1800094B00D460646002B02D0072014B070BDC7
:10B19000FCF739FE040007D02078222802D3A07FD4
:10B1A000400603D40820F1E72948EFE7002D19D025
:10B1B0002D216846017046801022294601A80FF013
:10B1C00040FEE07F297C4008C9074000C90F0843C2
:10B1D000E077297C40078906400FC90EC900084363
:10B1E000E07703E02E2168460170468009A9684691
:10B1F00000F0A3FCA17FBF221140A177C6E710B5E4
:10B200000C46FCF700FE002805D0104909688C4266
:10B2100003D2102010BD0E4810BD2146FEF7FEFCE3
:10B22000002010BD05E00278401C002A01D000205B
:10B2300070470A46491E89B2002AF4D1012070479E
:10B240002C9E0000ED06000000C001002800002038
:10B250000230000030B50346072903D00620DA7813
:10B260001C7916E00320FAE707290BD05500ED18EA
:10B270006D79072D01D0401EC0B2521CD2B2092AEE
:10B2800007D105E05500ED186D79072DF3D0F4E7EF
:10B2900000222546641EE4B2002DE5D130BDFFB585
:10B2A00081B00C461646114620460A9F0B9DFFF7BB
:10B2B000D1FF00280AD02079092803D3FEA1A020BD
:10B2C0000FF049FFA078C00907D019E0072E02D07F
:10B2D000112005B0F0BDFD48FBE701982880381D1E
:10B2E0006880002068712871EF80049828812846C2
:10B2F00000F04BFC002803D1EFA1AD200FF02BFF95
:10B30000E07821794018491CC0B22171092801D385
:10B310000938C0B24000001946718179F12249080C
:10B320004900114081710020D3E7FFB583B0164674
:10B330000F461C46002203210C9D039800F0F4FCEC
:10B34000010008D033463A46019500940398FFF770
:10B35000A6FF07B0F0BDDD48801EFAE7F0B5054650
:10B3600016460F4650888DB00022032100F0DCFC09
:10B37000040003D1D0A1DF200FF0EDFE00206946CC
:10B380000871A078400603D1CBA1E3200FF0E3FEC3
:10B39000042F5ED32A78D007C017401C06D16178ED
:10B3A0006B78994255D12178090752D00121142A8E
:10B3B00046DA012A42D0122A02D0132A40D128E0CC
:10B3C0000C2F3DD1A2785206520E012A38D0207897
:10B3D00000090001401C20706878607068460171A7
:10B3E00068792A790102114368460181E879AA79CE
:10B3F0000102114368464181687A2A7A01021143A9
:10B4000068468181E87AAA7A010211436846C181BF
:10B410001AE0062F14D120780009000120707188ED
:10B42000012001F0EAF8022168460171C91E01817C
:10B4300068792A790102114368461FE0062F0AD075
:10B440006A461279002A1BD07088324601A9FDF79E
:10B4500020FB0DB0F0BD207800090001207071883C
:10B46000012001F0CAF802216846017168792A7941
:10B4700001021143684601810021C9434181E3E78C
:10B480000028E6D07488684681766978C176022102
:10B4900081830021C18304A8052200900623114660
:10B4A0002046FFF742FF0028D3D089A1D6200FF015
:10B4B00052FECEE7F7B58CB015460C990D98FAF709
:10B4C00041F9C0B2082850D10020694688856888B3
:10B4D0000022032100F028FC040004D1FF2076A103
:10B4E00063300FF038FE01230021E07822790BE071
:10B4F0004600361976799E4201D1491CC9B2401CDA
:10B50000C0B2092800D100201646521ED2B2002E29
:10B51000EED1002902D117206946888504AB023399
:10B520000BAA00950C990D98F8F7B6FB0006000ED3
:10B5300007D002281BD0032817D0FF205EA1893036
:10B5400011E06846808D00280FD002A9019100907B
:10B550006888042301222146FFF7A1FE002804D0B9
:10B56000FF2055A176300FF0F6FD0FB0F0BD6878E2
:10B57000102108436870F8E700205A49024643004A
:10B58000401CCA520828FAD3704700218170017804
:10B5900009090901017000214170C17001717047F2
:10B5A00070B50D460022032100F0BEFB040004D15B
:10B5B000FF2041A1CF300FF0CEFDA0786906C00971
:10B5C000C001490E0843A07070BD704710B5014618
:10B5D000012001F012F810BD3EB58DB2002203210A
:10B5E000284600F0A1FB040004D1FF2032A1E43082
:10B5F0000FF0B1FD2078694600090001207002209B
:10B60000087039488880C88000222846FDF741FA32
:10B610003EBDF7B505460078002700090C463E46BA
:10B62000012804D0FF2024A1F3300FF094FD287AE4
:10B6300003280CD0412020A1C0000FF08CFD0298FF
:10B64000002C068001D0278066800020FEBDEA899C
:10B65000702710460A3086B2002C0AD06888A08075
:10B66000A8892081E28020460A3029690FF0E9FB91
:10B67000E5E702980680E8E7F8B543680246D9791D
:10B680009C79090221435C7A1E7A25025C88981D08
:10B690003543241FA14238D11B79022B35D1042D0B
:10B6A00034D0052D3DD0062D34D0402D2DD3061D90
:10B6B0000F461446284619E07372635C6C3263616E
:10B6C000705F636F72652E6300000000043000003D
:10B6D0007372635C6C326361705F636F72652E635B
:10B6E00000000000680E0020FFFF000000F0E3F9FA
:10B6F00008280AD01120207003202072A581E7813C
:10B7000026616078082108436070F8BD001DFFF7CE
:10B71000D1FEF8BD031D50880A461946FEF771FE9A
:10B72000F8BD001DFFF71AFEF8BD70B50D468CB0D0
:10B7300006460022032100F0F7FA040031D02078F9
:10B740000007000F01282ED0122069468874607807
:10B750000523801CC874082088822888C8826888CD
:10B760000883A8884883E888888302A90C2001916F
:10B7700000901A4621463046FFF791FD00280ED171
:10B78000F02300223146012000F090FE20780009CD
:10B790000001401C20706078801C607000200CB09C
:10B7A00070BDCB48FBE71120F9E770B50D468CB0B2
:10B7B00006460022032100F0B7FA040006D02078E4
:10B7C0000007000F012803D00820E8E7C048E6E79B
:10B7D0001321684681746178C17402218182C58217
:10B7E00002A906200523019100901A462146304601
:10B7F000FFF755FD0028D2D1207800090001207004
:10B800000020CCE7F3B581B00D460022032101985A
:10B8100000F08AFA00260446002803D1AD49AE485C
:10B820000FF099FC2079A8423BD2AB48A949401CB3
:10B830000FF091FC35E0E07841000F19401C797958
:10B84000C0B20091E070092801D10020E070207999
:10B85000401E2071B879C00708D0009801990428CB
:10B8600015D09C49822018310FF075FCB87900077B
:10B87000410F08D0400F019904280CD095498F2022
:10B8800018310FF068FC009807280AD107E0084635
:10B89000FEF74CFEEAE70846FEF713FEF3E7761CD8
:10B8A000F6B228466D1EEDB20028C4D13046FEBD6A
:10B8B00010B50022032100F037FA040004D1B520AE
:10B8C000844980000FF047FCE07821794018C0B22D
:10B8D000E070092801D30938E07000202071A078B9
:10B8E00080210843A07010BDF8B517460D46002210
:10B8F000032100F019FA040005D0002D0CD0002F10
:10B9000007D0062006E0072D01D00620F8BD032051
:10B91000F8BD0820A84204D86F486E4942300FF0A5
:10B920001AFC29462046FFF795FC0646002F28D032
:10B93000002E26D1E07821791CE0420012195379BB
:10B94000072B03D093791B075B0F04D0401CC0B2B8
:10B9500009280CD00CE0400000198079F123184030
:10B960006B071B0F1843907100290AD104E00020D7
:10B97000491EC9B20029E0D1574856495A300FF044
:10B98000EAFB3046F8BDF8B50D460022032100F071
:10B99000CBF9040004D150484E4968300FF0DBFB6E
:10B9A000681E052804D34C484A4969300FF0D3FB80
:10B9B0000921E2782079002310E0560036197779C2
:10B9C000AF4206D1B17949084900B1715B1CDBB2C5
:10B9D0001146521CD2B2092A00D100220646401E4E
:10B9E000C0B2002EE9D1092905D248000019817999
:10B9F0000122114381711846F8BD10B50446402854
:10BA000001D2072010BD00F056F8082802D03120DE
:10BA1000000210BD0021314802E0491C082903D270
:10BA20004A00825A002AF8D1082903D0490044521A
:10BA3000002010BD042010BD10B5402801D2072001
:10BA400010BD00F038F8082805D00021234A400036
:10BA50001152084610BD052010BDF0B58BB016463A
:10BA60000C00074607D0002E05D06188402904D27B
:10BA700007200BB0F0BD1020FBE72088002801D084
:10BA8000172801D90C20F4E7084600F014F808281C
:10BA90000FD0258803A82A46314602300FF0D1F98D
:10BAA00001A8009062882B4607213846FFF73DFC2D
:10BAB000DFE70520DDE701460020084A02E0401CE0
:10BAC000082803D24300D35A8B42F8D170470000B4
:10BAD00002300000B8B60000AD020000680E002081
:10BAE00000B51E2827D00FDC0C2820D008DC03006E
:10BAF0000FF052FC0913211521211B1B17192100DE
:10BB0000122818D1072000BD302814DD3A38030070
:10BB10000FF042FC030F11091100002000BD214865
:10BB200000BD042000BD0D2000BD0F2000BD082079
:10BB300000BD112000BD032000BD10B50C4604F06F
:10BB4000A0F800281ED0204602F013FE002816D0D0
:10BB500022780E2A0DD00F2A0BD0022A09D0032AF0
:10BB600007D0102A09D010A17E200FF0F4FA00208F
:10BB700010BDA078FFF7B4FF10BD112010BD0AA1C1
:10BB80008420F2E708A18A20EFE710B502F0A2FCBA
:10BB900010BD10B502F0EDFD10BD10B502F01AFD9C
:10BBA00010BD0000023000007372635C686F737434
:10BBB0005F6863692E630000F8B5054606ACC1CC2A
:10BBC000E44C21706270A370E070681C4208277119
:10BBD0005200E14B66710021880000198446026220
:10BBE000605C40008218002D0AD0002005E0664607
:10BBF0004700366A401CF353C0B2665C8642F6D8F2
:10BC0000491CC9B20629E7D30026D21C9708B00008
:10BC1000BF0000198760304600F02AF9A15D761C4C
:10BC20004843C219F6B2062EEFD3501B80B2F8BDBE
:10BC3000F0B504468C46C7490020A500FF23024604
:10BC40006D18C54E0C5D0BE02F6A5100795AB14258
:10BC500004D1401CC0B2FF2B00D11346521CD2B2FB
:10BC60009442F1D8002801D061460B70F0BD70B548
:10BC7000B84C0023655CA678B54200D10346890024
:10BC800009199D420AD90C6A5E00A45B844202D164
:10BC90001370012070BD5B1C9BB2F2E7002070BDE9
:10BCA000FFB583B00C9C1F460D46060009D0002D41
:10BCB00007D0F01C80088000B04204D0102007B0EC
:10BCC000F0BD0E20FBE70598A04201D8A74201D99C
:10BCD0000720F4E701460094019423463A460020E9
:10BCE0000294FFF769FF2988814207D0814201D27F
:10BCF000042100E0092128800846E0E7009401942F
:10BD000023463A46029430460599FFF755FF2880AE
:10BD10000020D4E710B5044600F0B4F8002801D0A4
:10BD2000E0B210BDFF2010BDF8B505468A481646A2
:10BD30000C46854201D0062C01D30020F8BD002717
:10BD400069460F7028466A462146FFF790FF002893
:10BD50000DD068460178204600F09CF8002EEDD00A
:10BD60000028EBD12146284600F0A0F8F8BD38465F
:10BD7000002EF7D1F8BDF8B505460C460020764EEA
:10BD80006946764F0870B5423BD0062C01D3072098
:10BD9000F8BD0A4621462846FFF769FF002830D043
:10BDA00068460178204600F075F823000FF0F4FA99
:10BDB000060404090C11161B01462846FEF742FA38
:10BDC00015E0FDF735F812E001462846FFF7FDFBC8
:10BDD0000DE001462846F7F7E4FE08E00146284654
:10BDE000F9F73AFB03E05EA17C200FF0B4F9594A61
:10BDF0006846A10000788918096A40000E520020A8
:10BE0000F8BD3846F8BD5A4A1268914201D2102056
:10BE10007047062801D30720704708720020487237
:10BE20007047F8B5044652480068844201D2102099
:10BE3000F8BD207A474A83009B18617A464D125C10
:10BE400011E01E6A4F00F65BAE420AD04A1C6272D5
:10BE50001A6A4B00D25A228000F01CF86060002061
:10BE6000F8BD491CC9B28A42EBD861720520F8BD01
:10BE70000EB5404B40000ECB0091029301926946F3
:10BE8000085A0EBD33498978814201D90120704793
:10BE90000020704770B50C460546FFF7E9FF2D4AB4
:10BEA000A900891889686043401870BDF8B5044638
:10BEB0000E4600206946087005462046FFF7E2FF5F
:10BEC000002803D126A1F3200FF045F92148214B8A
:10BED000815D8278B000C718914209D1E0B269460D
:10BEE0000870396A4000085A1B49884206D02EE083
:10BEF00069463046FFF79CFE002828D06846007847
:10BF0000396A40000C52684601783046FFF7C2FF9C
:10BF1000054633000FF040FA060404090C0F14170D
:10BF200029462046FEF760F911E0FCF75EFF0EE0BF
:10BF3000FFF72BFB0BE029462046F7F7F9FD06E05B
:10BF4000F9F783FA03E006A162200FF004F928460E
:10BF5000F8BD0000780E0020FFFF00000230000056
:10BF60007372635C686F73745F636D2E63000000AF
:10BF70002800002028B401008107C90E002808DA33
:10BF80000007000F08388008C24A80008018C06986
:10BF900004E08008C04A800080180068C84000069D
:10BFA000800F7047BD4948788978884201D3401A8C
:10BFB00002E02122511A0818C0B27047B749233154
:10BFC00048788978884201D3401A02E02122511A28
:10BFD0000818C0B27047B14946314878897888421C
:10BFE00001D3401A02E02122511A0818C0B270474A
:10BFF000A94910B50C310868FF22120290430122B2
:10C00000D20310430860A54900202331487088708E
:10C01000233948708870463148708870A04806F00F
:10C02000BCF89F48401C06F0B8F8F6F7A3FB00F0F8
:10C0300028F910BD20207047B4E770B50C460546BE
:10C040000026FFF7AFFF9549A04214D30A46203AD5
:10C0500000232046641EE4B200280BD08878105CD0
:10C06000287088786D1C401CC0B288702128F0D1DF
:10C070008B70EEE7012600F004F9304670BD2020F9
:10C0800070479BE770B50C4605460026FFF796FF04
:10C0900082492331A04214D30A46203A0023204685
:10C0A000641EE4B200280BD08878105C2870887871
:10C0B0006D1C401CC0B288702128F0D18B70EEE757
:10C0C000012600F0DEF8304670BD2021017000200E
:10C0D000704710B50446FFF77EFF2070002010BDAA
:10C0E00070B50C460546FFF776FF6C494631A04215
:10C0F00015D30A46203A00232046641EE4B20028E5
:10C100000BD08878105C287088786D1C401CC0B2F9
:10C1100088702128F0D18B70EEE7002400E0614C9C
:10C1200000F0AFF8204670BD70B50C4605462129D9
:10C1300004D9FF205CA147300FF00DF85548406846
:10C14000103840B2FFF718FFC6B20D20FFF714FFFA
:10C15000C0B2864207D2FF2053A14D300EF0FBFF44
:10C1600001E0F6F74AFB21462846FFF766FF002864
:10C17000F7D070BDF8B507464948484C401E474EB9
:10C180000078254646362335002806D1A9786878F8
:10C19000212200F06BF800280ED0A17860782122CF
:10C1A00000F064F8002814D0B1787078212200F0F3
:10C1B0005DF8002828D033E038496878C91C0F544E
:10C1C0006878401CC0B26870212829D100206870AE
:10C1D00026E03249607820390F546078401CC0B2A4
:10C1E0006070212801D1002060702D4F7F1E3878AB
:10C1F000002815D0A1786078212200F037F80028B7
:10C200000ED0002038700BE02449707826310F548E
:10C210007078401CC0B27070212801D1002070706D
:10C22000A9786878212200F021F800281DD0A17893
:10C230006078212200F01AF8002816D0B1787078C2
:10C24000212200F013F800280FD0F6F7B8FA1448AE
:10C2500005F0ABFF01214903884203D016A1C1209C
:10C260000EF079FF0E4805F0B8FFF8BD401C88427B
:10C2700005D0904201D1002901D000207047012053
:10C28000704710B5064805F090FF002801D1F6F779
:10C2900085FA10BD00ED00E000E400E0F00E0020A3
:10C2A00069000020072000007372635C736F635F96
:10C2B00072616E642E6300007372635C736F635F00
:10C2C00072616E642E630000FEB5F54C074660682F
:10C2D000FF213E0181552178FF2913D00901083142
:10C2E00041583246491E083209020192090A805813
:10C2F00000F0CCF9002802D02478254615E06168CA
:10C30000207888552770FEBDE5484268019811588D
:10C31000280100900830105800F0B8F9002806D124
:10C32000DF482C46416800980D5CFF2DECD1DC48BD
:10C330002101406885554754FEBD70B5D84A044672
:10C340000020157A53680AE00201561C9E5DA64241
:10C3500003D10C329A588A4204D0401CC0B28542A4
:10C36000F2D8FF2070BDF8B5CD4F3E7801F00AFE3F
:10C370000146FF2E68D034012546786808354059BB
:10C3800000F084F9022802D9786840595AE0C4497B
:10C390004868025D0A70A11C425C002A0CD0521E43
:10C3A000425441590122D20589180902090A415112
:10C3B0003046FFF789FF30E0631CC25C0092221D0B
:10C3C00094468258002A10D001239B029A420FD92A
:10C3D0009205920D43595703DB191B021B0A435167
:10C3E0006346C3589A1A920A09E0FF21C1540AE031
:10C3F000435952039A181202120A4251002242541F
:10C400003046FFF761FFA6480C344168C2680098C7
:10C4100009598000125800989047A14C2078FF28B5
:10C4200012D001F0AFFD01462078626800010830AB
:10C43000105800F02BF9012896D920786168000186
:10C440000830085801F091FDF8BDF8B51C461546B6
:10C450000E460746FF2B03D392A1D3200EF07BFE9E
:10C460008F48FF21C7604560047206740170002286
:10C470004270104604E00201521C401CA954C0B294
:10C48000A042F8D3F8BD70B5854C06466578207C8F
:10C49000854203D383A1E6200EF05DFEE068A9008B
:10C4A00046506078401C6070284670BDFFB581B072
:10C4B0001D46FF2401F066FD794F06467978019804
:10C4C000814203D877A1F4200EF045FE7448002184
:10C4D000037A406810E00A019446521C825CFF2AED
:10C4E00024D0019FBA4205D162460C328758029A85
:10C4F00097421DD0491CC9B28B42ECD8FF2C17D0F3
:10C5000021014B1C019AC2540B33029AC250039B67
:10C51000634F0022012B0ED00B1DC25001239B0242
:10C520009D4216D9AA05920D08D008E00C46E1E715
:10C53000FF2005B0F0BD0B1DC550EFE71A465303B1
:10C540009B190E461B0208361B0AAA1A8351920A2F
:10C5500009E0002D00D101256B039B191D022D0A56
:10C560000B460833C550891C42543D463E78204650
:10C57000FFF7AAFE2878B04217D001F003FD01466C
:10C5800028786A6800010830105800F07FF8012808
:10C5900007D92878696800010830085801F0E5FCDF
:10C5A00003E001F010F9F5F7AFFE0198C1E770B5AF
:10C5B0000C46054601F0E6FC064621462846FFF7F4
:10C5C000BCFEFF2817D0364D0401204669680830AC
:10C5D0000858314600F05AF80121090340186968EB
:10C5E000A41C095D400B002901D08902081800280D
:10C5F00000D1012070BD002070BDF3B581B00F46A1
:10C600000198FFF79AFEFF282AD0254D2E786968F9
:10C610003246344604E0844205D026462301CC5CF1
:10C62000FF2CF8D11CE0FF2C1AD0A64221D110011A
:10C63000085C2870FF281AD001F0A4FC2A78014673
:10C64000120168680832805800F020F8012809D9E2
:10C650002878696800010830085801F086FC08E075
:10C660000020FEBD01F0AFF8F5F74EFE01E001F04D
:10C6700084FC39460198FFF79AFF22016968FF237D
:10C68000541C0B558A5C3301CA54FEBD401A00028B
:10C690000121000AC905884200D900207047000026
:10C6A0003C0F00207372635C736F635F74696D6528
:10C6B000722E6300F0B500241C4A01211C4B0803B4
:10C6C000546018601B4B1C601B4C20601B480469A5
:10C6D000E443E406E617046910252C430461184C72
:10C6E0006160184D2960761C00E020BF1F68002F94
:10C6F000FBD0002E03D107691026B743076190686D
:10C700008005906801D5104A10436960A16000213E
:10C7100019600121084A09031160F0BD10B50446F3
:10C72000FFF7C8FF2060002010BD000000C50040DA
:10C7300080E100E000C1004080E200E000ED00E0A8
:10C7400000C3004000C0004000FCFFFF70B51F495F
:10C750000A68002A17D000231D4601244A68521C8B
:10C760004A60092A00D34D600E792246B2400E6815
:10C7700016420AD072B60B6893430B6062B64968E2
:10C780000160002070BD052070BD5B1C092BE5D346
:10C790000FA136200EF0DFFCF5E7012010498005DF
:10C7A00008607047EFF31081CA07D20F72B60121FB
:10C7B00081400648036819430160002A00D162B62F
:10C7C000EBE70248002101604160704770000020E3
:10C7D0007372635C736F635F6576742E6300000031
:10C7E00000E200E001208107086070470120810716
:10C7F000486070471048C068C00700D001207047EB
:10C800000D488068C00700D0012070470A48406981
:10C81000C00700D0012070470748C069704706492B
:10C820008A69D20306D589698907890F814201D1B6
:10C83000012070470020704700040040F8B5F74C15
:10C84000207EE17D88421CD00126F54D0027E07D49
:10C85000215C14200A4642435019037C052B11D059
:10C86000037C062B1CD0037C072B28D0437C012B98
:10C8700033D0ECA1EE480EF06EFC207EE17D8842C4
:10C88000E5D1F8BD0674E07D162807D0E07D401C98
:10C89000E075491CC8B2AA5802210CE00020F7E755
:10C8A0000674E07D162808D0E07D401CE075491C28
:10C8B000C8B2AA5803219047DFE70020F6E70674C4
:10C8C000E07D162807D0E07D401CE075491CC8B209
:10C8D000AA580821EFE70020F7E74774E07D162803
:10C8E00007D0E07D401CE075491CC8B2AA5807215A
:10C8F000E1E70020F7E770B50024CE4E0C207072FF
:10C90000CD4825464473047328300476C475CB485B
:10C9100005F043FCCA480575F572CA49601E886077
:10C920007571B570F57035717570C748E839057067
:10C9300045701420604340180574641CE4B20B2C4D
:10C94000F7D30120F5F7E0FF0020F5F7DDFF012028
:10C95000B071F5F7A3FCBD48F5F7B2FCBC4C2070F4
:10C96000BC48F5F7ADFC6070F5F76EFF70BD10B513
:10C97000F5F795FFB64C2078F5F7C0FC6078F5F731
:10C98000BDFCAC4C207A002803D0F5F746FD002012
:10C99000207210BD70B5A74CA079002804D0A1A1C9
:10C9A000AD480EF0D8FB70BDE07A002803D19DA100
:10C9B000AA480EF0D0FB0126A6710025E572607A28
:10C9C000042114225043964A801801749D488168BE
:10C9D000491C04D0691E81600120F5F795FF0020F5
:10C9E000F5F792FFF5F776FF05F018FDF6F777F803
:10C9F0009B480560056001209A49C0030860F6F76E
:10CA0000EDF891480078022804D0032804D1E0789A
:10CA1000002801D0A67000E0A570F6F74CF870BDB4
:10CA200003467F490B20142242435218203A127FBA
:10CA3000002A04D0401E0006000EF4D170471422D4
:10CA4000424351180A46803AD366012220390A77B8
:10CA50007047012805D0032805D1002903D1002003
:10CA600070470029FBD010B4724C00236370764AE3
:10CA7000002890700CD002280AD007291AD208008A
:10CA800078440079001887441505070D0F1113002D
:10CA9000D37003E01B2000E03A20D07001206070CA
:10CAA00010BC70475820F8E77720F6E79620F4E7A7
:10CAB000B520F2E710BC0020704710B562484078FE
:10CAC000F6F714F880B210BD411E1422504310B581
:10CAD000534A8418203C0A2902D8207F002803D119
:10CAE00050A161480EF037FB207F012804D0B3200D
:10CAF0004CA180000EF02FFB0020207710BD70B5F8
:10CB00004D4C607B217B884201D1012500E000254E
:10CB1000F5F785FFF5F7EAFF617B227B914201D1B2
:10CB2000012100E00021A942EBD170BDF7B5064616
:10CB3000481E84468EB0C0B2142205905043384A35
:10CB400085180495287C2D1D07282AD1334C0027F1
:10CB5000E07D227E824221D0235C059A934201D15E
:10CB6000012701E0002F04D0162811D0421CA25C3E
:10CB7000225416280ED0401C227EC0B28242EBD135
:10CB8000002F0BD0207E002806D0207E401E04E01F
:10CB90000022ECE70020EFE716202076049801221F
:10CBA00002746046234C0A2813D8142041431C48C1
:10CBB00008182038007F00280BD00498007C01283A
:10CBC0000BD00498007C012803D01098807A0128AB
:10CBD00007D014A125480EF0BEFA1098807A0128DB
:10CBE0006DD104980E4B007C022843D00B4C207E64
:10CBF000162870D0207EE17D401C884203D109A117
:10CC00001B480EF0A8FA049901204874217E05986B
:10CC10006054207E162862D063E0000038110020A6
:10CC2000541100207372635C72656D2E6300000006
:10CC3000D40500005C1200201011002068120020B2
:10CC4000201100203C1200207A00002067C3000061
:10CC5000780000203DC800007D0200005E02000058
:10CC600000F5004080E200E0CB0200001503000068
:10CC700022030000607A059A0146904206D00146E0
:10CC800014277843C018807C9042F8D1627A82429F
:10CC900008D1617A14225143C918897C617201213B
:10CCA000A17207E014224243D21814277943927CE0
:10CCB000C9188A7414220C215043C018817410982A
:10CCC000007A06281DD201007944097949188F4459
:10CCD0000C161412100EE07D002890D093E700206F
:10CCE00001E0207E401C2076B5E000210FE0B42159
:10CCF0000DE073210BE0322109E00A2107E0062153
:10CD000005E0FF20FDA1E0300EF025FA002110988B
:10CD100002910068401A28601099097A002912D0FF
:10CD20000221401A0102090A29601098026840682D
:10CD300010180002000A68601098807A0228109883
:10CD400003D0007B71E00421EBE7007A002812D0C9
:10CD500002220298121810984368104610301818D2
:10CD60000A90E948029B4078984202D9E378002B68
:10CD700003D00A9805E00422EBE7029BC31A0A9845
:10CD80001818637A10300C2B1CD0637A14277B435D
:10CD9000DE4FDB195B68994214D0DD4F617ABC46E7
:10CDA00014235943D94BC9184B6889689B1B891BAD
:10CDB0001B0209021B0A090A984237D8634535D875
:10CDC000614533D831180A980123081A0002000A75
:10CDD000286010998018C9680002000A471ACD4AD5
:10CDE0009B05BC469F4201D2384610E00F1A9F4275
:10CDF00001D260460BE0944503D9511A0818401C33
:10CE000005E0974206D9101A4018401C40420028FD
:10CE10005FDC03E0B9A1C0480EF09DF929680A98CB
:10CE200008180002000A686000202872686810274D
:10CE300010300002000A68601098407AA8721098BA
:10CE4000007A687203280ED200280CD0FFF7D2FCBB
:10CE5000002803D007E0002011B0F0BD0298422165
:10CE60000F1A32200290A8490878012801D003281F
:10CE700009D148780299884205D9E178002902D180
:10CE80000299401AC7196B6828689B1B801B9C4637
:10CE900001021B029E4A090A1B0A8F4219D8174633
:10CEA000914216D8BB4214D8617A0C2915D0677A02
:10CEB00061460C22039200921422944B7A43D218BA
:10CEC00093689B1B834216D80397977C0C2FF3D152
:10CED00073E0059801F04CF9BDE70498022205992A
:10CEE0000274627A0C2A00D0627A82746172012024
:10CEF000A07211B0F0BD0C2F5FD0002238469446CE
:10CF00001422824B4243D21853689B1B8B4225D27A
:10CF1000907BAB7A98421BD804980521059D01743B
:10CF20007E4C207E16280FD0207EE17D401C88425A
:10CF300003D172A17A480EF00EF9207E2554207E8E
:10CF4000162800D0CDE6CAE6E07D0028F1D0F4E74F
:10CF500001208446907C0C28D2D102E06146002951
:10CF60002AD03D46009014202A46424367480621B5
:10CF7000161831741C38007E1628684816D0017EB9
:10CF8000C07D491C814203D15CA166480EF0E3F8E4
:10CF90006248017E4554017E16290BD0017E491C52
:10CFA0000176B57C0098A842DDD106E0C07D00285E
:10CFB000EAD0EDE70021F3E7009704990220534DF2
:10CFC0000874607AB84207D104990098887405986B
:10CFD00060720120A07221E003980C2F0FD00C2862
:10CFE00003D146A150480EF0B6F8039814225043DE
:10CFF0004019059981740499009888740EE00C28F2
:10D0000003D13EA149480EF0A6F8039814225043DC
:10D0100040190599817404990C208874012011B07D
:10D02000F0BD70B50D46424A441900210B46101A56
:10D030008B4103D231A13F480EF08DF83E48854226
:10D0400003DD2EA13D480EF086F83D48854203DA07
:10D050002AA13C480EF07FF83B48844205DA002CB8
:10D0600001DB204670BD384800E03848201870BD0C
:10D07000401E70B5C0B21421484324494418607B57
:10D08000062813D201007944097949188F44020C0B
:10D090000A080604002067E0B42010E073200EE0C8
:10D0A00032200CE00A200AE0062008E0FF2013A14D
:10D0B000E0300EF050F8617B0020002954D00221AE
:10D0C0004018616840180002000AF5F70FFD0C25B2
:10D0D0006557174A441900210B46101A8B4103D299
:10D0E00006A114480EF037F81348854203DD03A16A
:10D0F00012480EF030F81248854229E07372635CE2
:10D1000072656D2E630000007A000020541100202B
:10D11000FFFF3F00FFFFFF00130700003811002052
:10D1200007020000C5030000DD030000E303000068
:10D13000FF7F841EF50300000020A107F603000016
:10D1400000E05EF8F70300000080841E00807BE1B1
:10D1500003DAF749F7480DF0FEFFF748844207DA93
:10D16000002C03DB204670BD0421A9E7F24800E053
:10D17000F248201870BDF0B5064683B0F048019023
:10D18000457A029534687068001B0702ED483F0A33
:10D19000001B00900C2D2DD0142029464143EA4855
:10D1A0000122081884464168E64892058646081B15
:10D1B000904210D3631A93420DD3024670467245D3
:10D1C00003D900984018401C05E073450ED9411A58
:10D1D0000819401C404200280CDA60460295857C04
:10D1E0000198C0790028D5D003B0F0BDD049D74808
:10D1F0000DF0B1FF0298854226D014214843D24950
:10D200000123401802908068CE499B058C46011B83
:10D210008646994210D3221A9A420DD3634661453D
:10D2200003D900997144491C06E0194662452DD97D
:10D23000091A0819401C4142002905DD0298B17AFB
:10D24000807B814200D374460C2D15D0BE4914203A
:10D25000454368184268121B1202120ABA420BD2E6
:10D26000B37A827B934200D38468857C0198C0792D
:10D270000028B9D10C2DEAD13068A042B4D0E01911
:10D280000002000A3460706003B0F0BDA849AF48E6
:10D290000DF061FFD8E7F0B5AD490446486885B0A8
:10D2A000C005C00D1CD0103840B200280CDA0207AF
:10D2B000120F083A920892005118C9698007C00EEF
:10D2C000C1400806800F09E08108A24A8900891838
:10D2D00009688007C00EC1400806800F002808D0EA
:10D2E00000272078002806D0012804D0002005B0AF
:10D2F000F0BD0127F5E72079062813D20100794413
:10D30000097949188F44020C0A080604002018E025
:10D31000B42010E073200EE032200CE00A200AE076
:10D32000062008E0FF208249E0300DF014FF21794B
:10D330000020002905D002214618814D002F02D07F
:10D3400003E00421F8E70020E871694602AAA0681A
:10D35000F5F7D6FB694608228A56E06801A98018CD
:10D360000122C01C1F2801DA019209E003AAF5F787
:10D37000C7FB6846007B002802D00198401C019042
:10D3800000990198401810300002000A0190881B93
:10D390000002000A00906079694688720098039044
:10D3A000F5F73DFB009A019B121A181A6A491202FE
:10D3B0000002120A000A8A4216D8884214D8684627
:10D3C000FFF7D9FE00990398814205D08819000221
:10D3D000000AF5F78BFBA0600120E979002986D0CF
:10D3E000002FB0D005B0F0BD0020F6E7F3B58FB048
:10D3F0005A480C460B9004F0D8FE594A0F99504FEA
:10D400005618584D203E00280BD05748007D002864
:10D4100003D056A158480DF09EFE207801287CD0FC
:10D420005AE1687B16280CD0687B297B401C884217
:10D4300003D14EA151480DF08EFE2078012804D072
:10D440000CE0287B0028F4D0F7E7F07F002803D019
:10D4500046A14B480DF07FFE0120F077697B0F98C5
:10D460001422484E5143891908742078022822D08A
:10D47000687B142148438619207930726079707274
:10D4800032460C323146A068F5F73AFB0C20305694
:10D490000F2804DD1F3830733068401C30600C21C9
:10D4A0007156301DE26801905018C01C1F283EDAEA
:10D4B00001200199F7E026494868C005C00D21D038
:10D4C000103840B200280CDA0207120F083A92080E
:10D4D00092005118C9698007C00EC1400806800F2C
:10D4E00009E081081B4A8900891809688007C00E75
:10D4F000C1400806800F002804D105201BA10002AE
:10D500000DF029FE687B1421484386190021E0684C
:10D510006A460691117006A900E0D3E0F5F7F0FA2B
:10D520006A46002010560F282EDD01202DE0AEE0C7
:10D53000FCD00000F70300000080841E00807BE127
:10D540005C120020FFFFFF005411002013070000B1
:10D5500000ED00E000E400E0FFFF3F006812002063
:10D560003012002010110020201100207372635C23
:10D5700072656D2E6300000011050000EF040000CD
:10D58000F4040000500F0020002006994018079076
:10D590000220B0722079307260797072A068311DFB
:10D5A000C01C06911F2801DA012009E0F5F7A8FA4E
:10D5B00068460078002804D0069806990068401C48
:10D5C0000860307A062813D2010079440979491895
:10D5D0008F44020C0A08060400200FE0B4200DE07E
:10D5E00073200BE0322009E00A2007E0062005E066
:10D5F000FF20FE49E0300DF0AEFD0020217900292A
:10D6000043D002214018069071681030081807991D
:10D61000089009180698081A0C900020F871F5F780
:10D62000FEF904463060079820180002000AF060F6
:10D63000787A0C2825D0797A14204143EC480818D0
:10D6400040680899029040180002000A0390707A1E
:10D650006946887402A8FFF78EFD0299039A091B98
:10D66000121B09021202E34B090A120A0C98994292
:10D6700007D8824205D80299069808180002000AC5
:10D680003060F8790028C8D110E00421BAE704AA74
:10D690000199F5F735FA6846007C002804D0019816
:10D6A00001990068401C08602078B072687B1628D9
:10D6B00006D0687B401C68730B9804F08EFD47E031
:10D6C0000020F8E7F07F002804D0A320CAA1C00002
:10D6D0000DF041FD0120F077CA490F9808742078B9
:10D6E000022803D1C4A1C8480DF035FDC54E2079EC
:10D6F00030726079707232460C323146A068F5F7AC
:10D70000FFF90C2030560F2804DD1F3830733068C5
:10D71000401C30600C22B256301DE1680190881820
:10D72000C01C1F2802DA012001990BE003AA01990D
:10D73000F5F7E6F96846007B002804D001980199C6
:10D740000068401C08602078B072AE49012008755E
:10D75000687B297B884224D07C7A0C2C23D0F5F777
:10D760005EF914214C43A24961180A7C042A18D09E
:10D770000A7C032A15D04B6889681B1A081A1B02F9
:10D7800000029C4A1B0A000A102B0AD3114693423E
:10D7900007D8884205D8687B297B884201D0F5F7F5
:10D7A0008AF911B0F0BD687B297B8842F7D111B0AE
:10D7B000F0BD10B50020F5F794F810BD10B50120AC
:10D7C000F5F78FF810BD914800787047F1B50098D3
:10D7D00002281ED08E4C607A0C2803D186A18D4879
:10D7E0000DF0B9FC0026A6710125E572607A0321CF
:10D7F00014227F4F5043C0190174F5F761F9009866
:10D8000000280BD001282AD003287AD07AA1824898
:10D8100045E07E480078F4F777FDF8BD7F48007F4B
:10D82000002804D02B2074A140010DF094FC6571F8
:10D830007A4D00202E60F5F767F8A968481C04D0DF
:10D84000012300221846F5F795F8607A617A401CAA
:10D85000C0B2142251437A5801219047F8BD0120EB
:10D86000F5F752F8607900280DD06C488068401CAC
:10D8700009D0607A617A401CC0B2142251437A58B0
:10D8800006219047F8BD6548007F01280AD002288C
:10D8900012D0032822D0042834D057A160480DF0BC
:10D8A0005AFCF8BD2079002803D02671F5F70DF950
:10D8B000E5705A480677F8BD207A002802D1F4F7BF
:10D8C00083FD2572607A617A401CC0B214225143F4
:10D8D0007A580021904751480677F8BD4F4F0123F1
:10D8E000397B78680022411A1846F5F743F8207909
:10D8F000002803D02671F5F7E8F8E57002203877A4
:10D90000F8BD19E0454E217870680123411A0022C4
:10D910001846F5F72FF8207A002802D1F4F754FDC5
:10D920002572607A617A401CC0B2142251437A5841
:10D93000002190473577F8BD607A617A401CC0B20B
:10D94000142251437A5805219047F8BD10B5304C48
:10D95000607A0C2803D128A132480DF0FCFB607AD4
:10D96000617A401CC0B214225143214A525804210A
:10D97000904710BDF0B583B00C200290F5F74FF83A
:10D98000234C0090617A284801900C2920D0617ABC
:10D990001420414316480918097C042918D0617ADB
:10D9A000142251430818007C032879D0019900986B
:10D9B0000B6849681B1A081A1B0200020D4A1B0A51
:10D9C000000A102B6CD31146934269D8884267D85D
:10D9D00012488068401C03D007A114480DF0BBFB1F
:10D9E00000206071607A0C282AD121E0FCD0000070
:10D9F00054110020FFFF3F007372635C72656D2E4F
:10DA000063000000201100201E05000078000020A7
:10DA10005C12002054050000A70500003C12002005
:10DA20009B050000AE0500004C120020EA05000036
:10DA30006078002804D0FE48C17841708178017078
:10DA4000607A0C2815D0607A1421FA4A484380186D
:10DA5000007C04280DD1607A0290607A01211423A1
:10DA6000584380180174607A58438018807C607233
:10DA7000A172F14D687B297BF04F884233D0F04E84
:10DA8000287B142148438019007CC05D0128287B35
:10DA900007D048438019007CC05D02282FD044E0A5
:10DAA000FCE1142148438019807A01280AD0287BA0
:10DAB0000221142250438019007CC155287B16286E
:10DAC00008D009E0287B0021142250438019007CF3
:10DAD000C1552AE0002001E0287B401C2873687BA8
:10DAE000297B8842CCD1D74D287D00284DD0287C79
:10DAF000C15D012928D0C05D022830D03BE0287BE1
:10DB0000142148438019807A012803D0CEA1D1483E
:10DB10000DF021FB297B00201422514389198872C2
:10DB2000297B51438919097CC855287B1421484316
:10DB30008219287B48438019017C0098FEF7F6FF84
:10DB4000287B1628C8D1C5E7A97A012904D002216B
:10DB5000C155002028750EE00021C1550BE0A87AC0
:10DB6000012804D0C520B8A1C0000DF0F4FA0020AF
:10DB7000A872297CC855287D002806D0297CB14A86
:10DB80000098FEF7D3FF0020287502980C281ED0BD
:10DB900014214843A7494018017C012917D10721C6
:10DBA0000174AD4D287E16283CD0287EE97D401CAE
:10DBB000884203D1A4A1A9480DF0CDFA297E02988C
:10DBC0006854287E162831D0287E401C2876607A3A
:10DBD0000C287DD0A07A00287BD00020A072617A2A
:10DBE0001420414393480E189D49B56873680A464E
:10DBF000F6687C32CB67966055609A4D697E002945
:10DC000016D00226617A14228A4851430818407BB4
:10DC100006281BD201007944097949188F440A1457
:10DC200012100E0CE87D0028C4D0C7E70020CDE715
:10DC30000426E7E700210FE0B4210DE073210BE09B
:10DC4000322109E00A2107E0062105E0FF2086498C
:10DC5000E0300DF080FA00212973687E022801D09F
:10DC6000012810D12869009A4018821A1202120A5B
:10DC7000422A08D93238032100026976000A286155
:10DC80003220287308E0322906D2207A00280AD1EF
:10DC9000F4F79AFB012005E0207A002803D0F4F77E
:10DCA000BCFB00202072624910224878207009785D
:10DCB000012901D0032906D101212171297B884244
:10DCC00001D9421A1032A378002B00D0921C01E037
:10DCD0008DE09BE02179002901D1002B5DD0944695
:10DCE000624A00990092019A176852687F1A511A85
:10DCF0003F0209023F0A090ABC451BD85B4A97420A
:10DD000018D8009A914215D8297B884223D92B69CB
:10DD1000421A9A1A1202120A101880190002000AF6
:10DD20002A616860002914D0032028770006000EBD
:10DD30003ED14CE000202071A070297B002925D025
:10DD40002869401880190002000A686002202877BC
:10DD50002EE00120E9E781420BD92A69511889197F
:10DD60000902090A6960002801D00420DDE70220C9
:10DD7000DBE7002B03D134A13D480DF0ECF9286915
:10DD800080190002000A6860002004E029698919EE
:10DD90000902090A6960287719E0287B00280FD05A
:10DDA0002969081880190002000A68600220287793
:10DDB00028690123811900221846F4F7DBFD09E0E8
:10DDC000286980190002000A686000202877012075
:10DDD000F4F79AFD607A1421484316490C22401842
:10DDE0008256012300206968F4F7C4FD0EE001208B
:10DDF000F4F78AFD0020F4F787FDF4F76BFD207A35
:10DE0000002803D0F4F709FB00202072A078002836
:10DE100004D0F4F75AFE0020E070A070607800286B
:10DE200004D00348C178417081780170207921E0E5
:10DE30007A00002054110020101100202F12002021
:10DE4000500F0020201100207372635C72656D2EEC
:10DE5000630000000C060000381100203A060000A4
:10DE6000D01100203C120020FCD00000FFFF3F003A
:10DE70008C060000002806D00020CF49E070097809
:10DE8000002900D12071CD48017EC07D814203D0A0
:10DE9000CB484078F4F738FA0120E07103B0F0BDC8
:10DEA000F0B5C84C0746607A83B00C2803D1C6A1F0
:10DEB000C8480DF050F9607A1421C74E48438019C4
:10DEC000007C032804D06F20BFA100010DF043F9AE
:10DED000C24DA868401C03D0BBA1C1480DF03BF95E
:10DEE000607A1421484381190C20085600216A46A3
:10DEF00000911171C01901AA6946F4F701FE6A4642
:10DF0000042010560F2801DD012000E000200099B8
:10DF10004018696840180102090AA9606079002860
:10DF200004D0012300221846F4F724FD03B0F0BD0D
:10DF300070B5AD4CAB4A0B1AA34214D3451AA54297
:10DF400011D3934203D9101A43185B1C0BE095427E
:10DF500004D9511A0818401C434204E0A349A448BC
:10DF60000DF0F9F80023184670BD10B501460123E5
:10DF700000220220F4F7FEFC10BD10B50220F4F7D9
:10DF8000C3FC10BD10B5F4F74AFD10BDF0B58D4DC2
:10DF90000446E87A83B0002803D18BA195480DF0A0
:10DFA000DAF8642C4DD3944900200246091B8241C3
:10DFB00047D39248417B007B814242D19048007D0B
:10DFC00000283ED1687A1421834F4843834EC519F7
:10DFD000306801AA00196946F4F792FD69460420E9
:10DFE0000856002802DD0098401C0090A96800989F
:10DFF0006B680A18D21A1202824B120A9A4220D86F
:10E00000AA7C0C2A08D014235A43D2195268511AF8
:10E010000902090A814214D3B068401C05D00120CE
:10E02000F4F772FC0020C043B06030680019306023
:10E03000A868009940180002000A7061012003B02E
:10E04000F0BD002003B0F0BDF8B50646401EC5B2D5
:10E050001420614968434418207C002803D15AA148
:10E0600069480DF078F86548017B407B81420CD00F
:10E07000664A14234B439B181B7CB3420CD01629D1
:10E080000CD0491CC9B28142F3D15D48017D002901
:10E0900064D0007CB04261D10020F8BD0021F1E7DE
:10E0A000217C052905D0217C062902D0217C072965
:10E0B00028D101212174C17D0023027E8A4221D012
:10E0C0000246565CAE4201D1012301E0002B04D090
:10E0D000162911D04E1C965D565416290ED0491C97
:10E0E000167EC9B28E42ECD1002B0BD0117E0029D6
:10E0F00006D0117E491E04E00026ECE70021EFE780
:10E1000016211176617C00292AD06774C17D002315
:10E11000027E8A4224D0425CAA4201D1012301E05E
:10E12000002B04D0162912D04A1C825C42541629B6
:10E130000FD0491C027EC9B28A42ECD1002B0FD00D
:10E14000027E0146002A06D00A7E521E04E000220A
:10E15000EBE70021EEE716220A7601E017480027D8
:10E16000217C01299CD1617C002999D10120F8BD35
:10E1700070B505461420184A0521684380180174BB
:10E180000E4C207E162811D0207EE17D401C884256
:10E1900003D116491E480CF0DEFF207E2554207E58
:10E1A000162807D0207E401C207670BDE07D002818
:10E1B000EFD0F2E70020F7E77A00002038110020C6
:10E1C000780000205C1200207372635C72656D2E13
:10E1D00063000000EF060000541100203C120020F4
:10E1E000F1060000FF7F841E0020A107FCD0000084
:10E1F0001307000032070000FF1FA10710110020C5
:10E2000020110020FFFF3F006F070000500F00208B
:10E210000702000010B509F063FC042803D009F0E0
:10E220005FFC052803D106F0D1FE00280BD104F0D5
:10E2300007F9032803D004F009F9032805D109F0F0
:10E24000B0FD002801D0012010BD002010BDF0B5A8
:10E2500085B00746002668460D4606726946384670
:10E2600005F05CFA00287DD16846007800280BD0C4
:10E2700009F009FDB84275D00022294638460AF057
:10E28000CCFE00283ED120E006F077FCB842F2D068
:10E2900000222946384608F01DF900287DD1019C4E
:10E2A0009020005D2834002804D1607E002801D031
:10E2B000012000E000200490204660300390807828
:10E2C00006F08AFB002804D008E0019C2834607E18
:10E2D000F1E7FF20FDA1DA300CF03DFF20462030B1
:10E2E000417B00290FD0817B89070CD56E700121FD
:10E2F0002970AE70AF80C17BA971218E2981618E9A
:10E300006981467349E0039802A9807806F030FAE3
:10E31000002804D1FF20EDA1EE300CF01CFF684670
:10E32000007A002809D06E700D202870AF806846F2
:10E33000007AE8800120A8702FE0049800282FD0F0
:10E3400006F0B5FB00282BD068460078002806D1DF
:10E3500001988030406A4188B94200D10670039824
:10E36000807800E01CE006F0CAF8002803D1D7A1AD
:10E37000DA480CF0F0FE6E700A202870AE70AF80A4
:10E38000A07EA8716676684605F07EFA002804D063
:10E39000D248CEA10E300CF0DEFE012005B0F0BD5B
:10E3A0000020FBE77CB5CEA103C9CF4D002401912D
:10E3B0000090AC7001F067FD2946EC7004204039F4
:10E3C000088710204887C81DC84AF9304280047168
:10E3D000C280E03844740C7084730475C0300477D4
:10E3E0001D300522694604460CF02BFD28462146C7
:10E3F000BC3008F0F7F97CBDF8B5BD4C0D46606047
:10E40000217006F057F805F0D1F8FFF7CBFF207820
:10E4100009F03AF9B4498431084681380F46064676
:10E4200006F08CFC606808F0D8F8284604F06EFC12
:10E430003946304609F057FC60680AF08AFE01F060
:10E4400022FDA9480021C170F8BDFEB50E461D464B
:10E45000144601A905F062F9002839D102988030EC
:10E46000807A06F079F800280CD0684606F087F824
:10E47000002806D0002C03D006F01DF8A04206D2DA
:10E480000020FEBD91A19B480CF065FEF8E70098C6
:10E4900005F0AAFB3146009805F0ABFBE2B2294635
:10E4A000009805F063FD06F08FF8002804D191482C
:10E4B00086A11E300CF04FFE68460079012807D176
:10E4C00001A801F0E7FC8A48002180688030418281
:10E4D0000120FEBD30B40179002904D0012907D004
:10E4E00030BC00207047831D42880488022103E06D
:10E4F00042880488831D0121204630BCA5E7FFB572
:10E50000794C85B00E460746C0346088694608805D
:10E51000154602A905F002F9002811D0002168462D
:10E5200005F059F9002823D1684602A9008805F0B2
:10E53000F5F8002804D06F4864A13C300CF00BFEC5
:10E5400068460088388068460088608066480021F8
:10E55000C23005F040F9002802D00020C04360809E
:10E5600003988030807A06F037FA002803D007E05D
:10E57000002009B0F0BD5F4854A156300CF0EBFD0F
:10E5800004A806F03CFA0028F3D0049805F068FBD4
:10E590003070022807D0012805D056484BA17230B0
:10E5A0000CF0D9FDE4E70899049805F0F6FC288002
:10E5B000002804D14F4845A165300CF0CCFD06F091
:10E5C00045FA002804D1E92040A180000CF0C3FDE9
:10E5D0000120CEE73EB50446831D02AA694601A884
:10E5E000FFF78DFF002813D068468088208068469A
:10E5F000008960800020607168460078012808D09A
:10E60000022806D03B4831A192380CF0A4FD01202D
:10E610003EBD2071FBE7FEB5040004D135482BA1B7
:10E620007E380CF098FD304D0026203D687C002897
:10E6300008D0667010202070A87CA070E87CE07084
:10E640006E7430E0284F403F3878002808D02C22E4
:10E65000B91C20460CF0F5FB0E2020703E7022E025
:10E66000A87B002809D00120E070E87BA070287CFE
:10E6700060700F202070AE7315E01B480221C63079
:10E68000029005F0A8F8002871D1174FC037F8881C
:10E690000190F888042808D0052831D02146FFF7DA
:10E6A000D6FD002859D00120FEBD0021204606F0ED
:10E6B00019FA0028F7D1287D00284ED06670132063
:10E6C00020701C21A01C0CF019FC15E07372635C17
:10E6D0006C6C5F6374726C2E630000000D020000AE
:10E6E000FFFFFFFF1F000000AC120020FFFF000033
:10E6F00080000020390300000220A0702E75D2E7B0
:10E700000021204609F098FA002826D02078132806
:10E71000C9D1A0783C28C6D1A088694604F07CFF06
:10E72000002803D0FD49FE480CF015FD009880300C
:10E73000807A05F0E4FE002804D1F948F749001D6D
:10E740000CF009FD009804F09FFF0028ABD0F448BE
:10E75000F24908300CF0FFFCA5E70221029805F011
:10E760003AF8002803D1F9880198814291D100201C
:10E77000FEBD50E710B508F011FF002804D0E848AE
:10E78000E649BE300CF0E7FC07F01FFF06F09AFAEE
:10E7900004F07AFA002804D07920E049C0000CF097
:10E7A000DAFC0AF0CEFC002804D03D20DB49000151
:10E7B0000CF0D1FC09F070FA002804D0F520D749FC
:10E7C00080000CF0C8FCFFF7EDFD04F0ABFE002864
:10E7D00004D0F720D14980000CF0BDFC05F01CFEF0
:10E7E00001F051FBCF480021C17040380171012177
:10E7F00041710222C270017010BD10B5C94C403C7D
:10E800002078002804D00A210E2001F002FB10BD60
:10E81000FFF700FD002801D00C2002E001F033FBDF
:10E8200000202071012060710A21E170207010BD6C
:10E8300070B5BC4C0646403C2078002804D03A21F4
:10E840000E2001F0E6FA70BDFFF7E4FC002801D0CD
:10E850000C2010E0B34DE87808280BD20001001915
:10E8600010223146443001F0DEFAE878401CE870AE
:10E87000002000E007202071012060713A21E17042
:10E88000207070BD70B5A74C0646403C207800282B
:10E8900004D00B210E2001F0BCFA70BD30780028A6
:10E8A00003D0012801D0122015E09E4D8035287933
:10E8B000082817D2FFF7AEFC002801D00C200AE090
:10E8C000984833782979721C883001F098FB2879B0
:10E8D000401C287100202071012060710B21E17023
:10E8E000207070BD0720F6E710B58E4C403C2078B4
:10E8F000002804D039210E2001F08BFA10BDFFF75B
:10E9000089FC002801D00C2002E086490020C87054
:10E910002071012060713921E170207010BD8148A3
:10E9200010B540380178002904D00F210E2001F0E5
:10E9300070FA10BD002101710E2181700F21C1708C
:10E94000FF2181710021C9430181774949680A7813
:10E9500082728A8882814988C18101214171017056
:10E9600010BD704910B540390A78002A04D03C2106
:10E970000E2001F04EFA10BD6A4A0088C032508065
:10E980000120107100220A7148713C22CA7008707F
:10E9900010BD10B5634C403C2078002804D02B21DA
:10E9A0000E2001F036FA10BD0821A01DFDF7BCFBBA
:10E9B00000202071012060712B21E170207010BDBA
:10E9C00010B5584C403C2078002804D005210E207A
:10E9D00001F01FFA10BD05F06EFDE08005F0C6FEE7
:10E9E000207200202071012060710521E1702070EB
:10E9F00010BD10B54B4C403C2178002904D031218A
:10EA00000E2001F006FA10BD00214156042911D054
:10EA100000290FD0081D0DD0001D0BD0001D09D0FE
:10EA2000001D07D0001D05D00A3003D00A3001D0E8
:10EA3000122003E0084601F033FB00202071312052
:10EA4000E07001206071207010BD30B5354D044676
:10EA5000403D28788DB0002805D02A210E2001F0F5
:10EA6000D8F90DB030BD10222146684601F0DBF91F
:10EA70001022A11804A801F0D6F9684603F00BFC97
:10EA800010222C46A81D08A901F0CDF90020207104
:10EA90000E20A0702A20E070012060712070E0E755
:10EAA000F0B5204C85B0403C2078002804D03B21B4
:10EAB0000E2001F0AEF971E40020A07119486946FA
:10EAC000C0304088888002A904F028FE002805D0C4
:10EAD000002101A804F07FFE002865D16846114D91
:10EAE00081880180283D684602A9008804F016FE4E
:10EAF000002803D009490D480CF02DFB039E04A902
:10EB000037468837B878283605F04BFE002804D100
:10EB100006480249401D0CF01EFB09E0CCE600004F
:10EB2000FF020000AC12002080000020140500004D
:10EB3000767EB87805F050FF002803D1FB49FC48E9
:10EB40000CF009FB05F0B3FF0121484031460143B9
:10EB50001FD06A461188A279FD2352001219118133
:10EB6000A2794000515D4908490031435155A279CD
:10EB70001940014351556A46107C002802D00420F8
:10EB8000014301E0FB200140A0794155A079401CE0
:10EB9000A0710021684604F01EFE002804D16846DA
:10EBA0000188808881429ED10020207101206071FF
:10EBB0003B21E17020707EE770B5DE4C0546207881
:10EBC000002804D034210E2001F023F970BD08F094
:10EBD00087FF052804D0284608F03FFD002000E00C
:10EBE0000C202071012060713421E170207070BD13
:10EBF00010B5D04C2078002804D00E21084601F032
:10EC000008F910BD0622CC49A01D0CF01AF900200D
:10EC10002071012060710E21E170207010BD70B56F
:10EC2000C44C06462078251D002804D032210E2031
:10EC300001F0EFF870BD3146002009F032F928707C
:10EC400000280CD100213246084606F080F92870D1
:10EC5000002804D106223146B7480CF0F2F8012012
:10EC600060713221E170207070BD70B5B14C054605
:10EC70002078002804D030210E2001F0CAF870BDA1
:10EC800008F073FD002803D104F0DEFA00280DD04F
:10EC9000287804F08AF8287806F0C0F9002020715E
:10ECA000012060713021E170207070BD0C20F6E70A
:10ECB000F8B5A04C06462078251D002804D0172161
:10ECC0000E2001F0A6F8F8BD3146012009F0E9F860
:10ECD0000127287000280FD13246012106F037F9AC
:10ECE0002870002808D19348062231463C300CF0A9
:10ECF000A8F890484030877067711720E07027703F
:10ED0000F8BDFEB58B4C05462034A07B002804D00E
:10ED100028210F2001F07DF8FEBDA8781A2824D004
:10ED20000EDC03000CF038FB16333333333321335E
:10ED300033333333333333333333333321212133D9
:10ED40002A2824D00ADC1E3803000CF025FB0C20F6
:10ED5000202020202020202020200E203A380300D0
:10ED60000CF01AFB04150315031528887349884213
:10ED70000DD81F21E173282121740120A073288858
:10ED8000694604F0CBFC002803D0022014E01220D6
:10ED900012E068460078019F00280FD0C637019E18
:10EDA00000280DD0C736684601F05CF8002802D074
:10EDB0003878002806D00C20E073FEBD9C37EEE7C3
:10EDC0009D36F0E701203870A87830700020E0739D
:10EDD000684601F05FF8FEBDF0B5564C0746207856
:10EDE00085B0002804D025210E2001F012F862E63B
:10EDF000388802A904F092FC4E4E00210836002803
:10EE00000CD00220207131603171E1800E20A070A1
:10EE10002520E0700120607120704CE6039D28469B
:10EE20000A30483501900020A87505223046019926
:10EE30000CF007F8A87D0028F5D13888E080E5E7D8
:10EE4000FEB53C4C06462034A07B002804D010219F
:10EE50000F2000F0DEFFFEBD1F20E07310202074A5
:10EE60000127A7733088694604F058FC002810D1A8
:10EE7000684600F0F7FF00280BD06846019D007837
:10EE800028350028019806D0CA300178002909D118
:10EE900004E0022007E08030406AF6E72035697B15
:10EEA000002902D03A20E073FEBDA97B89070DD16D
:10EEB0000621017068460078002804D10198318845
:10EEC0008030406A4180684600F0E4FF0020E07333
:10EED0006F73FEBD70B5174D04462878002804D026
:10EEE00038210E2000F095FF70BD1F2028710120F1
:10EEF00068713821E97028702078002808D001282E
:10EF000006D0022804D0032802D01220287170BD38
:10EF1000002606F051F8207807F061FC207808F010
:10EF2000E6FF20780AF0ABFA2E7170BDCCE6000047
:10EF30001F0500006C1200208C000020FF0E000056
:10EF4000F8B5FE4D06462878002804D01D210E2075
:10EF500000F05FFFF8BD1F202871012068711D219E
:10EF6000E970287008F0BCFD0C27042857D005284C
:10EF700055D0B0791224012801D000281DD1307855
:10EF8000002801D0012818D1F079002801D00128EB
:10EF900013D17088EA49021F30248A420DD2B28808
:10EFA000121F8A4209D22887B0886887B079002466
:10EFB000012804D000280CD016E02C71F8BDDF48E1
:10EFC0004030807800282AD0DC4A3C3201210846B3
:10EFD00002E0DC4A0021012005F0B9FF040003D063
:10EFE000D949DA480CF0B7F8F079012801D00028A7
:10EFF00002D105F0C8FF0446002C01D01F2011E00B
:10F000003078012802D0002803D00AE00021022035
:10F0100001E00021012005F0C6FF002801D02F717A
:10F02000F8BD00202871F8BD70B5C44C21780029C6
:10F0300004D01E210E2000F0ECFE76E71F21217186
:10F04000012161711E22E270217002781221012AD1
:10F0500001D0002A04D14078002803D0012801D033
:10F06000217162E700260C25012A09D008F038FD3D
:10F07000052803D008F042FA002806D0257154E78D
:10F08000618F208F08F083FBF6E726714DE7F0B51E
:10F09000AD490446143103C987B0A84D0591203508
:10F0A0000490A87B002805D021210F2000F0B1FE9C
:10F0B00007B0F0BD1F20E873212028740126AE732D
:10F0C00022889F4B111F3020994243D261880F1F25
:10F0D0009F42FAD291423DD8E2899D4B911F9942BD
:10F0E000F3D2218A8F1F9F42EFD28A42F3D8628ADD
:10F0F000FF23F4339A42EED8A28A954F13460A3B77
:10F100003F1FBB42E1D2C9088A4223D9E18A228B40
:10F110009142E0D821791220002902D0012919D189
:10F1200002E061790029F9D1217B002901D0012970
:10F13000F5D108F0D5FC05280BD008F0D1FC042847
:10F1400007D0287D002804D105F017FD81498842A9
:10F1500001D00C20BDE0684604F0AEFA002801D0D2
:10F160000920B6E001220321009804F0E6FF009F89
:10F17000042178880F3703903846FCF7D5FF3846CE
:10F18000039905F0C2F874A0009F0068069003215F
:10F1900006A81337FCF751FF002006A90A5C3A5471
:10F1A000401CC0B20328F9D30098218A8180618A6B
:10F1B000C180A18A01810146002720318F73CF735E
:10F1C0006179002902D0012903D101E0C77600E06E
:10F1D000C6760622A11D1C300BF033FE00980522D6
:10F1E00004A90A300BF02DFE0098A0300673694682
:10F1F0000F71012101A8FCF720FF6946087941073A
:10F20000C206490F920F80068918C00F0818694678
:10F210000871401D009B0928987601D20830987625
:10F2200001220021184604F088FF00988A3005F07A
:10F2300044F9002804D145484349FC300BF08BFFCA
:10F24000207B002806D0012808D03F4943480BF016
:10F2500082FF40E000213B4A012008E0374840306F
:10F26000807800280FD0354A01213C32084605F04D
:10F270006EFE00282FD000988030807A05F03FF98C
:10F28000002816D01AE000988030807A05F037F90F
:10F29000002804D131482C490D380BF05CFF009850
:10F2A00004F0DAFA002800D153E72C48264909383F
:10F2B00041E02A482449C01D0BF04DFF009804F09E
:10F2C000CBFA002804D025481F490B300BF043FF30
:10F2D0001F20E873ECE62079012801D0002803D133
:10F2E00005F051FE00280CD10320009905F05BFECB
:10F2F000002806D162882188009808F0F5F90028D6
:10F3000007D000988030807A05F0F9F8002805D001
:10F3100009E00098A0300770EF73C9E60F480A496A
:10F3200031300BF018FF009804F096FA0028BBD09B
:10F330000A48054935300BF00EFF0AE76C12002031
:10F34000FD3F00008C000020CCE600000607000016
:10F350007B0C0000FFFF0000112233001C0800009E
:10F3600038B5F94C2078002804D022210E2000F076
:10F3700050FD38BD1F202071012565712220E070ED
:10F38000257008F0ADFB052802D00C20207138BD97
:10F3900000202071684608F059FA0028F7D100983B
:10F3A0008030807A05F0ABF8002803D1E749E848BF
:10F3B0000BF0D1FE009804F04FFA002804D0E44886
:10F3C000E249001D0BF0C7FEDF4820300575E1481B
:10F3D0000078F2F799FF38BDF8B5DB4D04462035CB
:10F3E000A87B002804D023210F2000F012FDF8BDD7
:10F3F0001F20E873232028740120A8736288D64B4D
:10F40000911F302099424CD2A1888E1F9E4248D233
:10F410008A4246D8E288FF23F4339A4241D82289AF
:10F42000CD4E13460A3B361FB3423AD2C9088A4230
:10F4300037D96189A289914233D80026208869464C
:10F4400004F05EF9022700280BD1009800F0F8FCC8
:10F45000002806D000988030416A0A78002A06D138
:10F4600001E0EF73F8BD826B1278002A01D03A20D8
:10F4700017E005228A71416A0E81426AA188518192
:10F48000426AE1889181426A2189D181406A018979
:10F490004289914204D88179082901D8914202D346
:10F4A0001220E873F8BD2188418000988030406ABE
:10F4B0000770EE73F8BDFEB5A34C06462078002811
:10F4C00004D024210E2000F0A4FCFEBD01256571AE
:10F4D0002420E0702570304604F039FF002801D068
:10F4E000002000E0122020710028EED1964F052266
:10F4F000E03738463D7731461D300BF0A2FC002640
:10F500003E77701E69460880684604F031F900288D
:10F5100019D168460788684601A9008804F0F0F808
:10F52000002804D08A4889498F300BF014FE0198D6
:10F53000A0300573684604F01BF9002803D1684623
:10F5400000888742E7D12671FEBD38B57E4C05465E
:10F550002034A07B002804D026210F2000F059FC85
:10F5600038BD1F20E073262020740120A073288856
:10F57000694604F0C5F800280BD1009800F060FC43
:10F58000002806D000988030416A0A78002A06D107
:10F5900001E002200DE0806B0078002801D03A20C5
:10F5A00007E007200870009829888030406A418071
:10F5B0000020E07338BD10B5634C2078002804D0DB
:10F5C00006210E2000F025FC10BD002020710E2029
:10F5D000A0700620E0700821A01D0BF08FFCA1791F
:10F5E00001200143A1716071207010BD38B5564CE7
:10F5F00005462034A07B002804D02C210F2000F0E9
:10F6000008FC38BD1F20E0732C2020740120A0735B
:10F610002888694604F074F800280CD1009800F09E
:10F620000FFC002807D00098014680314B6A1A78F9
:10F63000002A06D101E0022025E0896B0978002923
:10F6400001D03A201FE04030007F00281DD0082262
:10F65000A91C181D0BF0F5FB00986A898030416ADF
:10F660008A81406A294610220C310E300BF0E9FBEA
:10F67000009803218030406A01700098298880300A
:10F68000406A41800020E07338BD0C20FBE770B574
:10F690002D4E044630780C25002804D018210E2069
:10F6A00000F0B7FB41E402F0CBFE032865D002F086
:10F6B000CDFE032861D06079002801D001282DD12A
:10F6C000A079002801D0012828D1A07B002805D0EE
:10F6D000012803D0022801D003281FD1607B002815
:10F6E0001CD0C0081AD1628801208003824202D84F
:10F6F0002188814203D9207901280FD119E020798E
:10F70000002806D0012814D0022805D0032805D1EE
:10F7100002E0202A0BD30CE0A0290AD22079042889
:10F7200005D12088202802D36188884201D912257A
:10F7300023E00548217920308175607900280DD0BB
:10F7400001280FD019E000006C120020CCE6000068
:10F750007F080000800000207B0C0000FA4A002196
:10F76000204607E0F9488078002806D0F74A0121B2
:10F77000121F204608F01BFB0546012035717071F1
:10F780001821F170307058E410B5F04C403C2178ED
:10F79000002904D01A210E2000F03BFB10BD017897
:10F7A0001F2902D91220207106E000212171027860
:10F7B000411C104608F09EFB012060711A21E17087
:10F7C000207010BD10B5E14C403C2178002904D0D8
:10F7D00020210E2000F01DFB10BD01781F2902D949
:10F7E0001220207106E0002121710278411C104690
:10F7F00008F06FFB012060712021E170207010BDC6
:10F80000F8B5D24C403C2178002904D01B210E20B1
:10F8100000F0FFFAF8BD012666710C212171007815
:10F820000025012804D000285CD01220207188E037
:10F8300002F006FE002835D102F008FE002831D182
:10F8400008F021FAC24988422CD108F07AFA00283F
:10F8500077D0684603F0C6FEBB4A00990C3A916027
:10F86000002803D0BB49BC480BF075FC01220321E2
:10F87000009804F008FC009808F0CDFB00988A304E
:10F8800004F01BFE002804D1B348B24908300BF045
:10F8900062FC009803F08CFA002851D0AE48AD49C4
:10F8A0000C301CE002F0CCFD02284AD102F0CEFD63
:10F8B000002846D1A5482038807D002841D0012865
:10F8C0003FD004283DD008F03CFA002839D0002071
:10F8D00003F06EFA002833D09F489E4924300BF085
:10F8E0003AFC2DE002F0ACFD032804D002F0AEFD9E
:10F8F000032820D025E002F0A6FD0090002003F0B0
:10F900004FF900281DD1257100988030807A04F0CD
:10F91000F6FD002804D190488E493E300BF01BFCC8
:10F92000009803F0B1FE00280BD08B488949423083
:10F930000BF011FC05E0002003F032F9002800D1A3
:10F9400025711B20E0702670F8BD38B57F4C054648
:10F95000403C2078002804D02D210E2000F059FAD8
:10F9600038BD2888694603F057FE002801D00220E0
:10F970000FE00098CA21095C002909D13321095CF4
:10F980000F2901D0102903D1FC21095C00290BD0DB
:10F990000C2020710E20A0702D20E0702888E080BF
:10F9A00001206071207038BD1022A91CD8300BF0E6
:10F9B00048FA00980421C03081720020E9E738B588
:10F9C000624C0546403C2078002804D02E210E20B1
:10F9D00000F01FFA38BD2888694603F01DFE002894
:10F9E00001D002200CE000980146C030827A002A43
:10F9F00005D12031C97C0F290DD010290BD00C2046
:10FA000020710E20A0702E20E0702888E080012058
:10FA10006071207038BD052181720020F0E77CB54F
:10FA20004A4C0546403C2078002804D037210E205F
:10FA300000F0EFF97CBD2888694603F06FFE0028CE
:10FA400007D002202071012060713721E170207001
:10FA50007CBD01987F22014628300272427200224A
:10FA60008272A87822318870E878C8702879087185
:10FA70002271E8E71CB5354C403C2178002904D0C0
:10FA800013210E2000F0C5F91CBD0088694603F063
:10FA900045FE002801D0022006E001982421095CDF
:10FAA000801C012902D00C20207107E0002201995E
:10FAB00022712831097A21720088E080012060716A
:10FAC0001321E1700E21A17020701CBDF8B51F4CF0
:10FAD0000546403C2078002804D035210E2000F057
:10FAE00098F9F8BDA878002801D0012804D1A88889
:10FAF000FF21F531884201D91220207128886946FA
:10FB000003F08AFD0126002806D0022020716671CC
:10FB10003520E0702670F8BD009800270246C030FE
:10FB20000770AB8801464380104680300677AA787C
:10FB3000012A00D000220A70407F002801D003F083
:10FB400027FA2771E3E700008C000020AC120020A8
:10FB5000FFFF0000CCE600002D0A0000F8B5D44EEF
:10FB600004463078002804D03D210E2000F051F9E1
:10FB7000F8BD2088694603F04FFD002801D002201F
:10FB800027E0009F6488FD883A896800B988401C96
:10FB9000844217D3C7484143800050430BF0BAF961
:10FBA000401EFF2180B2F531884200D908468442C8
:10FBB00000D22046691C401C0BF0ACF96D1C684358
:10FBC000401E85B2E820C05D002800D17D84F5800C
:10FBD00000203071012070713D21F1703070F8BD4E
:10FBE00070B5B34C05462078002804D033210E2090
:10FBF00000F00FF956E502F023FC002801D00C209C
:10FC000018E02978002911D00A290FD014290DD025
:10FC10001E290BD0282909D0322907D04B2905D01D
:10FC2000642903D0FF2901D0122003E0284603F005
:10FC30004BF900202071012060713321E1702070A8
:10FC400030E570B59A4C05462078002804D03E2156
:10FC50000E2000F0DEF825E502F0F2FB002803D1CB
:10FC600002F0F4FB002801D00C2003E0287808F013
:10FC70004DF900202071012060713E21E17020705B
:10FC800010E510B5017801240B000BF085FB3FBF98
:10FC9000BF21BFBF4C94BFBFBF2427BFBF464F612A
:10FCA000BFBF59BFBFBF2B97BF9B9FBF797DBFA36E
:10FCB0008185888C6590BF5DBF555275A7ABBF37F6
:10FCC0002F33BB6DAFBF71423F3B4969B3B7C00033
:10FCD000FEF750FD9BE0FEF790FD98E0801CFEF7DC
:10FCE000D1FD94E0801CFEF7E3FF90E0801CFEF75E
:10FCF00080FE8CE0801CFEF792FF88E0801CFEF7FF
:10FD0000B4FF84E0801CFEF793FD80E0FEF7ECFD7D
:10FD10007DE0801CFFF7DEF879E0FEF769FF76E012
:10FD2000FEF7BEFE73E0FEF74BFE70E0FEF7F7FD58
:10FD30006DE0FEF72EFE6AE0801CFEF786FE66E0B0
:10FD4000801CFFF797FE62E0801CFEF7DAFF5EE0A2
:10FD5000801CFFF775F85AE0801CFFF73DF856E06D
:10FD6000801CFEF7FEFD52E0801CFEF725FF4EE0F2
:10FD7000801CFFF754FE4AE0801CFFF737FC46E08A
:10FD8000801CFFF7DDF842E0801CFFF74DF93EE0F4
:10FD9000801CFFF77CF93AE0FFF7E2FA37E0801CBD
:10FDA000FFF71AFB33E0801CFFF785FB2FE0801C78
:10FDB000FFF7CBFB2BE0FFF7FEFB28E0801CFFF7F3
:10FDC00066FC24E0801CFFF7DFFC20E0801CFFF7CE
:10FDD00017FD1CE0801CFFF7F5FC18E0801CFFF706
:10FDE000B4FD14E0801CFFF7EAFD10E0801CFFF773
:10FDF0006DFE0CE0801CFFF7B1FE08E0801CFFF7F1
:10FE000020FF04E0801CFFF7EBFE00E0002420460A
:10FE100010BD274A2032537C002B03D19074D1743B
:10FE200001205074704730B5134606E0CC18203CD2
:10FE3000D51AE47F5B1E4455DBB2002BF6D130BDF2
:10FE4000017800290CD14121095C002908D18030BA
:10FE5000017C002904D0007C042801D001207047D7
:10FE60000020704701784068002903D001780029FC
:10FE700005D100E0E4E740304078002801D00020C0
:10FE80007047012070470A4900208031886740315F
:10FE90000871704710B50178012908D14068803099
:10FEA000417F002903D00021417703F071F810BD94
:10FEB0006C120020C409000070B5FC4D00246C7069
:10FEC0002C70AC616C72AC720120E872F84844701E
:10FED000C473AC62F7482C6302F05FF9002804D0C9
:10FEE000FF20F5A14F300BF036F92C7770BDF8B537
:10FEF000F54902250D60F5490026CE630127CF6341
:10FF0000F349C96A09070DD4F24AD36AF2494B6230
:10FF1000136B8B62536BCB62936B0B63D26BCB0512
:10FF20001A434A63ED4C002823D0012825D0FF2036
:10FF3000E1A1A2300BF00FF9E948A063FF200430E3
:10FF40006063276303202061E64996204860D74913
:10FF50001C2008560B22D243811A904237D011DC64
:10FF60001C313AD00A2938D0142934D0182911D19B
:10FF70002FE0DD486061DD4802E0DD486061DD487A
:10FF8000A061D9E708301FD004281BD0082817D05B
:10FF90000C2812D0FF20D8A176300BF0DCF8DB491A
:10FFA000D9488860DB48DA494160DB490160DB48B9
:10FFB0000560DB4910204860F8BD0420E060EEE7F2
:10FFC000E660ECE7FC2000E0F820E060E7E7F420E2
:10FFD000FBE7F020F9E7EC20F7E7D820F5E710B5CC
:10FFE0000C460146CF480BF0B2F9B048047210BD80
:10FFF000AF4840787047AD4A517010707047F8B5FF
:020000040001F9
:1000000004460D4650791179000208436900091928
:100010000884501C01460E78012730464E7836027F
:1000200030438E78C9783604304309060843117886
:1000300000020843A9006050284608303E4686402A
:10004000002B0CD0012B04D0FF209BA1E9300BF03A
:1000500082F8206B3043AF4038432063F8BD206BFB
:10006000B043F8E770B50D460446082904D9FF20CF
:1000700091A1FA300BF06FF80022002D0CD9AA489C
:100080009100635809180B6053001B191B8C0B62FD
:10009000521CD2B2AA42F3D3206BA449086070BDAF
:1000A00010B504460B22D2430C308C49944223D025
:1000B00008DC1C3026D00A2824D0142820D0182888
:1000C00009D11BE02046083014D0042810D008289D
:1000D0000BD00C2807D0FF2087A176300BF03BF81F
:1000E0007248047710BD042000E00020C860F7E7E4
:1000F000FC20FBE7F820F9E7F420F7E7F020F5E72C
:10010000EC20F3E7D820F1E76948007B704773499A
:10011000C2784A6202461378184653781B02184385
:100120009378D2781B041843120610430002C8616A
:100130007047252808D0262808D0272808D0410055
:100140000A2807D8091D06E0022105E01A2103E06C
:10015000502101E0891DC9B2604A9160614948613E
:10016000704752498861704770B5002816D0022246
:100170004E4C6F4BA27203201860644D6248686059
:1001800000200126207500290AD001290FD002295C
:100190001DD049A167480AF0DEFF70BD0122E7E7E4
:1001A0006548012A01D0466070BD066070BD3F48B9
:1001B000012A006B05D001214905084320636960CD
:1001C00070BD0121090508432063696070BDA06905
:1001D000002804D1492038A1C0000AF0BCFFA16961
:1001E000A06A4018554988604A4855498160554978
:1001F000C1600120216BC0030143216368602C486A
:10020000C67370BDF8B54A4801688F084449BF00FD
:100210004A68D206D60F10228A60002404603B4848
:10022000394981600C2069460870474D2C6142496C
:10023000012008610BE000BF00BF00BF00BF00BF8E
:1002400000BF00BF00BF69460878401E08706846BE
:100250000078002802D028690028ECD06846007891
:10026000002804D14D2024A1C0000AF074FF2C61A5
:100270000E48012144728472C1722D480760002E1D
:1002800002D0274910204860F8BD01460A78104680
:100290004A78120210438A78C9781204104309067A
:1002A000084300020D49000AC86370477413002018
:1002B00094130020A81300207372635C68616C5F64
:1002C0007263732E6300000080E100E0C01F0040F5
:1002D00080000010C0000010001700400015004012
:1002E0005B060000401500400601020025000302E5
:1002F000050103001F0003027372635C68616C5F99
:100300007263732E630000000040000400F501409A
:100310004080004080F501401011004080E200E084
:1003200000130040761300200016004040160040E5
:1003300000120040550200000010004040850040BF
:10034000488100401010004000110040FB4902208D
:100350000860FB4908607047FA490220086070474E
:10036000F9490870704710B5F84801F01EFF0028E1
:1003700003D0F749F7480AF0EEFE10BD10B5F34878
:1003800001F02BFF10BDF4494860704770B5F34C85
:100390000546A06AA84203D3ED49F1480AF0DBFE06
:1003A00001202073EF49002025614860EE48456038
:1003B0000120216B800501432163EC49486070BD39
:1003C000E64802210173C6210161E64A002151601D
:1003D000816AE54AC63151600121026B89050A43F1
:1003E0000263E248416070470121E048890581606D
:1003F000DA48026B8A430021026301737047DC48CC
:1004000001214160C160D74900204860D649486059
:10041000D24988627047D74940200862D6490A68A5
:1004200002430A607047D44801684022914301604A
:10043000D049002008627047CF48016810229143DC
:100440000160CE49012088617047CD490020C86114
:10045000C94801681022114301607047C849CA6940
:10046000012A01D000207047C24A92685206520EFB
:10047000524202700020C8610120704770B50C0024
:10048000054604D1D920B24980000AF064FEE00795
:1004900005D0012C03D0AE49BA480AF05CFE002D0D
:1004A0000DD00221AD4801294172C472B24808D072
:1004B00002290BD0A649B4480AF04DFE70BD0121B7
:1004C000F0E7016804221143016070BD0168082251
:1004D0001143016070BDF8B5A04C0025E27A910788
:1004E00001D5410713D4D306A849002B05DA4B7B6D
:1004F000002B02D08B7B002B09D0130702D50B7881
:10050000002B04D1520703D54978002900D10125D9
:10051000677A002201239849002F1BD00226304021
:10052000284348D0084601688E089949B6004D68AE
:10053000ED06ED0F10278F60002101608B4A954872
:1005400090600C206A4610708D4F39618B490120F4
:10055000086114E0854D8F48A86008688008800015
:100560000860A272E372F8BD00BF00BF00BF00BF09
:1005700000BF00BF00BF00BF1078401E1070107891
:10058000002802D038690028EED01078002804D165
:100590004D208149C0000AF0DEFD00203861607204
:1005A000A0720120E07274480660002DDBD078480C
:1005B00010214160F8BD012F06D0022F0CD06449F4
:1005C00076480AF0C8FDF8BD08680425A84308600D
:1005D0006272E372A372F8BD08680825A843086038
:1005E0006272E372A672F8BD5C4908757047F8B58F
:1005F000664D5A49EC7B086B002C58D001245B4AAD
:10060000E4039460A04308635B480768604C1021D2
:10061000A16000210160001490600C206A461070F7
:10062000574C21615548012606610AE000BF00BF12
:1006300000BF00BF00BF00BF00BF00BF1078401E5A
:1006400010701078002802D020690028EED01078B1
:10065000002804D14D205049C0000AF07CFD002044
:10066000E060206160606061A061434807603F49CD
:1006700000144860464910204860384CA07A012890
:100680000FD0022810D0444945480AF064FD0020EC
:10069000E873207D022803D1424801688907FCD510
:1006A000F8BD36480660F2E734484660EFE72F4A67
:1006B000906000200863087B2A4E002802D07068F2
:1006C000012809D000222E4C2069012806D00023E1
:1006D000887A012804D006E00122F4E74023F7E7F6
:1006E000E768012F04D000271F43012802D004E04F
:1006F0002027F9E76368012B05D000233B432A4FED
:10070000022802D007E01023F8E73968012902D156
:10071000E168012904D000211943022802D007E032
:100720000821F9E73B68002B02D1E368012B3DD09B
:1007300000230B4302283BD03EE0000080E100E0B4
:1007400080E200E000E100E092000020A813002019
:10075000B8020100A202000000150040741300203E
:10076000B3020000408100404085004000F5014098
:100770000080004040150040001200400010004082
:1007800000110040690300007E0300009413002064
:100790000013004000400004F8020100CF030000F5
:1007A0005E03000000E200E0001400400423C0E704
:1007B000002A01D0022100E000211943022807D1BC
:1007C0006068012804D17068012801D0012700E089
:1007D000002790480F4301680906090E02D061699D
:1007E000012900D00021297300680006000E02D004
:1007F000A069012800D0002068738748006A00289B
:1008000003D000F0DCF9012800D00020A8730020FC
:10081000E060206160606061A06180494860804E56
:100820008049307548683C4670620968B1620B4681
:10083000B17A022909D17178002906D07A4A526822
:1008400012780A40317891430ED000212970774FF9
:10085000E10710D03978032908D0022906D002F028
:10086000D1FC0121B06A20E00121EFE707F022F975
:100870000121B06A27E0A0060ED53878032806D0FB
:10088000022804D00221184602F0CBFC0FE002211E
:10089000184607F010F90AE0A00708D538780328B1
:1008A0000FD002280DD00021184602F0BAFC5E4895
:1008B00041680622B01C09310AF096FA002805D0DA
:1008C0000DE00021184607F0F6F8F0E75648317AB7
:1008D00040680078C009814201D1012000E0002079
:1008E00068702046FFF7F7FD387800280DD0012802
:1008F0001ED002282FD003284AD04D494D480AF077
:100900002AFCB07A022856D075E0A00701D507F07E
:10091000C6FC200702D5012007F0FDFC600702D5C8
:10092000002007F0F8FCA006EBD507F059FCE8E73B
:10093000A00701D508F0E8FF200702D5012008F044
:100940004DFE600702D5002008F048FEA006D8D56D
:1009500008F098FDD5E7A007BF25002802DA2C4053
:1009600004F022FF200703D52C40012004F05DFB9A
:10097000600703D52C40002004F057FBA00602D5E9
:100980002C4004F061FE6006BBD504F04AFBB8E7DA
:10099000A00701D506F0F0F8200702D5012005F0E8
:1009A000B1FF600702D5002005F0ACFFA006A8D576
:1009B00005F01CFFA5E7307B00281CD0174900225A
:1009C0004A60022820D0012803D019491A480AF0A9
:1009D000C2FBB16A3069884203D8154917480AF04A
:1009E000BAFB1048316941600120316B8005014339
:1009F000316313494860307D012800D050E611482A
:100A000001688907FCD5F8BD3169B06A411805480D
:100A10004160E9E740160040401500404081004039
:100A20007413002040850040001500409200002013
:100A3000B8020100FD0400001205000013050000CB
:100A400000F5014000E200E02E48002101704170F5
:100A5000704770B5064614460D460120F0F7A2FC1B
:100A600028490120284B08709E60DC601D6170BD24
:100A7000F8B504460120F0F795FC224901200870E2
:100A800021494C60214900264E600321204D090672
:100A9000A960204F002C0AD0012C03D01EA14120B8
:100AA0000AF059FB3E60032000066860F8BD38601C
:100AB00001200006F9E710B51248017800290ED090
:100AC0000321134A0906916010494A680021002A4F
:100AD00003D0154A1268427000E041700170002096
:100AE000F0F760FC10BD07480178002907D00748DF
:100AF0004068002802D00C480068C0B270474078B7
:100B0000704700009300002000F5004000F1004015
:100B100000F5014000F200407372635C68616C5F35
:100B200063636D2E6300000000F400403B48002129
:100B30000170417010218170704770B506461446EF
:100B40000D460220F0F72EFC01203449344A08708B
:100B5000E41E14619660556070BD10B50220F0F778
:100B600021FC2E49012008702E48002101604160BF
:100B7000816001202C49C005486010BD10B5274890
:100B80000178002917D00121274AC905916025491C
:100B90000B680022002B05D04B68002B02D089681F
:100BA000002902D04270102103E0012141701F4949
:100BB0000968817002700020F0F7F4FB10BD17483F
:100BC0000178002912D01748016800290AD001686D
:100BD000002905D04168002902D08068002803D090
:100BE000002070470220704701207047407870470E
:100BF0000A48017800290FD00A480168002905D069
:100C00004168002902D08068002801D01020704778
:100C100006480068C0B27047807870479500002091
:100C200000F5004000F1004000F5014000F40040F4
:100C3000FFB593B0044600201D9E049015981C9D9E
:100C40001027082806D0E06901F014F8002809D020
:100C50003770CCE028880921384328801F98022764
:100C6000017016E0E169012088710521E269C9027D
:100C70009180E1698872E169F9480881E1690020A1
:100C80008873288820210843288011211F98042771
:100C900001701F980225801C0390307810900A2064
:100CA0003070204618301190F5F7A1FC00206FE05D
:100CB0001598102809D1022D07D06846828A049918
:100CC0000398401A8270110AC1706846C08A16994A
:100CD000884203D9E349097A149106E0884204D195
:100CE0001099002901D0317021E003990870000AA1
:100CF00048701E980088401BC01B83B2FF20C01B99
:100D0000984200D203460398149AC0190CA9009285
:100D1000019002912020015D6846C08A0022F5F70B
:100D2000DBFC3070002806D0C0B2832862D0684651
:100D3000C08A208345E00F98002805D0C948006884
:100D400000790A2830D33CE06846008EC119C9B248
:100D50000491022D0FD01F99049A4978914203D132
:100D60006A46128C824209D0BE480491006801781C
:100D7000032909D027E008461F994870B948006840
:100D80000178042906D008E000790A281BD2012046
:100D90000F9009E06946C98A818003990498081870
:100DA00003900498281885B205AA14991198F5F7AC
:100DB00021FC002805D11E980088401BB84200DBAA
:100DC00076E7022D0ED01598102807D1049A0399C2
:100DD0006846808A891A8870000AC8701E98058043
:100DE000002030709F4800680078032802D000205F
:100DF00017B0F0BD0220FBE7F8B50446406B0026B3
:100E0000134600282BD0491F8DB2618F2A46083225
:100E1000278F8A18BA4221D89A7840185F78110231
:100E200039430170090A41701A79DF781102394398
:100E30008170090AC1700571290A41712A46591D3C
:100E4000801D09F0FEFF608FAD1D401980B26087E4
:100E5000626B002110180170417000E009263046D5
:100E6000F8BD30B50B88048F9C4212D9446BE01852
:100E70004478057824022C430BD044790579240268
:100E80002C436404640CA41D1B190B80106000200B
:100E900030BD822030BDF7B588B000256846058298
:100EA00005275DE00398417802780E0216434179E8
:100EB000027908021043000452D40A9801230680E4
:100EC00005A802905B02002200970195304609991F
:100ED000F5F702FC04004AD16846018A01830398B1
:100EE0004179027909021143437802781C021443C4
:100EF000B4421ED10A041CD44B0401215B0C8903AB
:100F000000950B4301970295C17880780A0202434D
:100F100020460999F5F7FCF9040011D103994879A5
:100F20000A79000210430122D20310430871000A1B
:100F3000487103AA06A90898FFF793FF0400CED0D2
:100F400003990095019702954878097800020843B3
:100F500069468B8A00220999F5F7DAF9822C06D1C5
:100F600003AA04A90898FFF77CFF04009AD06846FA
:100F7000058209E003984179027909021143490485
:100F8000490C0171090A417103AA04A90898FFF7E5
:100F900068FF0028EED0822C02D020460BB0F0BDB6
:100FA0000020FBE730B50446406B002597B00028D1
:100FB0000DD00B2268460270228F0281606B039174
:100FC000019000216846F2F72AFB684605706563C8
:100FD0006587258717B030BDF8B50F460546696BA4
:100FE0000020069E144600290FD0012B0DD1324659
:100FF00039462846FFF74FFF002806D1002C04D0C1
:1010000032463946284600F044FEF8BD00220280F0
:10101000C262831D0263C36142634287028720303C
:101020000170704710B50022D24302800420FBF704
:10103000E4FA10BD10B596B00446FFF7B3FF208E5A
:10104000002808D0012069460870E06A019000215C
:101050006846F2F7E4FA0020E062206316B010BDA3
:1010600001280000AC1300200146098800200A076F
:1010700000D501200A06120F01D002221043CA0532
:1010800001D5042210438A0501D5102210434905D9
:1010900001D5202108437047FFB5A9B00600329D55
:1010A000359C2B981F46229016D0007841060FD40D
:1010B0008106890E1E2909D021884A05520E0BD1BE
:1010C0003A88172A08D3FE4A914205D0C10906D0B2
:1010D0008006800E122802D003202DB0F0BD2046DD
:1010E0002C302690F7492A980872002018AA0390FD
:1010F00010726A46107404AA0A60339A4A6020AAE1
:10110000908090812298007801908106681C1C9044
:10111000701F1D902B98890EC21C249222462032EB
:101120001B92083A401C02920B000AF035F91FFD91
:10113000FD11FD1FFD8EFDFCFDFBFDFAFDF9FDFC23
:10114000FDF8FDFDFDF7FDF6FDFDFDFDFDF5FD00E6
:10115000032E76D102E018A9087219E30320287043
:101160001C9917220A7000224A70CFE2052EF0D196
:101170004178027808021043208320A98880249AAD
:101180005178127809021143618300287ED0884289
:101190007CD800202072E080401E60840298F5F721
:1011A00026FA05202870A81C0190022000901BAA96
:1011B0002A990298F5F71EFA002868D118A8807CB1
:1011C000012803D002206870102002E0012068701E
:1011D00002202490002225A91CA8F1F7AAFD0028CE
:1011E0002BD120A8007D2499814226D13A880099EC
:1011F000801C511A814220DB10A8C18D019801701A
:10120000090A417001991CA8891C01910099019A51
:10121000891C009125A9F1F78CFD20A8007D01997A
:101220001BAA091801910099081880B200902A9908
:101230000298F5F7DFF90028CCD00098022826D0D4
:1012400064E272E018A9087261E2072E6DD341785A
:101250000346027808021043208320A98880249A3C
:101260005178127809021143618300280ED0884218
:101270000CD8012020725879197900020843E080C7
:1012800000202073E06900F0F5FC01E098E0A9E09F
:1012900000280ED1E169012088710521E269C902A7
:1012A0009180E1698872E16987480881E1690020DD
:1012B0008873F01F60842298C01D60620298F5F761
:1012C00096F907202870681C0090012001900020EA
:1012D00010A9C8852FE00198012814D0E069807911
:1012E000012830D000981E38417F007F0902014359
:1012F00000980170090A41700098801C00900198C4
:10130000801C80B2019010A8C18D00980170090A5C
:1013100041700098801C09E00AE296E13BE1DFE0C1
:1013200004E29BE077E036E016E2AFE0009001983F
:10133000801C80B201901BAA2A990298F5F75AF9ED
:10134000002803D007E010A8818DD1E739880198E3
:10135000081A0428BFDA0198012843D0E06980798F
:10136000012804D010A8818D5548814206D110A8CB
:10137000818D00980170090A417009E000981E38BB
:10138000417F027F0802009910430870000A4870EC
:101390000198801CBAE1072E01D0152E76D1417834
:1013A000027808021043208320A98880249A51786B
:1013B0001278090211436183002801D0884201D9C3
:1013C00001203FE7012020720020E0802073052EDD
:1013D0000AD01D982299E269C0B2491DF1F783FC39
:1013E000002801D00A202DE70020C04360841AA8FD
:1013F000019023A922980297039500910078002379
:101400008206920E20462A99FFF712FC0390208B49
:1014100020A988807BE1032EC0D1402220A98A81A7
:101420004178027808021043208320A988802A99F5
:101430001EAB1C9A02930192009139880022491E2A
:101440008BB21B990978F5F747F918A9087200289B
:1014500033D10B20287010A8008F3FE0052E9DD1BE
:10146000802220A98A8141780278080210432083D3
:10147000249984464A78097812020A43628420A992
:1014800088801248824202D30720DBE6AFE03F208B
:101490008002024362842A981FAB1C990293019137
:1014A00000903888401E83B21B9801786046F5F79B
:1014B00013F918A9087200280CD08328AAD107E0D4
:1014C000FFFF0000AC130020012800000102000013
:1014D0000220B8E00D20287010A8808F401C15E174
:1014E00001990C22C9095143C91CB14204D9019880
:1014F00040067CD5002009E14278037810021843A9
:1015000020AA9080844622980078400609D50520BC
:101510006A46107422980078C00905D00020107423
:101520001DE106206A46107424981F902A9A0090A4
:101530000023701A029383B21E9001921B9800221E
:1015400001786046F4F7E4FE18A9087200226946A3
:101550000A74832801D10220039022980078400663
:101560000DD52088C00506D520A9208B8988884202
:1015700001D100206062002018A90872C6E0FF2196
:10158000013120A88181808820831E9860841F9863
:1015900060621320B8E0052E29D341780278080252
:1015A000104320A98880218F002902D0FE4A914251
:1015B00006D10A216A4611740121C943218702E03C
:1015C00007216A46117422992A9A491D01920091B5
:1015D00001221D990023D203029311438BB2249957
:1015E0004A78097812020A431B99097800E0C9E099
:1015F000F4F78EFE18A90872002269460A740122C7
:10160000520220A98A81832808D0002809D0218F7E
:10161000E54881427ED10020208778E088882083B9
:101620004DE7606B002808D031462046229AFFF72C
:10163000E3FB18A90872002869D12B463A463046C8
:10164000229900F056FB039061E02298022E407828
:1016500001907DD1002801D0012879D10820694668
:1016600008740198087521A800901B980022017841
:101670002046019BFFF7B0FC6946002248758A7539
:10168000002802D10198012809D0208F002806D017
:10169000002008740120800220A988810EE004A89F
:1016A0003399F1F7BCFF03900020694608740120CC
:1016B000800220A988810398022807D0BB480068CF
:1016C0008079002805D018A908722BE001982083A2
:1016D0001DE00398002803D0812018A9087240E07B
:1016E00021A800901B98012201782046019BFFF75A
:1016F00073FC18A9087220463499FFF753FC18A907
:10170000087A002803D11920287001203880684603
:10171000007C00E03CE0002804D004A83399F1F7F5
:101720007EFF0390039800282ED01AE0062012E5D1
:101730002078000713D5012E11D1092168460174C4
:10174000A188818204203499FAF757FF082100E02C
:1017500005E020A88181CDE60198400612D503203E
:10176000039020A9208889890843208020A988899E
:101770004005400E04D026992B9808602698868054
:101780000398AAE40420E6E418A8007A00280ED002
:101790000120287022980078687020A88088A8709E
:1017A000000AE87018A8007A28710520388020A95E
:1017B0002088898988432080E2E7FFB50746A1B0E9
:1017C00000201C903A7801209040794A7C681040B3
:1017D00010AA1087744B22885B1C9A4203D0002801
:1017E00004D0100702D5012025B0F0BD249E0020B2
:1017F000307023980025028810A8028518A8057566
:101800006A4B68461972057404A8186020462C308B
:101810001B902A985860249E94463878721C0521A3
:10182000039201282DD0022808D003287DD13078DA
:10183000800980011D303070B889A0803878022876
:1018400004D13078800980011B303070F01C1FAA51
:1018500001900292009110A8008D0022C01E83B258
:101860002020015DB889F4F737FF0028DED1039806
:10187000B9890170090A417010A9888FC01C0885B8
:1018800028E1787B18AA10753A7B012A02D0022A37
:10189000CCD1FCE022887F231B011A4010AB1A87B1
:1018A000802A4AD006DC102A10D0202A0ED0402AE6
:1018B0000AD124E0FF3A013A65D0FF3A013A79D0E3
:1018C000FF3AFF3A022A76D00525A2E02078C0062A
:1018D00001D5082000E010201C9004206A461074F6
:1018E000002090821AA81DAA1EAB039601920290B6
:1018F00000933B8A20461C9AFFF79AF984E0228BDA
:101900003B8A9646934268D10A221C92002839D11C
:10191000039801906046401E1FAA83B202922020C5
:101920000091015D0022704600E0BAE0F4F7D4FEB9
:10193000014618A801750B201AE0228B3B8A9646B7
:1019400093424AD10C221C92002862D10398019044
:1019500060461FAA401E0292009183B22020015DC2
:10196000628C7046F4F7B8FE014618A801750D2088
:10197000307010A8818F491C0185042168460174CC
:10198000218B818245E0238B3A8A9C469A4224D15E
:1019900012221C9200283CD1606A002813D0002239
:1019A0006B4607C3638C07E0FEFF0000AC1300200A
:1019B00009F800000DE04BE02020015D6046F4F7DF
:1019C000A7FC18A9087513203070012010A90885FC
:1019D0001FE0398A228B914201D00425B6E01621FE
:1019E0001C91002815D11B98818802682046FFF7BA
:1019F00003FA18A9087500280BD11B983346016813
:101A000080881AAA00F075F9054602281BD0042D1B
:101A100019D01B988088002811D06846007C0028C7
:101A200004D004A82A99F1F7FAFD05460120694679
:101A300008741B981B990068059000208880002D71
:101A400048D0052D2ED06846007C032878D07DE054
:101A500018211C91002806D0388A20832046B968B6
:101A6000FFF7A0FAD5E72046183000902020015D4E
:101A7000237E01222046FFF7AFFA18A90875002837
:101A8000ECD119203070012010A90885E6E72088E4
:101A900001214902084010A90887FF38FF380228B1
:101AA00006D0052510A92088098F884320804DE0A5
:101AB000208F9849884290D116201C9038690028C0
:101AC00005D06063B88A20870020608702E000208C
:101AD000C043208710A8008F7F21090102468A4356
:101AE0000DD0782300220420B968FAF7DFFC38789B
:101AF000A07010A92088098F0843208002E0218867
:101B0000814321806846007C002805D082484168D6
:101B100004A8F1F784FD054618A8007D002815D01B
:101B20001C98707001203070208BB070000AF0702B
:101B300018A8007D3071052110A8018506E0FFE797
:101B40007548416804A8F1F76AFD05467248017AB4
:101B500020884005400E22D11B98808800281ED086
:101B6000239A0026138810AA1385249A2A9B6F466D
:101B70004CC71B9A039412681AABFFF78DFA0546FF
:101B800002280CD00120694608741B982A99006825
:101B9000059004A8F1F743FD05461B98868010A820
:101BA000018D2398018028461EE600B597B00428D1
:101BB00007D102206A461070019100216846F1F7B2
:101BC0002EFD17B000BD10B5534C037800222168DC
:101BD000012B02D0022B42D126E00B78002B01D042
:101BE000042B03D10A7122680321117021688388B4
:101BF0000A79D200921D8B5221680A79D2000832EC
:101C00008918C2880A80216803890A79D2000A32B9
:101C10008B52428920680179C9000C3142522168F7
:101C20000879401C08711EE00A7482888A80216845
:101C3000C288CA8022680189118122684189518144
:101C4000C1682068C1606168F1F7E9FC01460228BB
:101C500007D02068007C002802D1002903D0812011
:101C600010BD832010BD002010BD406B002800D0A7
:101C7000012070478178012909D100880521C90216
:101C8000884202D0491C884201D1002070470520BB
:101C90007047F7B586B00024684615460F46848124
:101CA00005261AE004984178027809021143298038
:101CB000811D019602940091417902790B02134330
:101CC000C178827809020A43417800780902084302
:101CD0003946F4F71DFB002806D104AA03A906988B
:101CE000FFF7BFF80028DDD0822800D1002009B01E
:101CF000F0BD10B51488844201D2052010BD172410
:101D00001C701080421E581C491C09F09AF80020D3
:101D100010BD0000FEFF0000AC13002030B50346EC
:101D2000002002460DE09C5C2546303D0A2D02D382
:101D30000020C04330BD0A25684330382018521CAB
:101D4000D2B28A42EFD330BD70B50D46144608E0DA
:101D50000A2109F0DFF82A193031203A641ED177C0
:101D6000E4B2002CF4D170BD10B5002310E0040AD9
:101D700000020443A0B2CC5C44402006000F604047
:101D80000407240C44402006C00C60405B1C9BB23E
:101D90009342ECD310BD000010B572B600F0DCF831
:101DA00000280BD0EFF77CFAFAF7E1FD08F097FB7B
:101DB0006E490020C86288626D49086062B60020E2
:101DC00010BDF3B5002501200007C06A81B0C043F3
:101DD0000006000E04D167480068401C00D10125B0
:101DE00072B600F0B9F8002802D062B60820FEBD35
:101DF000EFF7ACF9EFF758FA5F4B604E00211A6825
:101E0000CA40D2071FD00246CA40D20718D14AB2F0
:101E1000002A07DA1407240F083CA408A400A41918
:101E2000E46904E09408564FA400E419246892077A
:101E3000D20ED4402206920F012A04D0032A02D0E7
:101E400062B65048FEBD491C2029D8D30198030032
:101E500009F0A2FA142123232323232323230B0D88
:101E60000F11131F1517191B1D2E002416E0012436
:101E700014E0022412E0032410E004240EE00824FD
:101E80000CE009240AE00A2408E00B2406E00C24F4
:101E900004E0052402E0072400E00624F0690121A3
:101EA0000002000AC9070843F061002D04D009E0D0
:101EB00062B601200003FEBD2C4D3348E862EFF707
:101EC000F3F9A8622A49314808603149029808604C
:101ED000EFF7EAF9214608F0E9FAFAF70CFD08F005
:101EE000EFFC08F065FB0198EFF7A8F9040062B673
:101EF00003D0FFF751FF2046FEBD0020FEBD10B508
:101F0000044600F029F8002800D0012020700020AD
:101F100010BD204908600020704710B50C461028FD
:101F200008D011280BD012280CD013280ED0012075
:101F3000086010BD03CC083CFFF743FF0AE0FFF741
:101F40002BFF07E02068FFF7DAFF03E01149206864
:101F500008600020206010BD05480C4900688842D8
:101F600001D10120704700207047000000050040AB
:101F7000640000200010001000E100E000ED00E02F
:101F800000E400E00110000000220000BEBAFECA1A
:101F9000980000200400002010B520380C460300F3
:101FA00009F0FAF933A6AAAEB2B8BCC0C5E0DBE4CA
:101FB0001B1F23272C31373C41474D5054585C6040
:101FC0006D71656974787C8084888C9094989C9FEE
:101FD000A2CACFE9F0F3D3D7F800206800F0DDF80B
:101FE000D6E0206800F0E1F8D2E0206800F0F5F8D3
:101FF000CEE0207840B208F0C9F8C9E0207840B2BD
:1020000008F0E7F8C4E02078616840B208F0FAF818
:10201000BEE0207840B208F00AF9B9E0207840B27A
:1020200008F015F9B4E02078217940B208F020F9E1
:10203000AEE02078616840B208F04AF9A8E008F004
:1020400056F9A5E0206808F05AF9A1E0207808F0D8
:102050006FF99DE02068FAF738F899E02068FAF700
:1020600038F895E021792068FAF73AF890E020688E
:1020700007F0D8FF8CE0206807F0D9FF88E02078CF
:1020800007F0D9FF84E007F0E3FF81E0207807F054
:10209000E5FF7DE0207807F0F7FF79E0206808F0A1
:1020A00010F875E0206808F012F871E0206808F078
:1020B00014F86DE0206808F015F869E0206808F071
:1020C00017F865E0206808F019F861E0206808F06A
:1020D0001AF85DE00846EFF751F859E0F0F787F994
:1020E00056E0F0F7B4F953E02068F0F7BCF94FE0A0
:1020F000206800F0E1F84BE0206800F0E9F847E0E4
:10210000206800F0F0F843E02078A268616800F0F1
:10211000F5F83DE0207800F006F939E0207800F08D
:1021200017F935E02078616800F027F930E0207871
:10213000616800F03AF92BE02179207808F008FA7C
:1021400026E0206800F06BF822E02068FAF7FEFA3B
:102150001EE02068FAF7E2FA1AE007CC0C3C08F01F
:10216000F1FA15E0206808F044FB11E003CC083CCC
:1021700008F06FFB0CE0206808F065FD08E009E05E
:1021800003E0FFE708F077FD02E0206808F0AEFD0D
:10219000206010BD0120086010BD002101700846BC
:1021A00070470146002008707047EFF31081C9079F
:1021B000C90F72B60278012A01D0012200E0002284
:1021C00001230370002900D162B6002A01D000204B
:1021D0007047012040037047E7E7EFF31081C9071C
:1021E000C90F72B600220270002900D162B6002029
:1021F0007047F2E710B52848FFF7CFFF002803D05B
:1022000026A11D2008F0A7FF2348401CFFF7C5FFAB
:10221000002803D021A1212008F09DFF10BDF1B5B9
:10222000224D6F6801261C48FFF7BFFF1A4C00289B
:1022300003D10026601CFFF7D0FF1D4A1D49012075
:10224000506000BF00BF00BF00BF00BF00230B6095
:102250004B60009B6B60106000BF00BF00BF00BF01
:1022600000BF0868002802D148680028F9D04868F3
:102270000028E4D1002E04D06F60601CFFF795FFAA
:1022800007E0601CFFF791FF0028D3D10248FFF759
:10229000A4FF0020F8BDC2E79C0000207372635CBD
:1022A000736F635F6563622E6300000000E50040AA
:1022B00000E0004000E100405A495B4B0A685B497E
:1022C0009A42096801D18904890C01600020704795
:1022D0005449554B0A6855499A4201D18004800CF3
:1022E0004860002070474F494F4B0A684F499A4257
:1022F00001D18004800C88600020704730B5494BC4
:10230000494D1C684A4BAC4202D0102802D203E06F
:102310000E2801D3184630BDC30044481818016187
:102320004261002030BD3F493F4B0A684049491C8B
:102330009A4202D0042802D203E0022801D30846C0
:1023400070473C4A0121C00080180160002070479E
:102350003449354B0A683649491C9A4202D0042850
:1023600002D203E0022801D308467047314A012116
:10237000C000801841600020704770B5294A2C4B7E
:1023800014682D4E284D82005B1C9219AC4203D07C
:10239000042803D2116006E0022801D3184670BD5C
:1023A0008804800C1060002070BD70B51D4A204B61
:1023B0001468214E1C4D82005B1C9219AC4203D064
:1023C000042803D2106806E0022801D3184670BD25
:1023D00010688004800C0860002070BD10B5134A9E
:1023E000164890600E200021C3009B1819615961A6
:1023F000401C1028F8D300200F4A05E0022803D320
:1024000083009B18196005E083009B181C68A404D6
:10241000A40C1C60401C0428F0D310BD03490748DD
:102420008860704764000020BEBAFECA00F5014013
:102430000820000000F0014000F8014000C0FFFF4C
